{
	"contracts/Erc1.sol": {
		"MyFirstToken": {
			"abi": [
				{
					"inputs": [
						{
							"internalType": "address",
							"name": "initialOwner",
							"type": "address"
						},
						{
							"internalType": "uint256",
							"name": "amount",
							"type": "uint256"
						},
						{
							"internalType": "address",
							"name": "_taxCollector",
							"type": "address"
						}
					],
					"stateMutability": "nonpayable",
					"type": "constructor"
				},
				{
					"inputs": [
						{
							"internalType": "address",
							"name": "spender",
							"type": "address"
						},
						{
							"internalType": "uint256",
							"name": "allowance",
							"type": "uint256"
						},
						{
							"internalType": "uint256",
							"name": "needed",
							"type": "uint256"
						}
					],
					"name": "ERC20InsufficientAllowance",
					"type": "error"
				},
				{
					"inputs": [
						{
							"internalType": "address",
							"name": "sender",
							"type": "address"
						},
						{
							"internalType": "uint256",
							"name": "balance",
							"type": "uint256"
						},
						{
							"internalType": "uint256",
							"name": "needed",
							"type": "uint256"
						}
					],
					"name": "ERC20InsufficientBalance",
					"type": "error"
				},
				{
					"inputs": [
						{
							"internalType": "address",
							"name": "approver",
							"type": "address"
						}
					],
					"name": "ERC20InvalidApprover",
					"type": "error"
				},
				{
					"inputs": [
						{
							"internalType": "address",
							"name": "receiver",
							"type": "address"
						}
					],
					"name": "ERC20InvalidReceiver",
					"type": "error"
				},
				{
					"inputs": [
						{
							"internalType": "address",
							"name": "sender",
							"type": "address"
						}
					],
					"name": "ERC20InvalidSender",
					"type": "error"
				},
				{
					"inputs": [
						{
							"internalType": "address",
							"name": "spender",
							"type": "address"
						}
					],
					"name": "ERC20InvalidSpender",
					"type": "error"
				},
				{
					"inputs": [
						{
							"internalType": "address",
							"name": "owner",
							"type": "address"
						}
					],
					"name": "OwnableInvalidOwner",
					"type": "error"
				},
				{
					"inputs": [
						{
							"internalType": "address",
							"name": "account",
							"type": "address"
						}
					],
					"name": "OwnableUnauthorizedAccount",
					"type": "error"
				},
				{
					"anonymous": false,
					"inputs": [
						{
							"indexed": true,
							"internalType": "address",
							"name": "owner",
							"type": "address"
						},
						{
							"indexed": true,
							"internalType": "address",
							"name": "spender",
							"type": "address"
						},
						{
							"indexed": false,
							"internalType": "uint256",
							"name": "value",
							"type": "uint256"
						}
					],
					"name": "Approval",
					"type": "event"
				},
				{
					"anonymous": false,
					"inputs": [
						{
							"indexed": true,
							"internalType": "address",
							"name": "previousOwner",
							"type": "address"
						},
						{
							"indexed": true,
							"internalType": "address",
							"name": "newOwner",
							"type": "address"
						}
					],
					"name": "OwnershipTransferred",
					"type": "event"
				},
				{
					"anonymous": false,
					"inputs": [
						{
							"indexed": true,
							"internalType": "address",
							"name": "from",
							"type": "address"
						},
						{
							"indexed": true,
							"internalType": "address",
							"name": "to",
							"type": "address"
						},
						{
							"indexed": false,
							"internalType": "uint256",
							"name": "value",
							"type": "uint256"
						}
					],
					"name": "Transfer",
					"type": "event"
				},
				{
					"inputs": [
						{
							"internalType": "address",
							"name": "",
							"type": "address"
						},
						{
							"internalType": "address",
							"name": "",
							"type": "address"
						}
					],
					"name": "_taxRecord",
					"outputs": [
						{
							"internalType": "uint256",
							"name": "",
							"type": "uint256"
						}
					],
					"stateMutability": "view",
					"type": "function"
				},
				{
					"inputs": [
						{
							"internalType": "address",
							"name": "owner",
							"type": "address"
						},
						{
							"internalType": "address",
							"name": "spender",
							"type": "address"
						}
					],
					"name": "allowance",
					"outputs": [
						{
							"internalType": "uint256",
							"name": "",
							"type": "uint256"
						}
					],
					"stateMutability": "view",
					"type": "function"
				},
				{
					"inputs": [
						{
							"internalType": "address",
							"name": "spender",
							"type": "address"
						},
						{
							"internalType": "uint256",
							"name": "value",
							"type": "uint256"
						}
					],
					"name": "approve",
					"outputs": [
						{
							"internalType": "bool",
							"name": "",
							"type": "bool"
						}
					],
					"stateMutability": "nonpayable",
					"type": "function"
				},
				{
					"inputs": [
						{
							"internalType": "address",
							"name": "account",
							"type": "address"
						}
					],
					"name": "balanceOf",
					"outputs": [
						{
							"internalType": "uint256",
							"name": "",
							"type": "uint256"
						}
					],
					"stateMutability": "view",
					"type": "function"
				},
				{
					"inputs": [
						{
							"internalType": "uint256",
							"name": "value",
							"type": "uint256"
						}
					],
					"name": "burn",
					"outputs": [],
					"stateMutability": "nonpayable",
					"type": "function"
				},
				{
					"inputs": [
						{
							"internalType": "address",
							"name": "account",
							"type": "address"
						},
						{
							"internalType": "uint256",
							"name": "value",
							"type": "uint256"
						}
					],
					"name": "burnFrom",
					"outputs": [],
					"stateMutability": "nonpayable",
					"type": "function"
				},
				{
					"inputs": [],
					"name": "currentTaxDeducted",
					"outputs": [
						{
							"internalType": "uint256",
							"name": "",
							"type": "uint256"
						}
					],
					"stateMutability": "view",
					"type": "function"
				},
				{
					"inputs": [],
					"name": "decimals",
					"outputs": [
						{
							"internalType": "uint8",
							"name": "",
							"type": "uint8"
						}
					],
					"stateMutability": "view",
					"type": "function"
				},
				{
					"inputs": [],
					"name": "grossTaxCollected",
					"outputs": [
						{
							"internalType": "uint256",
							"name": "",
							"type": "uint256"
						}
					],
					"stateMutability": "view",
					"type": "function"
				},
				{
					"inputs": [
						{
							"internalType": "address",
							"name": "to",
							"type": "address"
						},
						{
							"internalType": "uint256",
							"name": "amount",
							"type": "uint256"
						}
					],
					"name": "mint",
					"outputs": [],
					"stateMutability": "nonpayable",
					"type": "function"
				},
				{
					"inputs": [],
					"name": "name",
					"outputs": [
						{
							"internalType": "string",
							"name": "",
							"type": "string"
						}
					],
					"stateMutability": "view",
					"type": "function"
				},
				{
					"inputs": [],
					"name": "owner",
					"outputs": [
						{
							"internalType": "address",
							"name": "",
							"type": "address"
						}
					],
					"stateMutability": "view",
					"type": "function"
				},
				{
					"inputs": [],
					"name": "renounceOwnership",
					"outputs": [],
					"stateMutability": "nonpayable",
					"type": "function"
				},
				{
					"inputs": [],
					"name": "symbol",
					"outputs": [
						{
							"internalType": "string",
							"name": "",
							"type": "string"
						}
					],
					"stateMutability": "view",
					"type": "function"
				},
				{
					"inputs": [],
					"name": "taxCollector",
					"outputs": [
						{
							"internalType": "address",
							"name": "",
							"type": "address"
						}
					],
					"stateMutability": "view",
					"type": "function"
				},
				{
					"inputs": [],
					"name": "totalSupply",
					"outputs": [
						{
							"internalType": "uint256",
							"name": "",
							"type": "uint256"
						}
					],
					"stateMutability": "view",
					"type": "function"
				},
				{
					"inputs": [
						{
							"internalType": "address",
							"name": "to",
							"type": "address"
						},
						{
							"internalType": "uint256",
							"name": "value",
							"type": "uint256"
						}
					],
					"name": "transfer",
					"outputs": [
						{
							"internalType": "bool",
							"name": "",
							"type": "bool"
						}
					],
					"stateMutability": "nonpayable",
					"type": "function"
				},
				{
					"inputs": [
						{
							"internalType": "address",
							"name": "from",
							"type": "address"
						},
						{
							"internalType": "address",
							"name": "to",
							"type": "address"
						},
						{
							"internalType": "uint256",
							"name": "value",
							"type": "uint256"
						}
					],
					"name": "transferFrom",
					"outputs": [
						{
							"internalType": "bool",
							"name": "",
							"type": "bool"
						}
					],
					"stateMutability": "nonpayable",
					"type": "function"
				},
				{
					"inputs": [
						{
							"internalType": "address",
							"name": "newOwner",
							"type": "address"
						}
					],
					"name": "transferOwnership",
					"outputs": [],
					"stateMutability": "nonpayable",
					"type": "function"
				}
			],
			"devdoc": {
				"errors": {
					"ERC20InsufficientAllowance(address,uint256,uint256)": [
						{
							"details": "Indicates a failure with the `spender`’s `allowance`. Used in transfers.",
							"params": {
								"allowance": "Amount of tokens a `spender` is allowed to operate with.",
								"needed": "Minimum amount required to perform a transfer.",
								"spender": "Address that may be allowed to operate on tokens without being their owner."
							}
						}
					],
					"ERC20InsufficientBalance(address,uint256,uint256)": [
						{
							"details": "Indicates an error related to the current `balance` of a `sender`. Used in transfers.",
							"params": {
								"balance": "Current balance for the interacting account.",
								"needed": "Minimum amount required to perform a transfer.",
								"sender": "Address whose tokens are being transferred."
							}
						}
					],
					"ERC20InvalidApprover(address)": [
						{
							"details": "Indicates a failure with the `approver` of a token to be approved. Used in approvals.",
							"params": {
								"approver": "Address initiating an approval operation."
							}
						}
					],
					"ERC20InvalidReceiver(address)": [
						{
							"details": "Indicates a failure with the token `receiver`. Used in transfers.",
							"params": {
								"receiver": "Address to which tokens are being transferred."
							}
						}
					],
					"ERC20InvalidSender(address)": [
						{
							"details": "Indicates a failure with the token `sender`. Used in transfers.",
							"params": {
								"sender": "Address whose tokens are being transferred."
							}
						}
					],
					"ERC20InvalidSpender(address)": [
						{
							"details": "Indicates a failure with the `spender` to be approved. Used in approvals.",
							"params": {
								"spender": "Address that may be allowed to operate on tokens without being their owner."
							}
						}
					],
					"OwnableInvalidOwner(address)": [
						{
							"details": "The owner is not a valid owner account. (eg. `address(0)`)"
						}
					],
					"OwnableUnauthorizedAccount(address)": [
						{
							"details": "The caller account is not authorized to perform an operation."
						}
					]
				},
				"events": {
					"Approval(address,address,uint256)": {
						"details": "Emitted when the allowance of a `spender` for an `owner` is set by a call to {approve}. `value` is the new allowance."
					},
					"Transfer(address,address,uint256)": {
						"details": "Emitted when `value` tokens are moved from one account (`from`) to another (`to`). Note that `value` may be zero."
					}
				},
				"kind": "dev",
				"methods": {
					"allowance(address,address)": {
						"details": "See {IERC20-allowance}."
					},
					"approve(address,uint256)": {
						"details": "See {IERC20-approve}. NOTE: If `value` is the maximum `uint256`, the allowance is not updated on `transferFrom`. This is semantically equivalent to an infinite approval. Requirements: - `spender` cannot be the zero address."
					},
					"balanceOf(address)": {
						"details": "See {IERC20-balanceOf}."
					},
					"burn(uint256)": {
						"details": "Destroys a `value` amount of tokens from the caller. See {ERC20-_burn}."
					},
					"burnFrom(address,uint256)": {
						"details": "Destroys a `value` amount of tokens from `account`, deducting from the caller's allowance. See {ERC20-_burn} and {ERC20-allowance}. Requirements: - the caller must have allowance for ``accounts``'s tokens of at least `value`."
					},
					"decimals()": {
						"details": "Returns the number of decimals used to get its user representation. For example, if `decimals` equals `2`, a balance of `505` tokens should be displayed to a user as `5.05` (`505 / 10 ** 2`). Tokens usually opt for a value of 18, imitating the relationship between Ether and Wei. This is the default value returned by this function, unless it's overridden. NOTE: This information is only used for _display_ purposes: it in no way affects any of the arithmetic of the contract, including {IERC20-balanceOf} and {IERC20-transfer}."
					},
					"name()": {
						"details": "Returns the name of the token."
					},
					"owner()": {
						"details": "Returns the address of the current owner."
					},
					"renounceOwnership()": {
						"details": "Leaves the contract without owner. It will not be possible to call `onlyOwner` functions. Can only be called by the current owner. NOTE: Renouncing ownership will leave the contract without an owner, thereby disabling any functionality that is only available to the owner."
					},
					"symbol()": {
						"details": "Returns the symbol of the token, usually a shorter version of the name."
					},
					"totalSupply()": {
						"details": "See {IERC20-totalSupply}."
					},
					"transfer(address,uint256)": {
						"details": "See {IERC20-transfer}. Requirements: - `to` cannot be the zero address. - the caller must have a balance of at least `value`."
					},
					"transferFrom(address,address,uint256)": {
						"details": "See {IERC20-transferFrom}. Emits an {Approval} event indicating the updated allowance. This is not required by the EIP. See the note at the beginning of {ERC20}. NOTE: Does not update the allowance if the current allowance is the maximum `uint256`. Requirements: - `from` and `to` cannot be the zero address. - `from` must have a balance of at least `value`. - the caller must have allowance for ``from``'s tokens of at least `value`."
					},
					"transferOwnership(address)": {
						"details": "Transfers ownership of the contract to a new account (`newOwner`). Can only be called by the current owner."
					}
				},
				"version": 1
			},
			"evm": {
				"assembly": "    /* \"contracts/Erc1.sol\":243:1523  contract MyFirstToken is ERC20, ERC20Burnable, Ownable {... */\n  mstore(0x40, 0x80)\n    /* \"contracts/Erc1.sol\":485:730  constructor(address initialOwner, uint amount, address _taxCollector)... */\n  callvalue\n  dup1\n  iszero\n  tag_1\n  jumpi\n  0x00\n  dup1\n  revert\ntag_1:\n  pop\n  mload(0x40)\n  sub(codesize, bytecodeSize)\n  dup1\n  bytecodeSize\n  dup4\n  codecopy\n  dup2\n  add\n  0x40\n  dup2\n  swap1\n  mstore\n  tag_2\n  swap2\n  tag_3\n  jump\t// in\ntag_2:\n    /* \"contracts/Erc1.sol\":609:621  initialOwner */\n  dup3\n    /* \"@openzeppelin/contracts/token/ERC20/ERC20.sol\":1896:2009  constructor(string memory name_, string memory symbol_) {... */\n  mload(0x40)\n  dup1\n  0x40\n  add\n  0x40\n  mstore\n  dup1\n  0x0c\n  dup2\n  mstore\n  0x20\n  add\n  shl(0xa1, 0x26bca334b939ba2a37b5b2b7)\n  dup2\n  mstore\n  pop\n  mload(0x40)\n  dup1\n  0x40\n  add\n  0x40\n  mstore\n  dup1\n  0x04\n  dup2\n  mstore\n  0x20\n  add\n  shl(0xe0, 0x4d4e544b)\n  dup2\n  mstore\n  pop\n    /* \"@openzeppelin/contracts/token/ERC20/ERC20.sol\":1970:1975  name_ */\n  dup2\n    /* \"@openzeppelin/contracts/token/ERC20/ERC20.sol\":1962:1967  _name */\n  0x03\n    /* \"@openzeppelin/contracts/token/ERC20/ERC20.sol\":1962:1975  _name = name_ */\n  swap1\n  dup2\n  tag_8\n  swap2\n  swap1\n  tag_9\n  jump\t// in\ntag_8:\n  pop\n    /* \"@openzeppelin/contracts/token/ERC20/ERC20.sol\":1985:1992  _symbol */\n  0x04\n    /* \"@openzeppelin/contracts/token/ERC20/ERC20.sol\":1985:2002  _symbol = symbol_ */\n  tag_10\n    /* \"@openzeppelin/contracts/token/ERC20/ERC20.sol\":1995:2002  symbol_ */\n  dup3\n    /* \"@openzeppelin/contracts/token/ERC20/ERC20.sol\":1985:1992  _symbol */\n  dup3\n    /* \"@openzeppelin/contracts/token/ERC20/ERC20.sol\":1985:2002  _symbol = symbol_ */\n  tag_9\n  jump\t// in\ntag_10:\n  pop\n  pop\n  pop\n  sub(shl(0xa0, 0x01), 0x01)\n    /* \"@openzeppelin/contracts/access/Ownable.sol\":1273:1299  initialOwner == address(0) */\n  dup2\n  and\n    /* \"@openzeppelin/contracts/access/Ownable.sol\":1269:1364  if (initialOwner == address(0)) {... */\n  tag_12\n  jumpi\n    /* \"@openzeppelin/contracts/access/Ownable.sol\":1322:1353  OwnableInvalidOwner(address(0)) */\n  mload(0x40)\n  shl(0xe0, 0x1e4fbdf7)\n  dup2\n  mstore\n    /* \"@openzeppelin/contracts/access/Ownable.sol\":1350:1351  0 */\n  0x00\n    /* \"@openzeppelin/contracts/access/Ownable.sol\":1322:1353  OwnableInvalidOwner(address(0)) */\n  0x04\n  dup3\n  add\n    /* \"#utility.yul\":3388:3439   */\n  mstore\n    /* \"#utility.yul\":3361:3379   */\n  0x24\n  add\n    /* \"@openzeppelin/contracts/access/Ownable.sol\":1322:1353  OwnableInvalidOwner(address(0)) */\ntag_13:\n  mload(0x40)\n  dup1\n  swap2\n  sub\n  swap1\n  revert\n    /* \"@openzeppelin/contracts/access/Ownable.sol\":1269:1364  if (initialOwner == address(0)) {... */\ntag_12:\n    /* \"@openzeppelin/contracts/access/Ownable.sol\":1373:1405  _transferOwnership(initialOwner) */\n  tag_15\n    /* \"@openzeppelin/contracts/access/Ownable.sol\":1392:1404  initialOwner */\n  dup2\n    /* \"@openzeppelin/contracts/access/Ownable.sol\":1373:1391  _transferOwnership */\n  tag_16\n    /* \"@openzeppelin/contracts/access/Ownable.sol\":1373:1405  _transferOwnership(initialOwner) */\n  jump\t// in\ntag_15:\n  pop\n    /* \"contracts/Erc1.sol\":637:649  taxCollector */\n  0x06\n    /* \"contracts/Erc1.sol\":637:665  taxCollector = _taxCollector */\n  dup1\n  sload\n  not(sub(shl(0xa0, 0x01), 0x01))\n  and\n  sub(shl(0xa0, 0x01), 0x01)\n  dup4\n  and\n  or\n  swap1\n  sstore\n    /* \"contracts/Erc1.sol\":675:723  _mint(initialOwner,amount * (10 **(decimals()))) */\n  tag_18\n    /* \"contracts/Erc1.sol\":681:693  initialOwner */\n  dup4\n    /* \"contracts/Erc1.sol\":710:720  decimals() */\n  tag_19\n    /* \"contracts/Erc1.sol\":1003:1004  9 */\n  0x09\n  swap1\n    /* \"contracts/Erc1.sol\":924:1011  function decimals()public view virtual override returns(uint8){... */\n  jump\n    /* \"contracts/Erc1.sol\":710:720  decimals() */\ntag_19:\n    /* \"contracts/Erc1.sol\":704:721  10 **(decimals()) */\n  tag_21\n  swap1\n    /* \"contracts/Erc1.sol\":704:706  10 */\n  0x0a\n    /* \"contracts/Erc1.sol\":704:721  10 **(decimals()) */\n  tag_22\n  jump\t// in\ntag_21:\n    /* \"contracts/Erc1.sol\":694:722  amount * (10 **(decimals())) */\n  tag_23\n  swap1\n    /* \"contracts/Erc1.sol\":694:700  amount */\n  dup6\n    /* \"contracts/Erc1.sol\":694:722  amount * (10 **(decimals())) */\n  tag_24\n  jump\t// in\ntag_23:\n    /* \"contracts/Erc1.sol\":675:680  _mint */\n  tag_25\n    /* \"contracts/Erc1.sol\":675:723  _mint(initialOwner,amount * (10 **(decimals()))) */\n  jump\t// in\ntag_18:\n    /* \"contracts/Erc1.sol\":485:730  constructor(address initialOwner, uint amount, address _taxCollector)... */\n  pop\n  pop\n  pop\n    /* \"contracts/Erc1.sol\":243:1523  contract MyFirstToken is ERC20, ERC20Burnable, Ownable {... */\n  jump(tag_55)\n    /* \"@openzeppelin/contracts/access/Ownable.sol\":2912:3099  function _transferOwnership(address newOwner) internal virtual {... */\ntag_16:\n    /* \"@openzeppelin/contracts/access/Ownable.sol\":3004:3010  _owner */\n  0x05\n  dup1\n  sload\n  sub(shl(0xa0, 0x01), 0x01)\n    /* \"@openzeppelin/contracts/access/Ownable.sol\":3020:3037  _owner = newOwner */\n  dup4\n  dup2\n  and\n  not(sub(shl(0xa0, 0x01), 0x01))\n  dup4\n  and\n  dup2\n  or\n  swap1\n  swap4\n  sstore\n    /* \"@openzeppelin/contracts/access/Ownable.sol\":3052:3092  OwnershipTransferred(oldOwner, newOwner) */\n  mload(0x40)\n    /* \"@openzeppelin/contracts/access/Ownable.sol\":3004:3010  _owner */\n  swap2\n  and\n  swap2\n    /* \"@openzeppelin/contracts/access/Ownable.sol\":3020:3037  _owner = newOwner */\n  swap1\n    /* \"@openzeppelin/contracts/access/Ownable.sol\":3004:3010  _owner */\n  dup3\n  swap1\n    /* \"@openzeppelin/contracts/access/Ownable.sol\":3052:3092  OwnershipTransferred(oldOwner, newOwner) */\n  0x8be0079c531659141344cd1fd0a4f28419497f9722a3daafe3b4186f6b6457e0\n  swap1\n    /* \"@openzeppelin/contracts/access/Ownable.sol\":2985:3001  address oldOwner */\n  0x00\n  swap1\n    /* \"@openzeppelin/contracts/access/Ownable.sol\":3052:3092  OwnershipTransferred(oldOwner, newOwner) */\n  log3\n    /* \"@openzeppelin/contracts/access/Ownable.sol\":2975:3099  {... */\n  pop\n    /* \"@openzeppelin/contracts/access/Ownable.sol\":2912:3099  function _transferOwnership(address newOwner) internal virtual {... */\n  pop\n  jump\t// out\n    /* \"@openzeppelin/contracts/token/ERC20/ERC20.sol\":7721:7929  function _mint(address account, uint256 value) internal {... */\ntag_25:\n  sub(shl(0xa0, 0x01), 0x01)\n    /* \"@openzeppelin/contracts/token/ERC20/ERC20.sol\":7791:7812  account == address(0) */\n  dup3\n  and\n    /* \"@openzeppelin/contracts/token/ERC20/ERC20.sol\":7787:7878  if (account == address(0)) {... */\n  tag_30\n  jumpi\n    /* \"@openzeppelin/contracts/token/ERC20/ERC20.sol\":7835:7867  ERC20InvalidReceiver(address(0)) */\n  mload(0x40)\n  shl(0xe0, 0xec442f05)\n  dup2\n  mstore\n    /* \"@openzeppelin/contracts/token/ERC20/ERC20.sol\":7864:7865  0 */\n  0x00\n    /* \"@openzeppelin/contracts/token/ERC20/ERC20.sol\":7835:7867  ERC20InvalidReceiver(address(0)) */\n  0x04\n  dup3\n  add\n    /* \"#utility.yul\":3388:3439   */\n  mstore\n    /* \"#utility.yul\":3361:3379   */\n  0x24\n  add\n    /* \"@openzeppelin/contracts/token/ERC20/ERC20.sol\":7835:7867  ERC20InvalidReceiver(address(0)) */\n  tag_13\n    /* \"#utility.yul\":3242:3445   */\n  jump\n    /* \"@openzeppelin/contracts/token/ERC20/ERC20.sol\":7787:7878  if (account == address(0)) {... */\ntag_30:\n    /* \"@openzeppelin/contracts/token/ERC20/ERC20.sol\":7887:7922  _update(address(0), account, value) */\n  tag_32\n    /* \"@openzeppelin/contracts/token/ERC20/ERC20.sol\":7903:7904  0 */\n  0x00\n    /* \"@openzeppelin/contracts/token/ERC20/ERC20.sol\":7907:7914  account */\n  dup4\n    /* \"@openzeppelin/contracts/token/ERC20/ERC20.sol\":7916:7921  value */\n  dup4\n    /* \"@openzeppelin/contracts/token/ERC20/ERC20.sol\":7887:7894  _update */\n  tag_33\n    /* \"@openzeppelin/contracts/token/ERC20/ERC20.sol\":7887:7922  _update(address(0), account, value) */\n  jump\t// in\ntag_32:\n    /* \"@openzeppelin/contracts/token/ERC20/ERC20.sol\":7721:7929  function _mint(address account, uint256 value) internal {... */\n  pop\n  pop\n  jump\t// out\n    /* \"@openzeppelin/contracts/token/ERC20/ERC20.sol\":6271:7378  function _update(address from, address to, uint256 value) internal virtual {... */\ntag_33:\n  sub(shl(0xa0, 0x01), 0x01)\n    /* \"@openzeppelin/contracts/token/ERC20/ERC20.sol\":6360:6378  from == address(0) */\n  dup4\n  and\n    /* \"@openzeppelin/contracts/token/ERC20/ERC20.sol\":6356:6896  if (from == address(0)) {... */\n  tag_35\n  jumpi\n    /* \"@openzeppelin/contracts/token/ERC20/ERC20.sol\":6512:6517  value */\n  dup1\n    /* \"@openzeppelin/contracts/token/ERC20/ERC20.sol\":6496:6508  _totalSupply */\n  0x02\n  0x00\n    /* \"@openzeppelin/contracts/token/ERC20/ERC20.sol\":6496:6517  _totalSupply += value */\n  dup3\n  dup3\n  sload\n  tag_36\n  swap2\n  swap1\n  tag_37\n  jump\t// in\ntag_36:\n  swap1\n  swap2\n  sstore\n  pop\n    /* \"@openzeppelin/contracts/token/ERC20/ERC20.sol\":6356:6896  if (from == address(0)) {... */\n  tag_38\n  swap1\n  pop\n  jump\ntag_35:\n  sub(shl(0xa0, 0x01), 0x01)\n    /* \"@openzeppelin/contracts/token/ERC20/ERC20.sol\":6570:6585  _balances[from] */\n  dup4\n  and\n    /* \"@openzeppelin/contracts/token/ERC20/ERC20.sol\":6548:6567  uint256 fromBalance */\n  0x00\n    /* \"@openzeppelin/contracts/token/ERC20/ERC20.sol\":6570:6585  _balances[from] */\n  swap1\n  dup2\n  mstore\n  0x20\n  dup2\n  swap1\n  mstore\n  0x40\n  swap1\n  keccak256\n  sload\n    /* \"@openzeppelin/contracts/token/ERC20/ERC20.sol\":6603:6622  fromBalance < value */\n  dup2\n  dup2\n  lt\n    /* \"@openzeppelin/contracts/token/ERC20/ERC20.sol\":6599:6714  if (fromBalance < value) {... */\n  iszero\n  tag_39\n  jumpi\n    /* \"@openzeppelin/contracts/token/ERC20/ERC20.sol\":6649:6699  ERC20InsufficientBalance(from, fromBalance, value) */\n  mload(0x40)\n  shl(0xe2, 0x391434e3)\n  dup2\n  mstore\n  sub(shl(0xa0, 0x01), 0x01)\n    /* \"#utility.yul\":5482:5514   */\n  dup6\n  and\n    /* \"@openzeppelin/contracts/token/ERC20/ERC20.sol\":6649:6699  ERC20InsufficientBalance(from, fromBalance, value) */\n  0x04\n  dup3\n  add\n    /* \"#utility.yul\":5464:5515   */\n  mstore\n    /* \"#utility.yul\":5531:5549   */\n  0x24\n  dup2\n  add\n    /* \"#utility.yul\":5524:5558   */\n  dup3\n  swap1\n  mstore\n    /* \"#utility.yul\":5574:5592   */\n  0x44\n  dup2\n  add\n    /* \"#utility.yul\":5567:5601   */\n  dup4\n  swap1\n  mstore\n    /* \"#utility.yul\":5437:5455   */\n  0x64\n  add\n    /* \"@openzeppelin/contracts/token/ERC20/ERC20.sol\":6649:6699  ERC20InsufficientBalance(from, fromBalance, value) */\n  tag_13\n    /* \"#utility.yul\":5262:5607   */\n  jump\n    /* \"@openzeppelin/contracts/token/ERC20/ERC20.sol\":6599:6714  if (fromBalance < value) {... */\ntag_39:\n  sub(shl(0xa0, 0x01), 0x01)\n    /* \"@openzeppelin/contracts/token/ERC20/ERC20.sol\":6834:6849  _balances[from] */\n  dup5\n  and\n    /* \"@openzeppelin/contracts/token/ERC20/ERC20.sol\":6834:6843  _balances */\n  0x00\n    /* \"@openzeppelin/contracts/token/ERC20/ERC20.sol\":6834:6849  _balances[from] */\n  swap1\n  dup2\n  mstore\n  0x20\n  dup2\n  swap1\n  mstore\n  0x40\n  swap1\n  keccak256\n    /* \"@openzeppelin/contracts/token/ERC20/ERC20.sol\":6852:6871  fromBalance - value */\n  swap1\n  dup3\n  swap1\n  sub\n    /* \"@openzeppelin/contracts/token/ERC20/ERC20.sol\":6834:6871  _balances[from] = fromBalance - value */\n  swap1\n  sstore\n    /* \"@openzeppelin/contracts/token/ERC20/ERC20.sol\":6356:6896  if (from == address(0)) {... */\ntag_38:\n  sub(shl(0xa0, 0x01), 0x01)\n    /* \"@openzeppelin/contracts/token/ERC20/ERC20.sol\":6910:6926  to == address(0) */\n  dup3\n  and\n    /* \"@openzeppelin/contracts/token/ERC20/ERC20.sol\":6906:7331  if (to == address(0)) {... */\n  tag_42\n  jumpi\n    /* \"@openzeppelin/contracts/token/ERC20/ERC20.sol\":7073:7085  _totalSupply */\n  0x02\n    /* \"@openzeppelin/contracts/token/ERC20/ERC20.sol\":7073:7094  _totalSupply -= value */\n  dup1\n  sload\n  dup3\n  swap1\n  sub\n  swap1\n  sstore\n    /* \"@openzeppelin/contracts/token/ERC20/ERC20.sol\":6906:7331  if (to == address(0)) {... */\n  jump(tag_43)\ntag_42:\n  sub(shl(0xa0, 0x01), 0x01)\n    /* \"@openzeppelin/contracts/token/ERC20/ERC20.sol\":7284:7297  _balances[to] */\n  dup3\n  and\n    /* \"@openzeppelin/contracts/token/ERC20/ERC20.sol\":7284:7293  _balances */\n  0x00\n    /* \"@openzeppelin/contracts/token/ERC20/ERC20.sol\":7284:7297  _balances[to] */\n  swap1\n  dup2\n  mstore\n  0x20\n  dup2\n  swap1\n  mstore\n  0x40\n  swap1\n  keccak256\n    /* \"@openzeppelin/contracts/token/ERC20/ERC20.sol\":7284:7306  _balances[to] += value */\n  dup1\n  sload\n  dup3\n  add\n  swap1\n  sstore\n    /* \"@openzeppelin/contracts/token/ERC20/ERC20.sol\":6906:7331  if (to == address(0)) {... */\ntag_43:\n    /* \"@openzeppelin/contracts/token/ERC20/ERC20.sol\":7361:7363  to */\n  dup2\n  sub(shl(0xa0, 0x01), 0x01)\n    /* \"@openzeppelin/contracts/token/ERC20/ERC20.sol\":7346:7371  Transfer(from, to, value) */\n  and\n    /* \"@openzeppelin/contracts/token/ERC20/ERC20.sol\":7355:7359  from */\n  dup4\n  sub(shl(0xa0, 0x01), 0x01)\n    /* \"@openzeppelin/contracts/token/ERC20/ERC20.sol\":7346:7371  Transfer(from, to, value) */\n  and\n  0xddf252ad1be2c89b69c2b068fc378daa952ba7f163c4a11628f55a4df523b3ef\n    /* \"@openzeppelin/contracts/token/ERC20/ERC20.sol\":7365:7370  value */\n  dup4\n    /* \"@openzeppelin/contracts/token/ERC20/ERC20.sol\":7346:7371  Transfer(from, to, value) */\n  mload(0x40)\n  tag_44\n  swap2\n    /* \"#utility.yul\":5758:5783   */\n  dup2\n  mstore\n    /* \"#utility.yul\":5746:5748   */\n  0x20\n    /* \"#utility.yul\":5731:5749   */\n  add\n  swap1\n    /* \"#utility.yul\":5612:5789   */\n  jump\n    /* \"@openzeppelin/contracts/token/ERC20/ERC20.sol\":7346:7371  Transfer(from, to, value) */\ntag_44:\n  mload(0x40)\n  dup1\n  swap2\n  sub\n  swap1\n  log3\n    /* \"@openzeppelin/contracts/token/ERC20/ERC20.sol\":6271:7378  function _update(address from, address to, uint256 value) internal virtual {... */\n  pop\n  pop\n  pop\n  jump\t// out\n    /* \"#utility.yul\":14:191   */\ntag_46:\n    /* \"#utility.yul\":93:106   */\n  dup1\n  mload\n  sub(shl(0xa0, 0x01), 0x01)\n    /* \"#utility.yul\":135:166   */\n  dup2\n  and\n    /* \"#utility.yul\":125:167   */\n  dup2\n  eq\n    /* \"#utility.yul\":115:185   */\n  tag_57\n  jumpi\n    /* \"#utility.yul\":181:182   */\n  0x00\n    /* \"#utility.yul\":178:179   */\n  dup1\n    /* \"#utility.yul\":171:183   */\n  revert\n    /* \"#utility.yul\":115:185   */\ntag_57:\n    /* \"#utility.yul\":14:191   */\n  swap2\n  swap1\n  pop\n  jump\t// out\n    /* \"#utility.yul\":196:550   */\ntag_3:\n    /* \"#utility.yul\":284:290   */\n  0x00\n    /* \"#utility.yul\":292:298   */\n  dup1\n    /* \"#utility.yul\":300:306   */\n  0x00\n    /* \"#utility.yul\":353:355   */\n  0x60\n    /* \"#utility.yul\":341:350   */\n  dup5\n    /* \"#utility.yul\":332:339   */\n  dup7\n    /* \"#utility.yul\":328:351   */\n  sub\n    /* \"#utility.yul\":324:356   */\n  slt\n    /* \"#utility.yul\":321:373   */\n  iszero\n  tag_59\n  jumpi\n    /* \"#utility.yul\":369:370   */\n  0x00\n    /* \"#utility.yul\":366:367   */\n  dup1\n    /* \"#utility.yul\":359:371   */\n  revert\n    /* \"#utility.yul\":321:373   */\ntag_59:\n    /* \"#utility.yul\":392:432   */\n  tag_60\n    /* \"#utility.yul\":422:431   */\n  dup5\n    /* \"#utility.yul\":392:432   */\n  tag_46\n  jump\t// in\ntag_60:\n    /* \"#utility.yul\":382:432   */\n  swap3\n  pop\n    /* \"#utility.yul\":472:474   */\n  0x20\n    /* \"#utility.yul\":461:470   */\n  dup5\n    /* \"#utility.yul\":457:475   */\n  add\n    /* \"#utility.yul\":451:476   */\n  mload\n    /* \"#utility.yul\":441:476   */\n  swap2\n  pop\n    /* \"#utility.yul\":495:544   */\n  tag_61\n    /* \"#utility.yul\":540:542   */\n  0x40\n    /* \"#utility.yul\":529:538   */\n  dup6\n    /* \"#utility.yul\":525:543   */\n  add\n    /* \"#utility.yul\":495:544   */\n  tag_46\n  jump\t// in\ntag_61:\n    /* \"#utility.yul\":485:544   */\n  swap1\n  pop\n    /* \"#utility.yul\":196:550   */\n  swap3\n  pop\n  swap3\n  pop\n  swap3\n  jump\t// out\n    /* \"#utility.yul\":555:682   */\ntag_47:\n    /* \"#utility.yul\":616:626   */\n  0x4e487b71\n    /* \"#utility.yul\":611:614   */\n  0xe0\n    /* \"#utility.yul\":607:627   */\n  shl\n    /* \"#utility.yul\":604:605   */\n  0x00\n    /* \"#utility.yul\":597:628   */\n  mstore\n    /* \"#utility.yul\":647:651   */\n  0x41\n    /* \"#utility.yul\":644:645   */\n  0x04\n    /* \"#utility.yul\":637:652   */\n  mstore\n    /* \"#utility.yul\":671:675   */\n  0x24\n    /* \"#utility.yul\":668:669   */\n  0x00\n    /* \"#utility.yul\":661:676   */\n  revert\n    /* \"#utility.yul\":687:1067   */\ntag_48:\n    /* \"#utility.yul\":766:767   */\n  0x01\n    /* \"#utility.yul\":762:774   */\n  dup2\n  dup2\n  shr\n  swap1\n    /* \"#utility.yul\":809:821   */\n  dup3\n  and\n  dup1\n    /* \"#utility.yul\":830:891   */\n  tag_64\n  jumpi\n    /* \"#utility.yul\":884:888   */\n  0x7f\n    /* \"#utility.yul\":876:882   */\n  dup3\n    /* \"#utility.yul\":872:889   */\n  and\n    /* \"#utility.yul\":862:889   */\n  swap2\n  pop\n    /* \"#utility.yul\":830:891   */\ntag_64:\n    /* \"#utility.yul\":937:939   */\n  0x20\n    /* \"#utility.yul\":929:935   */\n  dup3\n    /* \"#utility.yul\":926:940   */\n  lt\n    /* \"#utility.yul\":906:924   */\n  dup2\n    /* \"#utility.yul\":903:941   */\n  sub\n    /* \"#utility.yul\":900:1061   */\n  tag_65\n  jumpi\n    /* \"#utility.yul\":983:993   */\n  0x4e487b71\n    /* \"#utility.yul\":978:981   */\n  0xe0\n    /* \"#utility.yul\":974:994   */\n  shl\n    /* \"#utility.yul\":971:972   */\n  0x00\n    /* \"#utility.yul\":964:995   */\n  mstore\n    /* \"#utility.yul\":1018:1022   */\n  0x22\n    /* \"#utility.yul\":1015:1016   */\n  0x04\n    /* \"#utility.yul\":1008:1023   */\n  mstore\n    /* \"#utility.yul\":1046:1050   */\n  0x24\n    /* \"#utility.yul\":1043:1044   */\n  0x00\n    /* \"#utility.yul\":1036:1051   */\n  revert\n    /* \"#utility.yul\":900:1061   */\ntag_65:\n  pop\n    /* \"#utility.yul\":687:1067   */\n  swap2\n  swap1\n  pop\n  jump\t// out\n    /* \"#utility.yul\":1198:1716   */\ntag_50:\n    /* \"#utility.yul\":1300:1302   */\n  0x1f\n    /* \"#utility.yul\":1295:1298   */\n  dup3\n    /* \"#utility.yul\":1292:1303   */\n  gt\n    /* \"#utility.yul\":1289:1710   */\n  iszero\n  tag_68\n  jumpi\n    /* \"#utility.yul\":1336:1341   */\n  dup1\n    /* \"#utility.yul\":1333:1334   */\n  0x00\n    /* \"#utility.yul\":1326:1342   */\n  mstore\n    /* \"#utility.yul\":1380:1384   */\n  0x20\n    /* \"#utility.yul\":1377:1378   */\n  0x00\n    /* \"#utility.yul\":1367:1385   */\n  keccak256\n    /* \"#utility.yul\":1450:1452   */\n  0x1f\n    /* \"#utility.yul\":1438:1448   */\n  dup5\n    /* \"#utility.yul\":1434:1453   */\n  add\n    /* \"#utility.yul\":1431:1432   */\n  0x05\n    /* \"#utility.yul\":1427:1454   */\n  shr\n    /* \"#utility.yul\":1421:1425   */\n  dup2\n    /* \"#utility.yul\":1417:1455   */\n  add\n    /* \"#utility.yul\":1486:1490   */\n  0x20\n    /* \"#utility.yul\":1474:1484   */\n  dup6\n    /* \"#utility.yul\":1471:1491   */\n  lt\n    /* \"#utility.yul\":1468:1515   */\n  iszero\n  tag_69\n  jumpi\n  pop\n    /* \"#utility.yul\":1509:1513   */\n  dup1\n    /* \"#utility.yul\":1468:1515   */\ntag_69:\n    /* \"#utility.yul\":1564:1566   */\n  0x1f\n    /* \"#utility.yul\":1559:1562   */\n  dup5\n    /* \"#utility.yul\":1555:1567   */\n  add\n    /* \"#utility.yul\":1552:1553   */\n  0x05\n    /* \"#utility.yul\":1548:1568   */\n  shr\n    /* \"#utility.yul\":1542:1546   */\n  dup3\n    /* \"#utility.yul\":1538:1569   */\n  add\n    /* \"#utility.yul\":1528:1569   */\n  swap2\n  pop\n    /* \"#utility.yul\":1619:1700   */\ntag_70:\n    /* \"#utility.yul\":1637:1639   */\n  dup2\n    /* \"#utility.yul\":1630:1635   */\n  dup2\n    /* \"#utility.yul\":1627:1640   */\n  lt\n    /* \"#utility.yul\":1619:1700   */\n  iszero\n  tag_72\n  jumpi\n    /* \"#utility.yul\":1696:1697   */\n  0x00\n    /* \"#utility.yul\":1682:1698   */\n  dup2\n  sstore\n    /* \"#utility.yul\":1663:1664   */\n  0x01\n    /* \"#utility.yul\":1652:1665   */\n  add\n    /* \"#utility.yul\":1619:1700   */\n  jump(tag_70)\ntag_72:\n    /* \"#utility.yul\":1623:1626   */\n  pop\n  pop\n    /* \"#utility.yul\":1289:1710   */\ntag_68:\n    /* \"#utility.yul\":1198:1716   */\n  pop\n  pop\n  pop\n  jump\t// out\n    /* \"#utility.yul\":1892:3237   */\ntag_9:\n    /* \"#utility.yul\":2012:2022   */\n  dup2\n  mload\n  sub(shl(0x40, 0x01), 0x01)\n    /* \"#utility.yul\":2034:2064   */\n  dup2\n  gt\n    /* \"#utility.yul\":2031:2087   */\n  iszero\n  tag_76\n  jumpi\n    /* \"#utility.yul\":2067:2085   */\n  tag_76\n  tag_47\n  jump\t// in\ntag_76:\n    /* \"#utility.yul\":2096:2193   */\n  tag_77\n    /* \"#utility.yul\":2186:2192   */\n  dup2\n    /* \"#utility.yul\":2146:2184   */\n  tag_78\n    /* \"#utility.yul\":2178:2182   */\n  dup5\n    /* \"#utility.yul\":2172:2183   */\n  sload\n    /* \"#utility.yul\":2146:2184   */\n  tag_48\n  jump\t// in\ntag_78:\n    /* \"#utility.yul\":2140:2144   */\n  dup5\n    /* \"#utility.yul\":2096:2193   */\n  tag_50\n  jump\t// in\ntag_77:\n    /* \"#utility.yul\":2248:2252   */\n  0x20\n  dup1\n    /* \"#utility.yul\":2305:2307   */\n  0x1f\n    /* \"#utility.yul\":2294:2308   */\n  dup4\n  gt\n    /* \"#utility.yul\":2322:2323   */\n  0x01\n    /* \"#utility.yul\":2317:2980   */\n  dup2\n  eq\n  tag_80\n  jumpi\n    /* \"#utility.yul\":3024:3025   */\n  0x00\n    /* \"#utility.yul\":3041:3047   */\n  dup5\n    /* \"#utility.yul\":3038:3127   */\n  iszero\n  tag_81\n  jumpi\n  pop\n    /* \"#utility.yul\":3093:3112   */\n  dup6\n  dup4\n  add\n    /* \"#utility.yul\":3087:3113   */\n  mload\n    /* \"#utility.yul\":3038:3127   */\ntag_81:\n  not(0x00)\n    /* \"#utility.yul\":1849:1850   */\n  0x03\n    /* \"#utility.yul\":1845:1856   */\n  dup7\n  swap1\n  shl\n    /* \"#utility.yul\":1841:1865   */\n  shr\n    /* \"#utility.yul\":1837:1866   */\n  not\n    /* \"#utility.yul\":1827:1867   */\n  and\n    /* \"#utility.yul\":1873:1874   */\n  0x01\n    /* \"#utility.yul\":1869:1880   */\n  dup6\n  swap1\n  shl\n    /* \"#utility.yul\":1824:1881   */\n  or\n    /* \"#utility.yul\":3140:3221   */\n  dup6\n  sstore\n    /* \"#utility.yul\":2287:3231   */\n  jump(tag_79)\n    /* \"#utility.yul\":2317:2980   */\ntag_80:\n    /* \"#utility.yul\":1145:1146   */\n  0x00\n    /* \"#utility.yul\":1138:1152   */\n  dup6\n  dup2\n  mstore\n    /* \"#utility.yul\":1182:1186   */\n  0x20\n    /* \"#utility.yul\":1169:1187   */\n  dup2\n  keccak256\n  not(0x1f)\n    /* \"#utility.yul\":2353:2373   */\n  dup7\n  and\n  swap2\n    /* \"#utility.yul\":2471:2707   */\ntag_84:\n    /* \"#utility.yul\":2485:2492   */\n  dup3\n    /* \"#utility.yul\":2482:2483   */\n  dup2\n    /* \"#utility.yul\":2479:2493   */\n  lt\n    /* \"#utility.yul\":2471:2707   */\n  iszero\n  tag_86\n  jumpi\n    /* \"#utility.yul\":2574:2593   */\n  dup9\n  dup7\n  add\n    /* \"#utility.yul\":2568:2594   */\n  mload\n    /* \"#utility.yul\":2553:2595   */\n  dup3\n  sstore\n    /* \"#utility.yul\":2666:2693   */\n  swap5\n  dup5\n  add\n  swap5\n    /* \"#utility.yul\":2634:2635   */\n  0x01\n    /* \"#utility.yul\":2622:2636   */\n  swap1\n  swap2\n  add\n  swap1\n    /* \"#utility.yul\":2501:2520   */\n  dup5\n  add\n    /* \"#utility.yul\":2471:2707   */\n  jump(tag_84)\ntag_86:\n    /* \"#utility.yul\":2475:2478   */\n  pop\n    /* \"#utility.yul\":2735:2741   */\n  dup6\n    /* \"#utility.yul\":2726:2733   */\n  dup3\n    /* \"#utility.yul\":2723:2742   */\n  lt\n    /* \"#utility.yul\":2720:2921   */\n  iszero\n  tag_87\n  jumpi\n    /* \"#utility.yul\":2796:2815   */\n  dup8\n  dup6\n  add\n    /* \"#utility.yul\":2790:2816   */\n  mload\n  not(0x00)\n    /* \"#utility.yul\":2879:2880   */\n  0x03\n    /* \"#utility.yul\":2875:2889   */\n  dup9\n  swap1\n  shl\n    /* \"#utility.yul\":2891:2894   */\n  0xf8\n    /* \"#utility.yul\":2871:2895   */\n  and\n    /* \"#utility.yul\":2867:2904   */\n  shr\n    /* \"#utility.yul\":2863:2905   */\n  not\n    /* \"#utility.yul\":2848:2906   */\n  and\n    /* \"#utility.yul\":2833:2907   */\n  dup2\n  sstore\n    /* \"#utility.yul\":2720:2921   */\ntag_87:\n  pop\n  pop\n    /* \"#utility.yul\":2967:2968   */\n  0x01\n    /* \"#utility.yul\":2958:2964   */\n  dup5\n    /* \"#utility.yul\":2955:2956   */\n  0x01\n    /* \"#utility.yul\":2951:2965   */\n  shl\n    /* \"#utility.yul\":2947:2969   */\n  add\n    /* \"#utility.yul\":2941:2945   */\n  dup6\n    /* \"#utility.yul\":2934:2970   */\n  sstore\n    /* \"#utility.yul\":2287:3231   */\ntag_79:\n  pop\n  pop\n  pop\n  pop\n    /* \"#utility.yul\":1892:3237   */\n  pop\n  pop\n  jump\t// out\n    /* \"#utility.yul\":3450:3577   */\ntag_52:\n    /* \"#utility.yul\":3511:3521   */\n  0x4e487b71\n    /* \"#utility.yul\":3506:3509   */\n  0xe0\n    /* \"#utility.yul\":3502:3522   */\n  shl\n    /* \"#utility.yul\":3499:3500   */\n  0x00\n    /* \"#utility.yul\":3492:3523   */\n  mstore\n    /* \"#utility.yul\":3542:3546   */\n  0x11\n    /* \"#utility.yul\":3539:3540   */\n  0x04\n    /* \"#utility.yul\":3532:3547   */\n  mstore\n    /* \"#utility.yul\":3566:3570   */\n  0x24\n    /* \"#utility.yul\":3563:3564   */\n  0x00\n    /* \"#utility.yul\":3556:3571   */\n  revert\n    /* \"#utility.yul\":3582:3998   */\ntag_53:\n    /* \"#utility.yul\":3671:3672   */\n  0x01\n    /* \"#utility.yul\":3708:3713   */\n  dup2\n    /* \"#utility.yul\":3671:3672   */\n  dup2\n    /* \"#utility.yul\":3722:3992   */\ntag_91:\n    /* \"#utility.yul\":3743:3750   */\n  dup1\n    /* \"#utility.yul\":3733:3741   */\n  dup6\n    /* \"#utility.yul\":3730:3751   */\n  gt\n    /* \"#utility.yul\":3722:3992   */\n  iszero\n  tag_93\n  jumpi\n    /* \"#utility.yul\":3802:3806   */\n  dup2\n    /* \"#utility.yul\":3798:3799   */\n  0x00\n    /* \"#utility.yul\":3794:3800   */\n  not\n    /* \"#utility.yul\":3790:3807   */\n  div\n    /* \"#utility.yul\":3784:3788   */\n  dup3\n    /* \"#utility.yul\":3781:3808   */\n  gt\n    /* \"#utility.yul\":3778:3831   */\n  iszero\n  tag_95\n  jumpi\n    /* \"#utility.yul\":3811:3829   */\n  tag_95\n  tag_52\n  jump\t// in\ntag_95:\n    /* \"#utility.yul\":3861:3868   */\n  dup1\n    /* \"#utility.yul\":3851:3859   */\n  dup6\n    /* \"#utility.yul\":3847:3869   */\n  and\n    /* \"#utility.yul\":3844:3899   */\n  iszero\n  tag_96\n  jumpi\n    /* \"#utility.yul\":3881:3897   */\n  swap2\n  dup2\n  mul\n  swap2\n    /* \"#utility.yul\":3844:3899   */\ntag_96:\n    /* \"#utility.yul\":3960:3982   */\n  swap4\n  dup5\n  shr\n  swap4\n    /* \"#utility.yul\":3920:3935   */\n  swap1\n  dup1\n  mul\n  swap1\n    /* \"#utility.yul\":3722:3992   */\n  jump(tag_91)\ntag_93:\n    /* \"#utility.yul\":3726:3729   */\n  pop\n    /* \"#utility.yul\":3582:3998   */\n  swap3\n  pop\n  swap3\n  swap1\n  pop\n  jump\t// out\n    /* \"#utility.yul\":4003:4809   */\ntag_54:\n    /* \"#utility.yul\":4052:4057   */\n  0x00\n    /* \"#utility.yul\":4082:4090   */\n  dup3\n    /* \"#utility.yul\":4072:4152   */\n  tag_98\n  jumpi\n  pop\n    /* \"#utility.yul\":4123:4124   */\n  0x01\n    /* \"#utility.yul\":4137:4142   */\n  jump(tag_97)\n    /* \"#utility.yul\":4072:4152   */\ntag_98:\n    /* \"#utility.yul\":4171:4175   */\n  dup2\n    /* \"#utility.yul\":4161:4237   */\n  tag_99\n  jumpi\n  pop\n    /* \"#utility.yul\":4208:4209   */\n  0x00\n    /* \"#utility.yul\":4222:4227   */\n  jump(tag_97)\n    /* \"#utility.yul\":4161:4237   */\ntag_99:\n    /* \"#utility.yul\":4253:4257   */\n  dup2\n    /* \"#utility.yul\":4271:4272   */\n  0x01\n    /* \"#utility.yul\":4266:4325   */\n  dup2\n  eq\n  tag_101\n  jumpi\n    /* \"#utility.yul\":4339:4340   */\n  0x02\n    /* \"#utility.yul\":4334:4464   */\n  dup2\n  eq\n  tag_102\n  jumpi\n    /* \"#utility.yul\":4246:4464   */\n  jump(tag_100)\n    /* \"#utility.yul\":4266:4325   */\ntag_101:\n    /* \"#utility.yul\":4296:4297   */\n  0x01\n    /* \"#utility.yul\":4287:4297   */\n  swap2\n  pop\n    /* \"#utility.yul\":4310:4315   */\n  pop\n  jump(tag_97)\n    /* \"#utility.yul\":4334:4464   */\ntag_102:\n    /* \"#utility.yul\":4371:4374   */\n  0xff\n    /* \"#utility.yul\":4361:4369   */\n  dup5\n    /* \"#utility.yul\":4358:4375   */\n  gt\n    /* \"#utility.yul\":4355:4398   */\n  iszero\n  tag_104\n  jumpi\n    /* \"#utility.yul\":4378:4396   */\n  tag_104\n  tag_52\n  jump\t// in\ntag_104:\n  pop\n  pop\n    /* \"#utility.yul\":4434:4435   */\n  0x01\n    /* \"#utility.yul\":4420:4436   */\n  dup3\n  shl\n    /* \"#utility.yul\":4449:4454   */\n  jump(tag_97)\n    /* \"#utility.yul\":4246:4464   */\ntag_100:\n  pop\n    /* \"#utility.yul\":4548:4550   */\n  0x20\n    /* \"#utility.yul\":4538:4546   */\n  dup4\n    /* \"#utility.yul\":4535:4551   */\n  lt\n    /* \"#utility.yul\":4529:4532   */\n  0x0133\n    /* \"#utility.yul\":4523:4527   */\n  dup4\n    /* \"#utility.yul\":4520:4533   */\n  lt\n    /* \"#utility.yul\":4516:4552   */\n  and\n    /* \"#utility.yul\":4510:4512   */\n  0x4e\n    /* \"#utility.yul\":4500:4508   */\n  dup5\n    /* \"#utility.yul\":4497:4513   */\n  lt\n    /* \"#utility.yul\":4492:4494   */\n  0x0b\n    /* \"#utility.yul\":4486:4490   */\n  dup5\n    /* \"#utility.yul\":4483:4495   */\n  lt\n    /* \"#utility.yul\":4479:4514   */\n  and\n    /* \"#utility.yul\":4476:4553   */\n  or\n    /* \"#utility.yul\":4473:4632   */\n  iszero\n  tag_105\n  jumpi\n  pop\n    /* \"#utility.yul\":4585:4604   */\n  dup2\n  dup2\n  exp\n    /* \"#utility.yul\":4617:4622   */\n  jump(tag_97)\n    /* \"#utility.yul\":4473:4632   */\ntag_105:\n    /* \"#utility.yul\":4664:4698   */\n  tag_106\n    /* \"#utility.yul\":4689:4697   */\n  dup4\n    /* \"#utility.yul\":4683:4687   */\n  dup4\n    /* \"#utility.yul\":4664:4698   */\n  tag_53\n  jump\t// in\ntag_106:\n    /* \"#utility.yul\":4734:4740   */\n  dup1\n    /* \"#utility.yul\":4730:4731   */\n  0x00\n    /* \"#utility.yul\":4726:4732   */\n  not\n    /* \"#utility.yul\":4722:4741   */\n  div\n    /* \"#utility.yul\":4713:4720   */\n  dup3\n    /* \"#utility.yul\":4710:4742   */\n  gt\n    /* \"#utility.yul\":4707:4765   */\n  iszero\n  tag_108\n  jumpi\n    /* \"#utility.yul\":4745:4763   */\n  tag_108\n  tag_52\n  jump\t// in\ntag_108:\n    /* \"#utility.yul\":4783:4803   */\n  mul\n  swap1\n  pop\n    /* \"#utility.yul\":4003:4809   */\ntag_97:\n  swap3\n  swap2\n  pop\n  pop\n  jump\t// out\n    /* \"#utility.yul\":4814:4954   */\ntag_22:\n    /* \"#utility.yul\":4872:4877   */\n  0x00\n    /* \"#utility.yul\":4901:4948   */\n  tag_110\n    /* \"#utility.yul\":4942:4946   */\n  0xff\n    /* \"#utility.yul\":4932:4940   */\n  dup5\n    /* \"#utility.yul\":4928:4947   */\n  and\n    /* \"#utility.yul\":4922:4926   */\n  dup4\n    /* \"#utility.yul\":4901:4948   */\n  tag_54\n  jump\t// in\ntag_110:\n    /* \"#utility.yul\":4892:4948   */\n  swap4\n    /* \"#utility.yul\":4814:4954   */\n  swap3\n  pop\n  pop\n  pop\n  jump\t// out\n    /* \"#utility.yul\":4959:5127   */\ntag_24:\n    /* \"#utility.yul\":5032:5041   */\n  dup1\n  dup3\n  mul\n    /* \"#utility.yul\":5063:5072   */\n  dup2\n  iszero\n    /* \"#utility.yul\":5080:5095   */\n  dup3\n  dup3\n  div\n    /* \"#utility.yul\":5074:5096   */\n  dup5\n  eq\n    /* \"#utility.yul\":5060:5097   */\n  or\n    /* \"#utility.yul\":5050:5121   */\n  tag_97\n  jumpi\n    /* \"#utility.yul\":5101:5119   */\n  tag_97\n  tag_52\n  jump\t// in\n    /* \"#utility.yul\":5132:5257   */\ntag_37:\n    /* \"#utility.yul\":5197:5206   */\n  dup1\n  dup3\n  add\n    /* \"#utility.yul\":5218:5228   */\n  dup1\n  dup3\n  gt\n    /* \"#utility.yul\":5215:5251   */\n  iszero\n  tag_97\n  jumpi\n    /* \"#utility.yul\":5231:5249   */\n  tag_97\n  tag_52\n  jump\t// in\n    /* \"#utility.yul\":5612:5789   */\ntag_55:\n    /* \"contracts/Erc1.sol\":243:1523  contract MyFirstToken is ERC20, ERC20Burnable, Ownable {... */\n  dataSize(sub_0)\n  dup1\n  dataOffset(sub_0)\n  0x00\n  codecopy\n  0x00\n  return\nstop\n\nsub_0: assembly {\n        /* \"contracts/Erc1.sol\":243:1523  contract MyFirstToken is ERC20, ERC20Burnable, Ownable {... */\n      mstore(0x40, 0x80)\n      callvalue\n      dup1\n      iszero\n      tag_1\n      jumpi\n      0x00\n      dup1\n      revert\n    tag_1:\n      pop\n      jumpi(tag_2, lt(calldatasize, 0x04))\n      shr(0xe0, calldataload(0x00))\n      dup1\n      0x715018a6\n      gt\n      tag_22\n      jumpi\n      dup1\n      0xac3c93cf\n      gt\n      tag_23\n      jumpi\n      dup1\n      0xac3c93cf\n      eq\n      tag_17\n      jumpi\n      dup1\n      0xbea1dcf8\n      eq\n      tag_18\n      jumpi\n      dup1\n      0xdd62ed3e\n      eq\n      tag_19\n      jumpi\n      dup1\n      0xee33bc45\n      eq\n      tag_20\n      jumpi\n      dup1\n      0xf2fde38b\n      eq\n      tag_21\n      jumpi\n      0x00\n      dup1\n      revert\n    tag_23:\n      dup1\n      0x715018a6\n      eq\n      tag_12\n      jumpi\n      dup1\n      0x79cc6790\n      eq\n      tag_13\n      jumpi\n      dup1\n      0x8da5cb5b\n      eq\n      tag_14\n      jumpi\n      dup1\n      0x95d89b41\n      eq\n      tag_15\n      jumpi\n      dup1\n      0xa9059cbb\n      eq\n      tag_16\n      jumpi\n      0x00\n      dup1\n      revert\n    tag_22:\n      dup1\n      0x2d44ff23\n      gt\n      tag_24\n      jumpi\n      dup1\n      0x2d44ff23\n      eq\n      tag_7\n      jumpi\n      dup1\n      0x313ce567\n      eq\n      tag_8\n      jumpi\n      dup1\n      0x40c10f19\n      eq\n      tag_9\n      jumpi\n      dup1\n      0x42966c68\n      eq\n      tag_10\n      jumpi\n      dup1\n      0x70a08231\n      eq\n      tag_11\n      jumpi\n      0x00\n      dup1\n      revert\n    tag_24:\n      dup1\n      0x06fdde03\n      eq\n      tag_3\n      jumpi\n      dup1\n      0x095ea7b3\n      eq\n      tag_4\n      jumpi\n      dup1\n      0x18160ddd\n      eq\n      tag_5\n      jumpi\n      dup1\n      0x23b872dd\n      eq\n      tag_6\n      jumpi\n    tag_2:\n      0x00\n      dup1\n      revert\n        /* \"@openzeppelin/contracts/token/ERC20/ERC20.sol\":2074:2163  function name() public view virtual returns (string memory) {... */\n    tag_3:\n      tag_25\n      tag_26\n      jump\t// in\n    tag_25:\n      mload(0x40)\n      tag_27\n      swap2\n      swap1\n      tag_28\n      jump\t// in\n    tag_27:\n      mload(0x40)\n      dup1\n      swap2\n      sub\n      swap1\n      return\n        /* \"@openzeppelin/contracts/token/ERC20/ERC20.sol\":4293:4479  function approve(address spender, uint256 value) public virtual returns (bool) {... */\n    tag_4:\n      tag_29\n      tag_30\n      calldatasize\n      0x04\n      tag_31\n      jump\t// in\n    tag_30:\n      tag_32\n      jump\t// in\n    tag_29:\n      mload(0x40)\n        /* \"#utility.yul\":1169:1183   */\n      swap1\n      iszero\n        /* \"#utility.yul\":1162:1184   */\n      iszero\n        /* \"#utility.yul\":1144:1185   */\n      dup2\n      mstore\n        /* \"#utility.yul\":1132:1134   */\n      0x20\n        /* \"#utility.yul\":1117:1135   */\n      add\n        /* \"@openzeppelin/contracts/token/ERC20/ERC20.sol\":4293:4479  function approve(address spender, uint256 value) public virtual returns (bool) {... */\n      tag_27\n        /* \"#utility.yul\":1004:1191   */\n      jump\n        /* \"@openzeppelin/contracts/token/ERC20/ERC20.sol\":3144:3241  function totalSupply() public view virtual returns (uint256) {... */\n    tag_5:\n        /* \"@openzeppelin/contracts/token/ERC20/ERC20.sol\":3222:3234  _totalSupply */\n      sload(0x02)\n        /* \"@openzeppelin/contracts/token/ERC20/ERC20.sol\":3144:3241  function totalSupply() public view virtual returns (uint256) {... */\n    tag_35:\n      mload(0x40)\n        /* \"#utility.yul\":1342:1367   */\n      swap1\n      dup2\n      mstore\n        /* \"#utility.yul\":1330:1332   */\n      0x20\n        /* \"#utility.yul\":1315:1333   */\n      add\n        /* \"@openzeppelin/contracts/token/ERC20/ERC20.sol\":3144:3241  function totalSupply() public view virtual returns (uint256) {... */\n      tag_27\n        /* \"#utility.yul\":1196:1373   */\n      jump\n        /* \"@openzeppelin/contracts/token/ERC20/ERC20.sol\":5039:5283  function transferFrom(address from, address to, uint256 value) public virtual returns (bool) {... */\n    tag_6:\n      tag_29\n      tag_40\n      calldatasize\n      0x04\n      tag_41\n      jump\t// in\n    tag_40:\n      tag_42\n      jump\t// in\n        /* \"contracts/Erc1.sol\":337:370  uint256 public currentTaxDeducted */\n    tag_7:\n      tag_35\n      sload(0x07)\n      dup2\n      jump\n        /* \"contracts/Erc1.sol\":924:1011  function decimals()public view virtual override returns(uint8){... */\n    tag_8:\n      mload(0x40)\n        /* \"contracts/Erc1.sol\":1003:1004  9 */\n      0x09\n        /* \"#utility.yul\":1853:1889   */\n      dup2\n      mstore\n        /* \"#utility.yul\":1841:1843   */\n      0x20\n        /* \"#utility.yul\":1826:1844   */\n      add\n        /* \"contracts/Erc1.sol\":924:1011  function decimals()public view virtual override returns(uint8){... */\n      tag_27\n        /* \"#utility.yul\":1711:1895   */\n      jump\n        /* \"contracts/Erc1.sol\":736:918  function mint(address to, uint256 amount) public onlyOwner {... */\n    tag_9:\n      tag_51\n      tag_52\n      calldatasize\n      0x04\n      tag_31\n      jump\t// in\n    tag_52:\n      tag_53\n      jump\t// in\n    tag_51:\n      stop\n        /* \"@openzeppelin/contracts/token/ERC20/extensions/ERC20Burnable.sol\":618:705  function burn(uint256 value) public virtual {... */\n    tag_10:\n      tag_51\n      tag_55\n      calldatasize\n      0x04\n      tag_56\n      jump\t// in\n    tag_55:\n      tag_57\n      jump\t// in\n        /* \"@openzeppelin/contracts/token/ERC20/ERC20.sol\":3299:3415  function balanceOf(address account) public view virtual returns (uint256) {... */\n    tag_11:\n      tag_35\n      tag_59\n      calldatasize\n      0x04\n      tag_60\n      jump\t// in\n    tag_59:\n      sub(shl(0xa0, 0x01), 0x01)\n        /* \"@openzeppelin/contracts/token/ERC20/ERC20.sol\":3390:3408  _balances[account] */\n      and\n        /* \"@openzeppelin/contracts/token/ERC20/ERC20.sol\":3364:3371  uint256 */\n      0x00\n        /* \"@openzeppelin/contracts/token/ERC20/ERC20.sol\":3390:3408  _balances[account] */\n      swap1\n      dup2\n      mstore\n      0x20\n      dup2\n      swap1\n      mstore\n      0x40\n      swap1\n      keccak256\n      sload\n      swap1\n        /* \"@openzeppelin/contracts/token/ERC20/ERC20.sol\":3299:3415  function balanceOf(address account) public view virtual returns (uint256) {... */\n      jump\n        /* \"@openzeppelin/contracts/access/Ownable.sol\":2293:2394  function renounceOwnership() public virtual onlyOwner {... */\n    tag_12:\n      tag_51\n      tag_64\n      jump\t// in\n        /* \"@openzeppelin/contracts/token/ERC20/extensions/ERC20Burnable.sol\":1021:1179  function burnFrom(address account, uint256 value) public virtual {... */\n    tag_13:\n      tag_51\n      tag_66\n      calldatasize\n      0x04\n      tag_31\n      jump\t// in\n    tag_66:\n      tag_67\n      jump\t// in\n        /* \"@openzeppelin/contracts/access/Ownable.sol\":1638:1723  function owner() public view virtual returns (address) {... */\n    tag_14:\n        /* \"@openzeppelin/contracts/access/Ownable.sol\":1710:1716  _owner */\n      and(sub(shl(0xa0, 0x01), 0x01), sload(0x05))\n        /* \"@openzeppelin/contracts/access/Ownable.sol\":1638:1723  function owner() public view virtual returns (address) {... */\n    tag_68:\n      mload(0x40)\n      sub(shl(0xa0, 0x01), 0x01)\n        /* \"#utility.yul\":2440:2472   */\n      swap1\n      swap2\n      and\n        /* \"#utility.yul\":2422:2473   */\n      dup2\n      mstore\n        /* \"#utility.yul\":2410:2412   */\n      0x20\n        /* \"#utility.yul\":2395:2413   */\n      add\n        /* \"@openzeppelin/contracts/access/Ownable.sol\":1638:1723  function owner() public view virtual returns (address) {... */\n      tag_27\n        /* \"#utility.yul\":2276:2479   */\n      jump\n        /* \"@openzeppelin/contracts/token/ERC20/ERC20.sol\":2276:2369  function symbol() public view virtual returns (string memory) {... */\n    tag_15:\n      tag_25\n      tag_73\n      jump\t// in\n        /* \"contracts/Erc1.sol\":1017:1521  function transfer(address to, uint value) public virtual override returns(bool) {... */\n    tag_16:\n      tag_29\n      tag_76\n      calldatasize\n      0x04\n      tag_31\n      jump\t// in\n    tag_76:\n      tag_77\n      jump\t// in\n        /* \"contracts/Erc1.sol\":415:479  mapping(address => mapping(address => uint256))public _taxRecord */\n    tag_17:\n      tag_35\n      tag_80\n      calldatasize\n      0x04\n      tag_81\n      jump\t// in\n    tag_80:\n      0x09\n      0x20\n      swap1\n      dup2\n      mstore\n      0x00\n      swap3\n      dup4\n      mstore\n      0x40\n      dup1\n      dup5\n      keccak256\n      swap1\n      swap2\n      mstore\n      swap1\n      dup3\n      mstore\n      swap1\n      keccak256\n      sload\n      dup2\n      jump\n        /* \"contracts/Erc1.sol\":304:331  address public taxCollector */\n    tag_18:\n      sload(0x06)\n      tag_68\n      swap1\n      sub(shl(0xa0, 0x01), 0x01)\n      and\n      dup2\n      jump\n        /* \"@openzeppelin/contracts/token/ERC20/ERC20.sol\":3846:3986  function allowance(address owner, address spender) public view virtual returns (uint256) {... */\n    tag_19:\n      tag_35\n      tag_88\n      calldatasize\n      0x04\n      tag_81\n      jump\t// in\n    tag_88:\n      sub(shl(0xa0, 0x01), 0x01)\n        /* \"@openzeppelin/contracts/token/ERC20/ERC20.sol\":3952:3970  _allowances[owner] */\n      swap2\n      dup3\n      and\n        /* \"@openzeppelin/contracts/token/ERC20/ERC20.sol\":3926:3933  uint256 */\n      0x00\n        /* \"@openzeppelin/contracts/token/ERC20/ERC20.sol\":3952:3970  _allowances[owner] */\n      swap1\n      dup2\n      mstore\n        /* \"@openzeppelin/contracts/token/ERC20/ERC20.sol\":3952:3963  _allowances */\n      0x01\n        /* \"@openzeppelin/contracts/token/ERC20/ERC20.sol\":3952:3970  _allowances[owner] */\n      0x20\n      swap1\n      dup2\n      mstore\n      0x40\n      dup1\n      dup4\n      keccak256\n        /* \"@openzeppelin/contracts/token/ERC20/ERC20.sol\":3952:3979  _allowances[owner][spender] */\n      swap4\n      swap1\n      swap5\n      and\n      dup3\n      mstore\n      swap2\n      swap1\n      swap2\n      mstore\n      keccak256\n      sload\n      swap1\n        /* \"@openzeppelin/contracts/token/ERC20/ERC20.sol\":3846:3986  function allowance(address owner, address spender) public view virtual returns (uint256) {... */\n      jump\n        /* \"contracts/Erc1.sol\":376:408  uint256 public grossTaxCollected */\n    tag_20:\n      tag_35\n      sload(0x08)\n      dup2\n      jump\n        /* \"@openzeppelin/contracts/access/Ownable.sol\":2543:2758  function transferOwnership(address newOwner) public virtual onlyOwner {... */\n    tag_21:\n      tag_51\n      tag_95\n      calldatasize\n      0x04\n      tag_60\n      jump\t// in\n    tag_95:\n      tag_96\n      jump\t// in\n        /* \"@openzeppelin/contracts/token/ERC20/ERC20.sol\":2074:2163  function name() public view virtual returns (string memory) {... */\n    tag_26:\n        /* \"@openzeppelin/contracts/token/ERC20/ERC20.sol\":2119:2132  string memory */\n      0x60\n        /* \"@openzeppelin/contracts/token/ERC20/ERC20.sol\":2151:2156  _name */\n      0x03\n        /* \"@openzeppelin/contracts/token/ERC20/ERC20.sol\":2144:2156  return _name */\n      dup1\n      sload\n      tag_98\n      swap1\n      tag_99\n      jump\t// in\n    tag_98:\n      dup1\n      0x1f\n      add\n      0x20\n      dup1\n      swap2\n      div\n      mul\n      0x20\n      add\n      mload(0x40)\n      swap1\n      dup2\n      add\n      0x40\n      mstore\n      dup1\n      swap3\n      swap2\n      swap1\n      dup2\n      dup2\n      mstore\n      0x20\n      add\n      dup3\n      dup1\n      sload\n      tag_100\n      swap1\n      tag_99\n      jump\t// in\n    tag_100:\n      dup1\n      iszero\n      tag_101\n      jumpi\n      dup1\n      0x1f\n      lt\n      tag_102\n      jumpi\n      0x0100\n      dup1\n      dup4\n      sload\n      div\n      mul\n      dup4\n      mstore\n      swap2\n      0x20\n      add\n      swap2\n      jump(tag_101)\n    tag_102:\n      dup3\n      add\n      swap2\n      swap1\n      0x00\n      mstore\n      keccak256(0x00, 0x20)\n      swap1\n    tag_103:\n      dup2\n      sload\n      dup2\n      mstore\n      swap1\n      0x01\n      add\n      swap1\n      0x20\n      add\n      dup1\n      dup4\n      gt\n      tag_103\n      jumpi\n      dup3\n      swap1\n      sub\n      0x1f\n      and\n      dup3\n      add\n      swap2\n    tag_101:\n      pop\n      pop\n      pop\n      pop\n      pop\n      swap1\n      pop\n        /* \"@openzeppelin/contracts/token/ERC20/ERC20.sol\":2074:2163  function name() public view virtual returns (string memory) {... */\n      swap1\n      jump\t// out\n        /* \"@openzeppelin/contracts/token/ERC20/ERC20.sol\":4293:4479  function approve(address spender, uint256 value) public virtual returns (bool) {... */\n    tag_32:\n        /* \"@openzeppelin/contracts/token/ERC20/ERC20.sol\":4366:4370  bool */\n      0x00\n        /* \"@openzeppelin/contracts/utils/Context.sol\":735:745  msg.sender */\n      caller\n        /* \"@openzeppelin/contracts/token/ERC20/ERC20.sol\":4420:4451  _approve(owner, spender, value) */\n      tag_107\n        /* \"@openzeppelin/contracts/utils/Context.sol\":735:745  msg.sender */\n      dup2\n        /* \"@openzeppelin/contracts/token/ERC20/ERC20.sol\":4436:4443  spender */\n      dup6\n        /* \"@openzeppelin/contracts/token/ERC20/ERC20.sol\":4445:4450  value */\n      dup6\n        /* \"@openzeppelin/contracts/token/ERC20/ERC20.sol\":4420:4428  _approve */\n      tag_108\n        /* \"@openzeppelin/contracts/token/ERC20/ERC20.sol\":4420:4451  _approve(owner, spender, value) */\n      jump\t// in\n    tag_107:\n        /* \"@openzeppelin/contracts/token/ERC20/ERC20.sol\":4468:4472  true */\n      0x01\n        /* \"@openzeppelin/contracts/token/ERC20/ERC20.sol\":4461:4472  return true */\n      swap2\n      pop\n      pop\n        /* \"@openzeppelin/contracts/token/ERC20/ERC20.sol\":4293:4479  function approve(address spender, uint256 value) public virtual returns (bool) {... */\n    tag_104:\n      swap3\n      swap2\n      pop\n      pop\n      jump\t// out\n        /* \"@openzeppelin/contracts/token/ERC20/ERC20.sol\":5039:5283  function transferFrom(address from, address to, uint256 value) public virtual returns (bool) {... */\n    tag_42:\n        /* \"@openzeppelin/contracts/token/ERC20/ERC20.sol\":5126:5130  bool */\n      0x00\n        /* \"@openzeppelin/contracts/utils/Context.sol\":735:745  msg.sender */\n      caller\n        /* \"@openzeppelin/contracts/token/ERC20/ERC20.sol\":5182:5219  _spendAllowance(from, spender, value) */\n      tag_112\n        /* \"@openzeppelin/contracts/token/ERC20/ERC20.sol\":5198:5202  from */\n      dup6\n        /* \"@openzeppelin/contracts/utils/Context.sol\":735:745  msg.sender */\n      dup3\n        /* \"@openzeppelin/contracts/token/ERC20/ERC20.sol\":5213:5218  value */\n      dup6\n        /* \"@openzeppelin/contracts/token/ERC20/ERC20.sol\":5182:5197  _spendAllowance */\n      tag_113\n        /* \"@openzeppelin/contracts/token/ERC20/ERC20.sol\":5182:5219  _spendAllowance(from, spender, value) */\n      jump\t// in\n    tag_112:\n        /* \"@openzeppelin/contracts/token/ERC20/ERC20.sol\":5229:5255  _transfer(from, to, value) */\n      tag_114\n        /* \"@openzeppelin/contracts/token/ERC20/ERC20.sol\":5239:5243  from */\n      dup6\n        /* \"@openzeppelin/contracts/token/ERC20/ERC20.sol\":5245:5247  to */\n      dup6\n        /* \"@openzeppelin/contracts/token/ERC20/ERC20.sol\":5249:5254  value */\n      dup6\n        /* \"@openzeppelin/contracts/token/ERC20/ERC20.sol\":5229:5238  _transfer */\n      tag_115\n        /* \"@openzeppelin/contracts/token/ERC20/ERC20.sol\":5229:5255  _transfer(from, to, value) */\n      jump\t// in\n    tag_114:\n      pop\n        /* \"@openzeppelin/contracts/token/ERC20/ERC20.sol\":5272:5276  true */\n      0x01\n      swap5\n        /* \"@openzeppelin/contracts/token/ERC20/ERC20.sol\":5039:5283  function transferFrom(address from, address to, uint256 value) public virtual returns (bool) {... */\n      swap4\n      pop\n      pop\n      pop\n      pop\n      jump\t// out\n        /* \"contracts/Erc1.sol\":736:918  function mint(address to, uint256 amount) public onlyOwner {... */\n    tag_53:\n        /* \"@openzeppelin/contracts/access/Ownable.sol\":1531:1544  _checkOwner() */\n      tag_118\n        /* \"@openzeppelin/contracts/access/Ownable.sol\":1531:1542  _checkOwner */\n      tag_119\n        /* \"@openzeppelin/contracts/access/Ownable.sol\":1531:1544  _checkOwner() */\n      jump\t// in\n    tag_118:\n      sub(shl(0xa0, 0x01), 0x01)\n        /* \"contracts/Erc1.sol\":813:829  to == msg.sender */\n      dup3\n      and\n        /* \"contracts/Erc1.sol\":819:829  msg.sender */\n      caller\n        /* \"contracts/Erc1.sol\":813:829  to == msg.sender */\n      eq\n        /* \"contracts/Erc1.sol\":805:863  require(to == msg.sender, \"Minting allowed only to owner\") */\n      tag_121\n      jumpi\n      mload(0x40)\n      shl(0xe5, 0x461bcd)\n      dup2\n      mstore\n        /* \"#utility.yul\":3336:3338   */\n      0x20\n        /* \"contracts/Erc1.sol\":805:863  require(to == msg.sender, \"Minting allowed only to owner\") */\n      0x04\n      dup3\n      add\n        /* \"#utility.yul\":3318:3339   */\n      mstore\n        /* \"#utility.yul\":3375:3377   */\n      0x1d\n        /* \"#utility.yul\":3355:3373   */\n      0x24\n      dup3\n      add\n        /* \"#utility.yul\":3348:3378   */\n      mstore\n        /* \"#utility.yul\":3414:3445   */\n      0x4d696e74696e6720616c6c6f776564206f6e6c7920746f206f776e6572000000\n        /* \"#utility.yul\":3394:3412   */\n      0x44\n      dup3\n      add\n        /* \"#utility.yul\":3387:3446   */\n      mstore\n        /* \"#utility.yul\":3463:3481   */\n      0x64\n      add\n        /* \"contracts/Erc1.sol\":805:863  require(to == msg.sender, \"Minting allowed only to owner\") */\n    tag_122:\n      mload(0x40)\n      dup1\n      swap2\n      sub\n      swap1\n      revert\n    tag_121:\n        /* \"contracts/Erc1.sol\":873:911  _mint(to,amount * (10 **(decimals()))) */\n      tag_124\n        /* \"contracts/Erc1.sol\":879:881  to */\n      dup3\n        /* \"contracts/Erc1.sol\":892:909  10 **(decimals()) */\n      tag_126\n        /* \"contracts/Erc1.sol\":1003:1004  9 */\n      0x09\n        /* \"contracts/Erc1.sol\":892:894  10 */\n      0x0a\n        /* \"contracts/Erc1.sol\":892:909  10 **(decimals()) */\n      tag_127\n      jump\t// in\n    tag_126:\n        /* \"contracts/Erc1.sol\":882:910  amount * (10 **(decimals())) */\n      tag_128\n      swap1\n        /* \"contracts/Erc1.sol\":882:888  amount */\n      dup5\n        /* \"contracts/Erc1.sol\":882:910  amount * (10 **(decimals())) */\n      tag_129\n      jump\t// in\n    tag_128:\n        /* \"contracts/Erc1.sol\":873:878  _mint */\n      tag_130\n        /* \"contracts/Erc1.sol\":873:911  _mint(to,amount * (10 **(decimals()))) */\n      jump\t// in\n    tag_124:\n        /* \"contracts/Erc1.sol\":736:918  function mint(address to, uint256 amount) public onlyOwner {... */\n      pop\n      pop\n      jump\t// out\n        /* \"@openzeppelin/contracts/token/ERC20/extensions/ERC20Burnable.sol\":618:705  function burn(uint256 value) public virtual {... */\n    tag_57:\n        /* \"@openzeppelin/contracts/token/ERC20/extensions/ERC20Burnable.sol\":672:698  _burn(_msgSender(), value) */\n      tag_132\n        /* \"@openzeppelin/contracts/utils/Context.sol\":735:745  msg.sender */\n      caller\n        /* \"@openzeppelin/contracts/token/ERC20/extensions/ERC20Burnable.sol\":692:697  value */\n      dup3\n        /* \"@openzeppelin/contracts/token/ERC20/extensions/ERC20Burnable.sol\":672:677  _burn */\n      tag_134\n        /* \"@openzeppelin/contracts/token/ERC20/extensions/ERC20Burnable.sol\":672:698  _burn(_msgSender(), value) */\n      jump\t// in\n    tag_132:\n        /* \"@openzeppelin/contracts/token/ERC20/extensions/ERC20Burnable.sol\":618:705  function burn(uint256 value) public virtual {... */\n      pop\n      jump\t// out\n        /* \"@openzeppelin/contracts/access/Ownable.sol\":2293:2394  function renounceOwnership() public virtual onlyOwner {... */\n    tag_64:\n        /* \"@openzeppelin/contracts/access/Ownable.sol\":1531:1544  _checkOwner() */\n      tag_137\n        /* \"@openzeppelin/contracts/access/Ownable.sol\":1531:1542  _checkOwner */\n      tag_119\n        /* \"@openzeppelin/contracts/access/Ownable.sol\":1531:1544  _checkOwner() */\n      jump\t// in\n    tag_137:\n        /* \"@openzeppelin/contracts/access/Ownable.sol\":2357:2387  _transferOwnership(address(0)) */\n      tag_139\n        /* \"@openzeppelin/contracts/access/Ownable.sol\":2384:2385  0 */\n      0x00\n        /* \"@openzeppelin/contracts/access/Ownable.sol\":2357:2375  _transferOwnership */\n      tag_140\n        /* \"@openzeppelin/contracts/access/Ownable.sol\":2357:2387  _transferOwnership(address(0)) */\n      jump\t// in\n    tag_139:\n        /* \"@openzeppelin/contracts/access/Ownable.sol\":2293:2394  function renounceOwnership() public virtual onlyOwner {... */\n      jump\t// out\n        /* \"@openzeppelin/contracts/token/ERC20/extensions/ERC20Burnable.sol\":1021:1179  function burnFrom(address account, uint256 value) public virtual {... */\n    tag_67:\n        /* \"@openzeppelin/contracts/token/ERC20/extensions/ERC20Burnable.sol\":1096:1141  _spendAllowance(account, _msgSender(), value) */\n      tag_142\n        /* \"@openzeppelin/contracts/token/ERC20/extensions/ERC20Burnable.sol\":1112:1119  account */\n      dup3\n        /* \"@openzeppelin/contracts/utils/Context.sol\":735:745  msg.sender */\n      caller\n        /* \"@openzeppelin/contracts/token/ERC20/extensions/ERC20Burnable.sol\":1135:1140  value */\n      dup4\n        /* \"@openzeppelin/contracts/token/ERC20/extensions/ERC20Burnable.sol\":1096:1111  _spendAllowance */\n      tag_113\n        /* \"@openzeppelin/contracts/token/ERC20/extensions/ERC20Burnable.sol\":1096:1141  _spendAllowance(account, _msgSender(), value) */\n      jump\t// in\n    tag_142:\n        /* \"@openzeppelin/contracts/token/ERC20/extensions/ERC20Burnable.sol\":1151:1172  _burn(account, value) */\n      tag_124\n        /* \"@openzeppelin/contracts/token/ERC20/extensions/ERC20Burnable.sol\":1157:1164  account */\n      dup3\n        /* \"@openzeppelin/contracts/token/ERC20/extensions/ERC20Burnable.sol\":1166:1171  value */\n      dup3\n        /* \"@openzeppelin/contracts/token/ERC20/extensions/ERC20Burnable.sol\":1151:1156  _burn */\n      tag_134\n        /* \"@openzeppelin/contracts/token/ERC20/extensions/ERC20Burnable.sol\":1151:1172  _burn(account, value) */\n      jump\t// in\n        /* \"@openzeppelin/contracts/token/ERC20/ERC20.sol\":2276:2369  function symbol() public view virtual returns (string memory) {... */\n    tag_73:\n        /* \"@openzeppelin/contracts/token/ERC20/ERC20.sol\":2323:2336  string memory */\n      0x60\n        /* \"@openzeppelin/contracts/token/ERC20/ERC20.sol\":2355:2362  _symbol */\n      0x04\n        /* \"@openzeppelin/contracts/token/ERC20/ERC20.sol\":2348:2362  return _symbol */\n      dup1\n      sload\n      tag_98\n      swap1\n      tag_99\n      jump\t// in\n        /* \"contracts/Erc1.sol\":1017:1521  function transfer(address to, uint value) public virtual override returns(bool) {... */\n    tag_77:\n        /* \"contracts/Erc1.sol\":1091:1095  bool */\n      0x00\n        /* \"contracts/Erc1.sol\":1140:1143  100 */\n      0x64\n        /* \"contracts/Erc1.sol\":1129:1138  5 * value */\n      tag_153\n        /* \"contracts/Erc1.sol\":1133:1138  value */\n      dup4\n        /* \"contracts/Erc1.sol\":1129:1130  5 */\n      0x05\n        /* \"contracts/Erc1.sol\":1129:1138  5 * value */\n      tag_129\n      jump\t// in\n    tag_153:\n        /* \"contracts/Erc1.sol\":1128:1143  (5 * value)/100 */\n      tag_154\n      swap2\n      swap1\n      tag_155\n      jump\t// in\n    tag_154:\n        /* \"contracts/Erc1.sol\":1107:1125  currentTaxDeducted */\n      0x07\n        /* \"contracts/Erc1.sol\":1107:1143  currentTaxDeducted = (5 * value)/100 */\n      dup2\n      swap1\n      sstore\n        /* \"contracts/Erc1.sol\":1153:1172  uint transferAmount */\n      0x00\n      swap1\n        /* \"contracts/Erc1.sol\":1175:1201  value - currentTaxDeducted */\n      tag_156\n      swap1\n        /* \"contracts/Erc1.sol\":1175:1180  value */\n      dup5\n        /* \"contracts/Erc1.sol\":1175:1201  value - currentTaxDeducted */\n      tag_157\n      jump\t// in\n    tag_156:\n        /* \"contracts/Erc1.sol\":1153:1201  uint transferAmount = value - currentTaxDeducted */\n      swap1\n      pop\n        /* \"contracts/Erc1.sol\":1251:1269  currentTaxDeducted */\n      sload(0x07)\n        /* \"contracts/Erc1.sol\":1231:1248  grossTaxCollected */\n      sload(0x08)\n        /* \"contracts/Erc1.sol\":1231:1269  grossTaxCollected + currentTaxDeducted */\n      tag_158\n      swap2\n      swap1\n      tag_159\n      jump\t// in\n    tag_158:\n        /* \"contracts/Erc1.sol\":1211:1228  grossTaxCollected */\n      0x08\n        /* \"contracts/Erc1.sol\":1211:1269  grossTaxCollected = grossTaxCollected + currentTaxDeducted */\n      sstore\n        /* \"contracts/Erc1.sol\":1303:1315  taxCollector */\n      sload(0x06)\n        /* \"contracts/Erc1.sol\":1361:1379  currentTaxDeducted */\n      sload(0x07)\n      sub(shl(0xa0, 0x01), 0x01)\n        /* \"contracts/Erc1.sol\":1303:1315  taxCollector */\n      swap1\n      swap2\n      and\n      swap1\n        /* \"contracts/Erc1.sol\":1325:1380  _transfer(msg.sender, taxCollector, currentTaxDeducted) */\n      tag_160\n      swap1\n        /* \"contracts/Erc1.sol\":1335:1345  msg.sender */\n      caller\n      swap1\n        /* \"contracts/Erc1.sol\":1303:1315  taxCollector */\n      dup4\n      swap1\n        /* \"contracts/Erc1.sol\":1325:1334  _transfer */\n      tag_115\n        /* \"contracts/Erc1.sol\":1325:1380  _transfer(msg.sender, taxCollector, currentTaxDeducted) */\n      jump\t// in\n    tag_160:\n        /* \"contracts/Erc1.sol\":1390:1431  _transfer(msg.sender, to, transferAmount) */\n      tag_161\n        /* \"contracts/Erc1.sol\":1400:1410  msg.sender */\n      caller\n        /* \"contracts/Erc1.sol\":1412:1414  to */\n      dup7\n        /* \"contracts/Erc1.sol\":1416:1430  transferAmount */\n      dup5\n        /* \"contracts/Erc1.sol\":1390:1399  _transfer */\n      tag_115\n        /* \"contracts/Erc1.sol\":1390:1431  _transfer(msg.sender, to, transferAmount) */\n      jump\t// in\n    tag_161:\n        /* \"contracts/Erc1.sol\":1474:1492  currentTaxDeducted */\n      sload(0x07)\n      sub(shl(0xa0, 0x01), 0x01)\n        /* \"contracts/Erc1.sol\":1441:1466  _taxRecord[_taxCollector] */\n      dup1\n      dup4\n      and\n      0x00\n      swap1\n      dup2\n      mstore\n        /* \"contracts/Erc1.sol\":1441:1451  _taxRecord */\n      0x09\n        /* \"contracts/Erc1.sol\":1441:1466  _taxRecord[_taxCollector] */\n      0x20\n      swap1\n      dup2\n      mstore\n      0x40\n      dup1\n      dup4\n      keccak256\n        /* \"contracts/Erc1.sol\":1441:1470  _taxRecord[_taxCollector][to] */\n      swap4\n      dup11\n      and\n      dup4\n      mstore\n      swap3\n      swap1\n      mstore\n      swap1\n      dup2\n      keccak256\n        /* \"contracts/Erc1.sol\":1441:1492  _taxRecord[_taxCollector][to] += currentTaxDeducted */\n      dup1\n      sload\n        /* \"contracts/Erc1.sol\":1441:1470  _taxRecord[_taxCollector][to] */\n      swap1\n      swap2\n        /* \"contracts/Erc1.sol\":1441:1466  _taxRecord[_taxCollector] */\n      swap1\n        /* \"contracts/Erc1.sol\":1441:1492  _taxRecord[_taxCollector][to] += currentTaxDeducted */\n      tag_162\n      swap1\n        /* \"contracts/Erc1.sol\":1474:1492  currentTaxDeducted */\n      dup5\n      swap1\n        /* \"contracts/Erc1.sol\":1441:1492  _taxRecord[_taxCollector][to] += currentTaxDeducted */\n      tag_159\n      jump\t// in\n    tag_162:\n      swap1\n      swap2\n      sstore\n      pop\n        /* \"contracts/Erc1.sol\":1509:1513  true */\n      0x01\n      swap7\n        /* \"contracts/Erc1.sol\":1017:1521  function transfer(address to, uint value) public virtual override returns(bool) {... */\n      swap6\n      pop\n      pop\n      pop\n      pop\n      pop\n      pop\n      jump\t// out\n        /* \"@openzeppelin/contracts/access/Ownable.sol\":2543:2758  function transferOwnership(address newOwner) public virtual onlyOwner {... */\n    tag_96:\n        /* \"@openzeppelin/contracts/access/Ownable.sol\":1531:1544  _checkOwner() */\n      tag_165\n        /* \"@openzeppelin/contracts/access/Ownable.sol\":1531:1542  _checkOwner */\n      tag_119\n        /* \"@openzeppelin/contracts/access/Ownable.sol\":1531:1544  _checkOwner() */\n      jump\t// in\n    tag_165:\n      sub(shl(0xa0, 0x01), 0x01)\n        /* \"@openzeppelin/contracts/access/Ownable.sol\":2627:2649  newOwner == address(0) */\n      dup2\n      and\n        /* \"@openzeppelin/contracts/access/Ownable.sol\":2623:2714  if (newOwner == address(0)) {... */\n      tag_167\n      jumpi\n        /* \"@openzeppelin/contracts/access/Ownable.sol\":2672:2703  OwnableInvalidOwner(address(0)) */\n      mload(0x40)\n      shl(0xe0, 0x1e4fbdf7)\n      dup2\n      mstore\n        /* \"@openzeppelin/contracts/access/Ownable.sol\":2700:2701  0 */\n      0x00\n        /* \"@openzeppelin/contracts/access/Ownable.sol\":2672:2703  OwnableInvalidOwner(address(0)) */\n      0x04\n      dup3\n      add\n        /* \"#utility.yul\":2422:2473   */\n      mstore\n        /* \"#utility.yul\":2395:2413   */\n      0x24\n      add\n        /* \"@openzeppelin/contracts/access/Ownable.sol\":2672:2703  OwnableInvalidOwner(address(0)) */\n      tag_122\n        /* \"#utility.yul\":2276:2479   */\n      jump\n        /* \"@openzeppelin/contracts/access/Ownable.sol\":2623:2714  if (newOwner == address(0)) {... */\n    tag_167:\n        /* \"@openzeppelin/contracts/access/Ownable.sol\":2723:2751  _transferOwnership(newOwner) */\n      tag_132\n        /* \"@openzeppelin/contracts/access/Ownable.sol\":2742:2750  newOwner */\n      dup2\n        /* \"@openzeppelin/contracts/access/Ownable.sol\":2723:2741  _transferOwnership */\n      tag_140\n        /* \"@openzeppelin/contracts/access/Ownable.sol\":2723:2751  _transferOwnership(newOwner) */\n      jump\t// in\n        /* \"@openzeppelin/contracts/token/ERC20/ERC20.sol\":8989:9117  function _approve(address owner, address spender, uint256 value) internal {... */\n    tag_108:\n        /* \"@openzeppelin/contracts/token/ERC20/ERC20.sol\":9073:9110  _approve(owner, spender, value, true) */\n      tag_172\n        /* \"@openzeppelin/contracts/token/ERC20/ERC20.sol\":9082:9087  owner */\n      dup4\n        /* \"@openzeppelin/contracts/token/ERC20/ERC20.sol\":9089:9096  spender */\n      dup4\n        /* \"@openzeppelin/contracts/token/ERC20/ERC20.sol\":9098:9103  value */\n      dup4\n        /* \"@openzeppelin/contracts/token/ERC20/ERC20.sol\":9105:9109  true */\n      0x01\n        /* \"@openzeppelin/contracts/token/ERC20/ERC20.sol\":9073:9081  _approve */\n      tag_173\n        /* \"@openzeppelin/contracts/token/ERC20/ERC20.sol\":9073:9110  _approve(owner, spender, value, true) */\n      jump\t// in\n    tag_172:\n        /* \"@openzeppelin/contracts/token/ERC20/ERC20.sol\":8989:9117  function _approve(address owner, address spender, uint256 value) internal {... */\n      pop\n      pop\n      pop\n      jump\t// out\n        /* \"@openzeppelin/contracts/token/ERC20/ERC20.sol\":10663:11140  function _spendAllowance(address owner, address spender, uint256 value) internal virtual {... */\n    tag_113:\n      sub(shl(0xa0, 0x01), 0x01)\n        /* \"@openzeppelin/contracts/token/ERC20/ERC20.sol\":3952:3970  _allowances[owner] */\n      dup4\n      dup2\n      and\n        /* \"@openzeppelin/contracts/token/ERC20/ERC20.sol\":10762:10786  uint256 currentAllowance */\n      0x00\n        /* \"@openzeppelin/contracts/token/ERC20/ERC20.sol\":3952:3970  _allowances[owner] */\n      swap1\n      dup2\n      mstore\n        /* \"@openzeppelin/contracts/token/ERC20/ERC20.sol\":3952:3963  _allowances */\n      0x01\n        /* \"@openzeppelin/contracts/token/ERC20/ERC20.sol\":3952:3970  _allowances[owner] */\n      0x20\n      swap1\n      dup2\n      mstore\n      0x40\n      dup1\n      dup4\n      keccak256\n        /* \"@openzeppelin/contracts/token/ERC20/ERC20.sol\":3952:3979  _allowances[owner][spender] */\n      swap4\n      dup7\n      and\n      dup4\n      mstore\n      swap3\n      swap1\n      mstore\n      keccak256\n      sload\n      not(0x00)\n        /* \"@openzeppelin/contracts/token/ERC20/ERC20.sol\":10828:10865  currentAllowance != type(uint256).max */\n      dup2\n      eq\n        /* \"@openzeppelin/contracts/token/ERC20/ERC20.sol\":10824:11134  if (currentAllowance != type(uint256).max) {... */\n      tag_180\n      jumpi\n        /* \"@openzeppelin/contracts/token/ERC20/ERC20.sol\":10904:10909  value */\n      dup2\n        /* \"@openzeppelin/contracts/token/ERC20/ERC20.sol\":10885:10901  currentAllowance */\n      dup2\n        /* \"@openzeppelin/contracts/token/ERC20/ERC20.sol\":10885:10909  currentAllowance < value */\n      lt\n        /* \"@openzeppelin/contracts/token/ERC20/ERC20.sol\":10881:11011  if (currentAllowance < value) {... */\n      iszero\n      tag_177\n      jumpi\n        /* \"@openzeppelin/contracts/token/ERC20/ERC20.sol\":10936:10996  ERC20InsufficientAllowance(spender, currentAllowance, value) */\n      mload(0x40)\n      shl(0xe1, 0x7dc7a0d9)\n      dup2\n      mstore\n      sub(shl(0xa0, 0x01), 0x01)\n        /* \"#utility.yul\":5879:5911   */\n      dup5\n      and\n        /* \"@openzeppelin/contracts/token/ERC20/ERC20.sol\":10936:10996  ERC20InsufficientAllowance(spender, currentAllowance, value) */\n      0x04\n      dup3\n      add\n        /* \"#utility.yul\":5861:5912   */\n      mstore\n        /* \"#utility.yul\":5928:5946   */\n      0x24\n      dup2\n      add\n        /* \"#utility.yul\":5921:5955   */\n      dup3\n      swap1\n      mstore\n        /* \"#utility.yul\":5971:5989   */\n      0x44\n      dup2\n      add\n        /* \"#utility.yul\":5964:5998   */\n      dup4\n      swap1\n      mstore\n        /* \"#utility.yul\":5834:5852   */\n      0x64\n      add\n        /* \"@openzeppelin/contracts/token/ERC20/ERC20.sol\":10936:10996  ERC20InsufficientAllowance(spender, currentAllowance, value) */\n      tag_122\n        /* \"#utility.yul\":5659:6004   */\n      jump\n        /* \"@openzeppelin/contracts/token/ERC20/ERC20.sol\":10881:11011  if (currentAllowance < value) {... */\n    tag_177:\n        /* \"@openzeppelin/contracts/token/ERC20/ERC20.sol\":11052:11109  _approve(owner, spender, currentAllowance - value, false) */\n      tag_180\n        /* \"@openzeppelin/contracts/token/ERC20/ERC20.sol\":11061:11066  owner */\n      dup5\n        /* \"@openzeppelin/contracts/token/ERC20/ERC20.sol\":11068:11075  spender */\n      dup5\n        /* \"@openzeppelin/contracts/token/ERC20/ERC20.sol\":11096:11101  value */\n      dup5\n        /* \"@openzeppelin/contracts/token/ERC20/ERC20.sol\":11077:11093  currentAllowance */\n      dup5\n        /* \"@openzeppelin/contracts/token/ERC20/ERC20.sol\":11077:11101  currentAllowance - value */\n      sub\n        /* \"@openzeppelin/contracts/token/ERC20/ERC20.sol\":11103:11108  false */\n      0x00\n        /* \"@openzeppelin/contracts/token/ERC20/ERC20.sol\":11052:11060  _approve */\n      tag_173\n        /* \"@openzeppelin/contracts/token/ERC20/ERC20.sol\":11052:11109  _approve(owner, spender, currentAllowance - value, false) */\n      jump\t// in\n    tag_180:\n        /* \"@openzeppelin/contracts/token/ERC20/ERC20.sol\":10752:11140  {... */\n      pop\n        /* \"@openzeppelin/contracts/token/ERC20/ERC20.sol\":10663:11140  function _spendAllowance(address owner, address spender, uint256 value) internal virtual {... */\n      pop\n      pop\n      pop\n      jump\t// out\n        /* \"@openzeppelin/contracts/token/ERC20/ERC20.sol\":5656:5956  function _transfer(address from, address to, uint256 value) internal {... */\n    tag_115:\n      sub(shl(0xa0, 0x01), 0x01)\n        /* \"@openzeppelin/contracts/token/ERC20/ERC20.sol\":5739:5757  from == address(0) */\n      dup4\n      and\n        /* \"@openzeppelin/contracts/token/ERC20/ERC20.sol\":5735:5821  if (from == address(0)) {... */\n      tag_182\n      jumpi\n        /* \"@openzeppelin/contracts/token/ERC20/ERC20.sol\":5780:5810  ERC20InvalidSender(address(0)) */\n      mload(0x40)\n      shl(0xe1, 0x4b637e8f)\n      dup2\n      mstore\n        /* \"@openzeppelin/contracts/token/ERC20/ERC20.sol\":5807:5808  0 */\n      0x00\n        /* \"@openzeppelin/contracts/token/ERC20/ERC20.sol\":5780:5810  ERC20InvalidSender(address(0)) */\n      0x04\n      dup3\n      add\n        /* \"#utility.yul\":2422:2473   */\n      mstore\n        /* \"#utility.yul\":2395:2413   */\n      0x24\n      add\n        /* \"@openzeppelin/contracts/token/ERC20/ERC20.sol\":5780:5810  ERC20InvalidSender(address(0)) */\n      tag_122\n        /* \"#utility.yul\":2276:2479   */\n      jump\n        /* \"@openzeppelin/contracts/token/ERC20/ERC20.sol\":5735:5821  if (from == address(0)) {... */\n    tag_182:\n      sub(shl(0xa0, 0x01), 0x01)\n        /* \"@openzeppelin/contracts/token/ERC20/ERC20.sol\":5834:5850  to == address(0) */\n      dup3\n      and\n        /* \"@openzeppelin/contracts/token/ERC20/ERC20.sol\":5830:5916  if (to == address(0)) {... */\n      tag_184\n      jumpi\n        /* \"@openzeppelin/contracts/token/ERC20/ERC20.sol\":5873:5905  ERC20InvalidReceiver(address(0)) */\n      mload(0x40)\n      shl(0xe0, 0xec442f05)\n      dup2\n      mstore\n        /* \"@openzeppelin/contracts/token/ERC20/ERC20.sol\":5902:5903  0 */\n      0x00\n        /* \"@openzeppelin/contracts/token/ERC20/ERC20.sol\":5873:5905  ERC20InvalidReceiver(address(0)) */\n      0x04\n      dup3\n      add\n        /* \"#utility.yul\":2422:2473   */\n      mstore\n        /* \"#utility.yul\":2395:2413   */\n      0x24\n      add\n        /* \"@openzeppelin/contracts/token/ERC20/ERC20.sol\":5873:5905  ERC20InvalidReceiver(address(0)) */\n      tag_122\n        /* \"#utility.yul\":2276:2479   */\n      jump\n        /* \"@openzeppelin/contracts/token/ERC20/ERC20.sol\":5830:5916  if (to == address(0)) {... */\n    tag_184:\n        /* \"@openzeppelin/contracts/token/ERC20/ERC20.sol\":5925:5949  _update(from, to, value) */\n      tag_172\n        /* \"@openzeppelin/contracts/token/ERC20/ERC20.sol\":5933:5937  from */\n      dup4\n        /* \"@openzeppelin/contracts/token/ERC20/ERC20.sol\":5939:5941  to */\n      dup4\n        /* \"@openzeppelin/contracts/token/ERC20/ERC20.sol\":5943:5948  value */\n      dup4\n        /* \"@openzeppelin/contracts/token/ERC20/ERC20.sol\":5925:5932  _update */\n      tag_187\n        /* \"@openzeppelin/contracts/token/ERC20/ERC20.sol\":5925:5949  _update(from, to, value) */\n      jump\t// in\n        /* \"@openzeppelin/contracts/access/Ownable.sol\":1796:1958  function _checkOwner() internal view virtual {... */\n    tag_119:\n        /* \"@openzeppelin/contracts/access/Ownable.sol\":1710:1716  _owner */\n      and(sub(shl(0xa0, 0x01), 0x01), sload(0x05))\n        /* \"@openzeppelin/contracts/utils/Context.sol\":735:745  msg.sender */\n      caller\n        /* \"@openzeppelin/contracts/access/Ownable.sol\":1855:1878  owner() != _msgSender() */\n      eq\n        /* \"@openzeppelin/contracts/access/Ownable.sol\":1851:1952  if (owner() != _msgSender()) {... */\n      tag_139\n      jumpi\n        /* \"@openzeppelin/contracts/access/Ownable.sol\":1901:1941  OwnableUnauthorizedAccount(_msgSender()) */\n      mload(0x40)\n      shl(0xe0, 0x118cdaa7)\n      dup2\n      mstore\n        /* \"@openzeppelin/contracts/utils/Context.sol\":735:745  msg.sender */\n      caller\n        /* \"@openzeppelin/contracts/access/Ownable.sol\":1901:1941  OwnableUnauthorizedAccount(_msgSender()) */\n      0x04\n      dup3\n      add\n        /* \"#utility.yul\":2422:2473   */\n      mstore\n        /* \"#utility.yul\":2395:2413   */\n      0x24\n      add\n        /* \"@openzeppelin/contracts/access/Ownable.sol\":1901:1941  OwnableUnauthorizedAccount(_msgSender()) */\n      tag_122\n        /* \"#utility.yul\":2276:2479   */\n      jump\n        /* \"@openzeppelin/contracts/token/ERC20/ERC20.sol\":7721:7929  function _mint(address account, uint256 value) internal {... */\n    tag_130:\n      sub(shl(0xa0, 0x01), 0x01)\n        /* \"@openzeppelin/contracts/token/ERC20/ERC20.sol\":7791:7812  account == address(0) */\n      dup3\n      and\n        /* \"@openzeppelin/contracts/token/ERC20/ERC20.sol\":7787:7878  if (account == address(0)) {... */\n      tag_195\n      jumpi\n        /* \"@openzeppelin/contracts/token/ERC20/ERC20.sol\":7835:7867  ERC20InvalidReceiver(address(0)) */\n      mload(0x40)\n      shl(0xe0, 0xec442f05)\n      dup2\n      mstore\n        /* \"@openzeppelin/contracts/token/ERC20/ERC20.sol\":7864:7865  0 */\n      0x00\n        /* \"@openzeppelin/contracts/token/ERC20/ERC20.sol\":7835:7867  ERC20InvalidReceiver(address(0)) */\n      0x04\n      dup3\n      add\n        /* \"#utility.yul\":2422:2473   */\n      mstore\n        /* \"#utility.yul\":2395:2413   */\n      0x24\n      add\n        /* \"@openzeppelin/contracts/token/ERC20/ERC20.sol\":7835:7867  ERC20InvalidReceiver(address(0)) */\n      tag_122\n        /* \"#utility.yul\":2276:2479   */\n      jump\n        /* \"@openzeppelin/contracts/token/ERC20/ERC20.sol\":7787:7878  if (account == address(0)) {... */\n    tag_195:\n        /* \"@openzeppelin/contracts/token/ERC20/ERC20.sol\":7887:7922  _update(address(0), account, value) */\n      tag_124\n        /* \"@openzeppelin/contracts/token/ERC20/ERC20.sol\":7903:7904  0 */\n      0x00\n        /* \"@openzeppelin/contracts/token/ERC20/ERC20.sol\":7907:7914  account */\n      dup4\n        /* \"@openzeppelin/contracts/token/ERC20/ERC20.sol\":7916:7921  value */\n      dup4\n        /* \"@openzeppelin/contracts/token/ERC20/ERC20.sol\":7887:7894  _update */\n      tag_187\n        /* \"@openzeppelin/contracts/token/ERC20/ERC20.sol\":7887:7922  _update(address(0), account, value) */\n      jump\t// in\n        /* \"@openzeppelin/contracts/token/ERC20/ERC20.sol\":8247:8453  function _burn(address account, uint256 value) internal {... */\n    tag_134:\n      sub(shl(0xa0, 0x01), 0x01)\n        /* \"@openzeppelin/contracts/token/ERC20/ERC20.sol\":8317:8338  account == address(0) */\n      dup3\n      and\n        /* \"@openzeppelin/contracts/token/ERC20/ERC20.sol\":8313:8402  if (account == address(0)) {... */\n      tag_199\n      jumpi\n        /* \"@openzeppelin/contracts/token/ERC20/ERC20.sol\":8361:8391  ERC20InvalidSender(address(0)) */\n      mload(0x40)\n      shl(0xe1, 0x4b637e8f)\n      dup2\n      mstore\n        /* \"@openzeppelin/contracts/token/ERC20/ERC20.sol\":8388:8389  0 */\n      0x00\n        /* \"@openzeppelin/contracts/token/ERC20/ERC20.sol\":8361:8391  ERC20InvalidSender(address(0)) */\n      0x04\n      dup3\n      add\n        /* \"#utility.yul\":2422:2473   */\n      mstore\n        /* \"#utility.yul\":2395:2413   */\n      0x24\n      add\n        /* \"@openzeppelin/contracts/token/ERC20/ERC20.sol\":8361:8391  ERC20InvalidSender(address(0)) */\n      tag_122\n        /* \"#utility.yul\":2276:2479   */\n      jump\n        /* \"@openzeppelin/contracts/token/ERC20/ERC20.sol\":8313:8402  if (account == address(0)) {... */\n    tag_199:\n        /* \"@openzeppelin/contracts/token/ERC20/ERC20.sol\":8411:8446  _update(account, address(0), value) */\n      tag_124\n        /* \"@openzeppelin/contracts/token/ERC20/ERC20.sol\":8419:8426  account */\n      dup3\n        /* \"@openzeppelin/contracts/token/ERC20/ERC20.sol\":8436:8437  0 */\n      0x00\n        /* \"@openzeppelin/contracts/token/ERC20/ERC20.sol\":8440:8445  value */\n      dup4\n        /* \"@openzeppelin/contracts/token/ERC20/ERC20.sol\":8411:8418  _update */\n      tag_187\n        /* \"@openzeppelin/contracts/token/ERC20/ERC20.sol\":8411:8446  _update(account, address(0), value) */\n      jump\t// in\n        /* \"@openzeppelin/contracts/access/Ownable.sol\":2912:3099  function _transferOwnership(address newOwner) internal virtual {... */\n    tag_140:\n        /* \"@openzeppelin/contracts/access/Ownable.sol\":3004:3010  _owner */\n      0x05\n      dup1\n      sload\n      sub(shl(0xa0, 0x01), 0x01)\n        /* \"@openzeppelin/contracts/access/Ownable.sol\":3020:3037  _owner = newOwner */\n      dup4\n      dup2\n      and\n      not(sub(shl(0xa0, 0x01), 0x01))\n      dup4\n      and\n      dup2\n      or\n      swap1\n      swap4\n      sstore\n        /* \"@openzeppelin/contracts/access/Ownable.sol\":3052:3092  OwnershipTransferred(oldOwner, newOwner) */\n      mload(0x40)\n        /* \"@openzeppelin/contracts/access/Ownable.sol\":3004:3010  _owner */\n      swap2\n      and\n      swap2\n        /* \"@openzeppelin/contracts/access/Ownable.sol\":3020:3037  _owner = newOwner */\n      swap1\n        /* \"@openzeppelin/contracts/access/Ownable.sol\":3004:3010  _owner */\n      dup3\n      swap1\n        /* \"@openzeppelin/contracts/access/Ownable.sol\":3052:3092  OwnershipTransferred(oldOwner, newOwner) */\n      0x8be0079c531659141344cd1fd0a4f28419497f9722a3daafe3b4186f6b6457e0\n      swap1\n        /* \"@openzeppelin/contracts/access/Ownable.sol\":2985:3001  address oldOwner */\n      0x00\n      swap1\n        /* \"@openzeppelin/contracts/access/Ownable.sol\":3052:3092  OwnershipTransferred(oldOwner, newOwner) */\n      log3\n        /* \"@openzeppelin/contracts/access/Ownable.sol\":2975:3099  {... */\n      pop\n        /* \"@openzeppelin/contracts/access/Ownable.sol\":2912:3099  function _transferOwnership(address newOwner) internal virtual {... */\n      pop\n      jump\t// out\n        /* \"@openzeppelin/contracts/token/ERC20/ERC20.sol\":9949:10381  function _approve(address owner, address spender, uint256 value, bool emitEvent) internal virtual {... */\n    tag_173:\n      sub(shl(0xa0, 0x01), 0x01)\n        /* \"@openzeppelin/contracts/token/ERC20/ERC20.sol\":10061:10080  owner == address(0) */\n      dup5\n      and\n        /* \"@openzeppelin/contracts/token/ERC20/ERC20.sol\":10057:10146  if (owner == address(0)) {... */\n      tag_204\n      jumpi\n        /* \"@openzeppelin/contracts/token/ERC20/ERC20.sol\":10103:10135  ERC20InvalidApprover(address(0)) */\n      mload(0x40)\n      shl(0xe0, 0xe602df05)\n      dup2\n      mstore\n        /* \"@openzeppelin/contracts/token/ERC20/ERC20.sol\":10132:10133  0 */\n      0x00\n        /* \"@openzeppelin/contracts/token/ERC20/ERC20.sol\":10103:10135  ERC20InvalidApprover(address(0)) */\n      0x04\n      dup3\n      add\n        /* \"#utility.yul\":2422:2473   */\n      mstore\n        /* \"#utility.yul\":2395:2413   */\n      0x24\n      add\n        /* \"@openzeppelin/contracts/token/ERC20/ERC20.sol\":10103:10135  ERC20InvalidApprover(address(0)) */\n      tag_122\n        /* \"#utility.yul\":2276:2479   */\n      jump\n        /* \"@openzeppelin/contracts/token/ERC20/ERC20.sol\":10057:10146  if (owner == address(0)) {... */\n    tag_204:\n      sub(shl(0xa0, 0x01), 0x01)\n        /* \"@openzeppelin/contracts/token/ERC20/ERC20.sol\":10159:10180  spender == address(0) */\n      dup4\n      and\n        /* \"@openzeppelin/contracts/token/ERC20/ERC20.sol\":10155:10245  if (spender == address(0)) {... */\n      tag_206\n      jumpi\n        /* \"@openzeppelin/contracts/token/ERC20/ERC20.sol\":10203:10234  ERC20InvalidSpender(address(0)) */\n      mload(0x40)\n      shl(0xe1, 0x4a1406b1)\n      dup2\n      mstore\n        /* \"@openzeppelin/contracts/token/ERC20/ERC20.sol\":10231:10232  0 */\n      0x00\n        /* \"@openzeppelin/contracts/token/ERC20/ERC20.sol\":10203:10234  ERC20InvalidSpender(address(0)) */\n      0x04\n      dup3\n      add\n        /* \"#utility.yul\":2422:2473   */\n      mstore\n        /* \"#utility.yul\":2395:2413   */\n      0x24\n      add\n        /* \"@openzeppelin/contracts/token/ERC20/ERC20.sol\":10203:10234  ERC20InvalidSpender(address(0)) */\n      tag_122\n        /* \"#utility.yul\":2276:2479   */\n      jump\n        /* \"@openzeppelin/contracts/token/ERC20/ERC20.sol\":10155:10245  if (spender == address(0)) {... */\n    tag_206:\n      sub(shl(0xa0, 0x01), 0x01)\n        /* \"@openzeppelin/contracts/token/ERC20/ERC20.sol\":10254:10272  _allowances[owner] */\n      dup1\n      dup6\n      and\n      0x00\n      swap1\n      dup2\n      mstore\n        /* \"@openzeppelin/contracts/token/ERC20/ERC20.sol\":10254:10265  _allowances */\n      0x01\n        /* \"@openzeppelin/contracts/token/ERC20/ERC20.sol\":10254:10272  _allowances[owner] */\n      0x20\n      swap1\n      dup2\n      mstore\n      0x40\n      dup1\n      dup4\n      keccak256\n        /* \"@openzeppelin/contracts/token/ERC20/ERC20.sol\":10254:10281  _allowances[owner][spender] */\n      swap4\n      dup8\n      and\n      dup4\n      mstore\n      swap3\n      swap1\n      mstore\n      keccak256\n        /* \"@openzeppelin/contracts/token/ERC20/ERC20.sol\":10254:10289  _allowances[owner][spender] = value */\n      dup3\n      swap1\n      sstore\n        /* \"@openzeppelin/contracts/token/ERC20/ERC20.sol\":10299:10375  if (emitEvent) {... */\n      dup1\n      iszero\n      tag_180\n      jumpi\n        /* \"@openzeppelin/contracts/token/ERC20/ERC20.sol\":10349:10356  spender */\n      dup3\n      sub(shl(0xa0, 0x01), 0x01)\n        /* \"@openzeppelin/contracts/token/ERC20/ERC20.sol\":10333:10364  Approval(owner, spender, value) */\n      and\n        /* \"@openzeppelin/contracts/token/ERC20/ERC20.sol\":10342:10347  owner */\n      dup5\n      sub(shl(0xa0, 0x01), 0x01)\n        /* \"@openzeppelin/contracts/token/ERC20/ERC20.sol\":10333:10364  Approval(owner, spender, value) */\n      and\n      0x8c5be1e5ebec7d5bd14f71427d1e84f3dd0314c0f7b2291e5b200ac8c7c3b925\n        /* \"@openzeppelin/contracts/token/ERC20/ERC20.sol\":10358:10363  value */\n      dup5\n        /* \"@openzeppelin/contracts/token/ERC20/ERC20.sol\":10333:10364  Approval(owner, spender, value) */\n      mload(0x40)\n      tag_209\n      swap2\n        /* \"#utility.yul\":1342:1367   */\n      dup2\n      mstore\n        /* \"#utility.yul\":1330:1332   */\n      0x20\n        /* \"#utility.yul\":1315:1333   */\n      add\n      swap1\n        /* \"#utility.yul\":1196:1373   */\n      jump\n        /* \"@openzeppelin/contracts/token/ERC20/ERC20.sol\":10333:10364  Approval(owner, spender, value) */\n    tag_209:\n      mload(0x40)\n      dup1\n      swap2\n      sub\n      swap1\n      log3\n        /* \"@openzeppelin/contracts/token/ERC20/ERC20.sol\":9949:10381  function _approve(address owner, address spender, uint256 value, bool emitEvent) internal virtual {... */\n      pop\n      pop\n      pop\n      pop\n      jump\t// out\n        /* \"@openzeppelin/contracts/token/ERC20/ERC20.sol\":6271:7378  function _update(address from, address to, uint256 value) internal virtual {... */\n    tag_187:\n      sub(shl(0xa0, 0x01), 0x01)\n        /* \"@openzeppelin/contracts/token/ERC20/ERC20.sol\":6360:6378  from == address(0) */\n      dup4\n      and\n        /* \"@openzeppelin/contracts/token/ERC20/ERC20.sol\":6356:6896  if (from == address(0)) {... */\n      tag_211\n      jumpi\n        /* \"@openzeppelin/contracts/token/ERC20/ERC20.sol\":6512:6517  value */\n      dup1\n        /* \"@openzeppelin/contracts/token/ERC20/ERC20.sol\":6496:6508  _totalSupply */\n      0x02\n      0x00\n        /* \"@openzeppelin/contracts/token/ERC20/ERC20.sol\":6496:6517  _totalSupply += value */\n      dup3\n      dup3\n      sload\n      tag_212\n      swap2\n      swap1\n      tag_159\n      jump\t// in\n    tag_212:\n      swap1\n      swap2\n      sstore\n      pop\n        /* \"@openzeppelin/contracts/token/ERC20/ERC20.sol\":6356:6896  if (from == address(0)) {... */\n      tag_213\n      swap1\n      pop\n      jump\n    tag_211:\n      sub(shl(0xa0, 0x01), 0x01)\n        /* \"@openzeppelin/contracts/token/ERC20/ERC20.sol\":6570:6585  _balances[from] */\n      dup4\n      and\n        /* \"@openzeppelin/contracts/token/ERC20/ERC20.sol\":6548:6567  uint256 fromBalance */\n      0x00\n        /* \"@openzeppelin/contracts/token/ERC20/ERC20.sol\":6570:6585  _balances[from] */\n      swap1\n      dup2\n      mstore\n      0x20\n      dup2\n      swap1\n      mstore\n      0x40\n      swap1\n      keccak256\n      sload\n        /* \"@openzeppelin/contracts/token/ERC20/ERC20.sol\":6603:6622  fromBalance < value */\n      dup2\n      dup2\n      lt\n        /* \"@openzeppelin/contracts/token/ERC20/ERC20.sol\":6599:6714  if (fromBalance < value) {... */\n      iszero\n      tag_214\n      jumpi\n        /* \"@openzeppelin/contracts/token/ERC20/ERC20.sol\":6649:6699  ERC20InsufficientBalance(from, fromBalance, value) */\n      mload(0x40)\n      shl(0xe2, 0x391434e3)\n      dup2\n      mstore\n      sub(shl(0xa0, 0x01), 0x01)\n        /* \"#utility.yul\":5879:5911   */\n      dup6\n      and\n        /* \"@openzeppelin/contracts/token/ERC20/ERC20.sol\":6649:6699  ERC20InsufficientBalance(from, fromBalance, value) */\n      0x04\n      dup3\n      add\n        /* \"#utility.yul\":5861:5912   */\n      mstore\n        /* \"#utility.yul\":5928:5946   */\n      0x24\n      dup2\n      add\n        /* \"#utility.yul\":5921:5955   */\n      dup3\n      swap1\n      mstore\n        /* \"#utility.yul\":5971:5989   */\n      0x44\n      dup2\n      add\n        /* \"#utility.yul\":5964:5998   */\n      dup4\n      swap1\n      mstore\n        /* \"#utility.yul\":5834:5852   */\n      0x64\n      add\n        /* \"@openzeppelin/contracts/token/ERC20/ERC20.sol\":6649:6699  ERC20InsufficientBalance(from, fromBalance, value) */\n      tag_122\n        /* \"#utility.yul\":5659:6004   */\n      jump\n        /* \"@openzeppelin/contracts/token/ERC20/ERC20.sol\":6599:6714  if (fromBalance < value) {... */\n    tag_214:\n      sub(shl(0xa0, 0x01), 0x01)\n        /* \"@openzeppelin/contracts/token/ERC20/ERC20.sol\":6834:6849  _balances[from] */\n      dup5\n      and\n        /* \"@openzeppelin/contracts/token/ERC20/ERC20.sol\":6834:6843  _balances */\n      0x00\n        /* \"@openzeppelin/contracts/token/ERC20/ERC20.sol\":6834:6849  _balances[from] */\n      swap1\n      dup2\n      mstore\n      0x20\n      dup2\n      swap1\n      mstore\n      0x40\n      swap1\n      keccak256\n        /* \"@openzeppelin/contracts/token/ERC20/ERC20.sol\":6852:6871  fromBalance - value */\n      swap1\n      dup3\n      swap1\n      sub\n        /* \"@openzeppelin/contracts/token/ERC20/ERC20.sol\":6834:6871  _balances[from] = fromBalance - value */\n      swap1\n      sstore\n        /* \"@openzeppelin/contracts/token/ERC20/ERC20.sol\":6356:6896  if (from == address(0)) {... */\n    tag_213:\n      sub(shl(0xa0, 0x01), 0x01)\n        /* \"@openzeppelin/contracts/token/ERC20/ERC20.sol\":6910:6926  to == address(0) */\n      dup3\n      and\n        /* \"@openzeppelin/contracts/token/ERC20/ERC20.sol\":6906:7331  if (to == address(0)) {... */\n      tag_216\n      jumpi\n        /* \"@openzeppelin/contracts/token/ERC20/ERC20.sol\":7073:7085  _totalSupply */\n      0x02\n        /* \"@openzeppelin/contracts/token/ERC20/ERC20.sol\":7073:7094  _totalSupply -= value */\n      dup1\n      sload\n      dup3\n      swap1\n      sub\n      swap1\n      sstore\n        /* \"@openzeppelin/contracts/token/ERC20/ERC20.sol\":6906:7331  if (to == address(0)) {... */\n      jump(tag_217)\n    tag_216:\n      sub(shl(0xa0, 0x01), 0x01)\n        /* \"@openzeppelin/contracts/token/ERC20/ERC20.sol\":7284:7297  _balances[to] */\n      dup3\n      and\n        /* \"@openzeppelin/contracts/token/ERC20/ERC20.sol\":7284:7293  _balances */\n      0x00\n        /* \"@openzeppelin/contracts/token/ERC20/ERC20.sol\":7284:7297  _balances[to] */\n      swap1\n      dup2\n      mstore\n      0x20\n      dup2\n      swap1\n      mstore\n      0x40\n      swap1\n      keccak256\n        /* \"@openzeppelin/contracts/token/ERC20/ERC20.sol\":7284:7306  _balances[to] += value */\n      dup1\n      sload\n      dup3\n      add\n      swap1\n      sstore\n        /* \"@openzeppelin/contracts/token/ERC20/ERC20.sol\":6906:7331  if (to == address(0)) {... */\n    tag_217:\n        /* \"@openzeppelin/contracts/token/ERC20/ERC20.sol\":7361:7363  to */\n      dup2\n      sub(shl(0xa0, 0x01), 0x01)\n        /* \"@openzeppelin/contracts/token/ERC20/ERC20.sol\":7346:7371  Transfer(from, to, value) */\n      and\n        /* \"@openzeppelin/contracts/token/ERC20/ERC20.sol\":7355:7359  from */\n      dup4\n      sub(shl(0xa0, 0x01), 0x01)\n        /* \"@openzeppelin/contracts/token/ERC20/ERC20.sol\":7346:7371  Transfer(from, to, value) */\n      and\n      0xddf252ad1be2c89b69c2b068fc378daa952ba7f163c4a11628f55a4df523b3ef\n        /* \"@openzeppelin/contracts/token/ERC20/ERC20.sol\":7365:7370  value */\n      dup4\n        /* \"@openzeppelin/contracts/token/ERC20/ERC20.sol\":7346:7371  Transfer(from, to, value) */\n      mload(0x40)\n      tag_218\n      swap2\n        /* \"#utility.yul\":1342:1367   */\n      dup2\n      mstore\n        /* \"#utility.yul\":1330:1332   */\n      0x20\n        /* \"#utility.yul\":1315:1333   */\n      add\n      swap1\n        /* \"#utility.yul\":1196:1373   */\n      jump\n        /* \"@openzeppelin/contracts/token/ERC20/ERC20.sol\":7346:7371  Transfer(from, to, value) */\n    tag_218:\n      mload(0x40)\n      dup1\n      swap2\n      sub\n      swap1\n      log3\n        /* \"@openzeppelin/contracts/token/ERC20/ERC20.sol\":6271:7378  function _update(address from, address to, uint256 value) internal virtual {... */\n      pop\n      pop\n      pop\n      jump\t// out\n        /* \"#utility.yul\":14:562   */\n    tag_28:\n        /* \"#utility.yul\":126:130   */\n      0x00\n        /* \"#utility.yul\":155:157   */\n      0x20\n        /* \"#utility.yul\":184:186   */\n      dup1\n        /* \"#utility.yul\":173:182   */\n      dup4\n        /* \"#utility.yul\":166:187   */\n      mstore\n        /* \"#utility.yul\":216:222   */\n      dup4\n        /* \"#utility.yul\":210:223   */\n      mload\n        /* \"#utility.yul\":259:265   */\n      dup1\n        /* \"#utility.yul\":254:256   */\n      0x20\n        /* \"#utility.yul\":243:252   */\n      dup6\n        /* \"#utility.yul\":239:257   */\n      add\n        /* \"#utility.yul\":232:266   */\n      mstore\n        /* \"#utility.yul\":284:285   */\n      0x00\n        /* \"#utility.yul\":294:434   */\n    tag_225:\n        /* \"#utility.yul\":308:314   */\n      dup2\n        /* \"#utility.yul\":305:306   */\n      dup2\n        /* \"#utility.yul\":302:315   */\n      lt\n        /* \"#utility.yul\":294:434   */\n      iszero\n      tag_227\n      jumpi\n        /* \"#utility.yul\":403:417   */\n      dup6\n      dup2\n      add\n        /* \"#utility.yul\":399:422   */\n      dup4\n      add\n        /* \"#utility.yul\":393:423   */\n      mload\n        /* \"#utility.yul\":369:386   */\n      dup6\n      dup3\n      add\n        /* \"#utility.yul\":388:390   */\n      0x40\n        /* \"#utility.yul\":365:391   */\n      add\n        /* \"#utility.yul\":358:424   */\n      mstore\n        /* \"#utility.yul\":323:333   */\n      dup3\n      add\n        /* \"#utility.yul\":294:434   */\n      jump(tag_225)\n    tag_227:\n        /* \"#utility.yul\":298:301   */\n      pop\n        /* \"#utility.yul\":483:484   */\n      0x00\n        /* \"#utility.yul\":478:480   */\n      0x40\n        /* \"#utility.yul\":469:475   */\n      dup3\n        /* \"#utility.yul\":458:467   */\n      dup7\n        /* \"#utility.yul\":454:476   */\n      add\n        /* \"#utility.yul\":450:481   */\n      add\n        /* \"#utility.yul\":443:485   */\n      mstore\n        /* \"#utility.yul\":553:555   */\n      0x40\n        /* \"#utility.yul\":546:548   */\n      0x1f\n        /* \"#utility.yul\":542:549   */\n      not\n        /* \"#utility.yul\":537:539   */\n      0x1f\n        /* \"#utility.yul\":529:535   */\n      dup4\n        /* \"#utility.yul\":525:540   */\n      add\n        /* \"#utility.yul\":521:550   */\n      and\n        /* \"#utility.yul\":510:519   */\n      dup6\n        /* \"#utility.yul\":506:551   */\n      add\n        /* \"#utility.yul\":502:556   */\n      add\n        /* \"#utility.yul\":494:556   */\n      swap3\n      pop\n      pop\n      pop\n        /* \"#utility.yul\":14:562   */\n      swap3\n      swap2\n      pop\n      pop\n      jump\t// out\n        /* \"#utility.yul\":567:740   */\n    tag_219:\n        /* \"#utility.yul\":635:655   */\n      dup1\n      calldataload\n      sub(shl(0xa0, 0x01), 0x01)\n        /* \"#utility.yul\":684:715   */\n      dup2\n      and\n        /* \"#utility.yul\":674:716   */\n      dup2\n      eq\n        /* \"#utility.yul\":664:734   */\n      tag_229\n      jumpi\n        /* \"#utility.yul\":730:731   */\n      0x00\n        /* \"#utility.yul\":727:728   */\n      dup1\n        /* \"#utility.yul\":720:732   */\n      revert\n        /* \"#utility.yul\":664:734   */\n    tag_229:\n        /* \"#utility.yul\":567:740   */\n      swap2\n      swap1\n      pop\n      jump\t// out\n        /* \"#utility.yul\":745:999   */\n    tag_31:\n        /* \"#utility.yul\":813:819   */\n      0x00\n        /* \"#utility.yul\":821:827   */\n      dup1\n        /* \"#utility.yul\":874:876   */\n      0x40\n        /* \"#utility.yul\":862:871   */\n      dup4\n        /* \"#utility.yul\":853:860   */\n      dup6\n        /* \"#utility.yul\":849:872   */\n      sub\n        /* \"#utility.yul\":845:877   */\n      slt\n        /* \"#utility.yul\":842:894   */\n      iszero\n      tag_231\n      jumpi\n        /* \"#utility.yul\":890:891   */\n      0x00\n        /* \"#utility.yul\":887:888   */\n      dup1\n        /* \"#utility.yul\":880:892   */\n      revert\n        /* \"#utility.yul\":842:894   */\n    tag_231:\n        /* \"#utility.yul\":913:942   */\n      tag_232\n        /* \"#utility.yul\":932:941   */\n      dup4\n        /* \"#utility.yul\":913:942   */\n      tag_219\n      jump\t// in\n    tag_232:\n        /* \"#utility.yul\":903:942   */\n      swap5\n        /* \"#utility.yul\":989:991   */\n      0x20\n        /* \"#utility.yul\":974:992   */\n      swap4\n      swap1\n      swap4\n      add\n        /* \"#utility.yul\":961:993   */\n      calldataload\n      swap4\n      pop\n      pop\n      pop\n        /* \"#utility.yul\":745:999   */\n      jump\t// out\n        /* \"#utility.yul\":1378:1706   */\n    tag_41:\n        /* \"#utility.yul\":1455:1461   */\n      0x00\n        /* \"#utility.yul\":1463:1469   */\n      dup1\n        /* \"#utility.yul\":1471:1477   */\n      0x00\n        /* \"#utility.yul\":1524:1526   */\n      0x60\n        /* \"#utility.yul\":1512:1521   */\n      dup5\n        /* \"#utility.yul\":1503:1510   */\n      dup7\n        /* \"#utility.yul\":1499:1522   */\n      sub\n        /* \"#utility.yul\":1495:1527   */\n      slt\n        /* \"#utility.yul\":1492:1544   */\n      iszero\n      tag_236\n      jumpi\n        /* \"#utility.yul\":1540:1541   */\n      0x00\n        /* \"#utility.yul\":1537:1538   */\n      dup1\n        /* \"#utility.yul\":1530:1542   */\n      revert\n        /* \"#utility.yul\":1492:1544   */\n    tag_236:\n        /* \"#utility.yul\":1563:1592   */\n      tag_237\n        /* \"#utility.yul\":1582:1591   */\n      dup5\n        /* \"#utility.yul\":1563:1592   */\n      tag_219\n      jump\t// in\n    tag_237:\n        /* \"#utility.yul\":1553:1592   */\n      swap3\n      pop\n        /* \"#utility.yul\":1611:1649   */\n      tag_238\n        /* \"#utility.yul\":1645:1647   */\n      0x20\n        /* \"#utility.yul\":1634:1643   */\n      dup6\n        /* \"#utility.yul\":1630:1648   */\n      add\n        /* \"#utility.yul\":1611:1649   */\n      tag_219\n      jump\t// in\n    tag_238:\n        /* \"#utility.yul\":1601:1649   */\n      swap2\n      pop\n        /* \"#utility.yul\":1696:1698   */\n      0x40\n        /* \"#utility.yul\":1685:1694   */\n      dup5\n        /* \"#utility.yul\":1681:1699   */\n      add\n        /* \"#utility.yul\":1668:1700   */\n      calldataload\n        /* \"#utility.yul\":1658:1700   */\n      swap1\n      pop\n        /* \"#utility.yul\":1378:1706   */\n      swap3\n      pop\n      swap3\n      pop\n      swap3\n      jump\t// out\n        /* \"#utility.yul\":1900:2080   */\n    tag_56:\n        /* \"#utility.yul\":1959:1965   */\n      0x00\n        /* \"#utility.yul\":2012:2014   */\n      0x20\n        /* \"#utility.yul\":2000:2009   */\n      dup3\n        /* \"#utility.yul\":1991:1998   */\n      dup5\n        /* \"#utility.yul\":1987:2010   */\n      sub\n        /* \"#utility.yul\":1983:2015   */\n      slt\n        /* \"#utility.yul\":1980:2032   */\n      iszero\n      tag_241\n      jumpi\n        /* \"#utility.yul\":2028:2029   */\n      0x00\n        /* \"#utility.yul\":2025:2026   */\n      dup1\n        /* \"#utility.yul\":2018:2030   */\n      revert\n        /* \"#utility.yul\":1980:2032   */\n    tag_241:\n      pop\n        /* \"#utility.yul\":2051:2074   */\n      calldataload\n      swap2\n        /* \"#utility.yul\":1900:2080   */\n      swap1\n      pop\n      jump\t// out\n        /* \"#utility.yul\":2085:2271   */\n    tag_60:\n        /* \"#utility.yul\":2144:2150   */\n      0x00\n        /* \"#utility.yul\":2197:2199   */\n      0x20\n        /* \"#utility.yul\":2185:2194   */\n      dup3\n        /* \"#utility.yul\":2176:2183   */\n      dup5\n        /* \"#utility.yul\":2172:2195   */\n      sub\n        /* \"#utility.yul\":2168:2200   */\n      slt\n        /* \"#utility.yul\":2165:2217   */\n      iszero\n      tag_243\n      jumpi\n        /* \"#utility.yul\":2213:2214   */\n      0x00\n        /* \"#utility.yul\":2210:2211   */\n      dup1\n        /* \"#utility.yul\":2203:2215   */\n      revert\n        /* \"#utility.yul\":2165:2217   */\n    tag_243:\n        /* \"#utility.yul\":2236:2265   */\n      tag_244\n        /* \"#utility.yul\":2255:2264   */\n      dup3\n        /* \"#utility.yul\":2236:2265   */\n      tag_219\n      jump\t// in\n    tag_244:\n        /* \"#utility.yul\":2226:2265   */\n      swap4\n        /* \"#utility.yul\":2085:2271   */\n      swap3\n      pop\n      pop\n      pop\n      jump\t// out\n        /* \"#utility.yul\":2484:2744   */\n    tag_81:\n        /* \"#utility.yul\":2552:2558   */\n      0x00\n        /* \"#utility.yul\":2560:2566   */\n      dup1\n        /* \"#utility.yul\":2613:2615   */\n      0x40\n        /* \"#utility.yul\":2601:2610   */\n      dup4\n        /* \"#utility.yul\":2592:2599   */\n      dup6\n        /* \"#utility.yul\":2588:2611   */\n      sub\n        /* \"#utility.yul\":2584:2616   */\n      slt\n        /* \"#utility.yul\":2581:2633   */\n      iszero\n      tag_247\n      jumpi\n        /* \"#utility.yul\":2629:2630   */\n      0x00\n        /* \"#utility.yul\":2626:2627   */\n      dup1\n        /* \"#utility.yul\":2619:2631   */\n      revert\n        /* \"#utility.yul\":2581:2633   */\n    tag_247:\n        /* \"#utility.yul\":2652:2681   */\n      tag_248\n        /* \"#utility.yul\":2671:2680   */\n      dup4\n        /* \"#utility.yul\":2652:2681   */\n      tag_219\n      jump\t// in\n    tag_248:\n        /* \"#utility.yul\":2642:2681   */\n      swap2\n      pop\n        /* \"#utility.yul\":2700:2738   */\n      tag_249\n        /* \"#utility.yul\":2734:2736   */\n      0x20\n        /* \"#utility.yul\":2723:2732   */\n      dup5\n        /* \"#utility.yul\":2719:2737   */\n      add\n        /* \"#utility.yul\":2700:2738   */\n      tag_219\n      jump\t// in\n    tag_249:\n        /* \"#utility.yul\":2690:2738   */\n      swap1\n      pop\n        /* \"#utility.yul\":2484:2744   */\n      swap3\n      pop\n      swap3\n      swap1\n      pop\n      jump\t// out\n        /* \"#utility.yul\":2749:3129   */\n    tag_99:\n        /* \"#utility.yul\":2828:2829   */\n      0x01\n        /* \"#utility.yul\":2824:2836   */\n      dup2\n      dup2\n      shr\n      swap1\n        /* \"#utility.yul\":2871:2883   */\n      dup3\n      and\n      dup1\n        /* \"#utility.yul\":2892:2953   */\n      tag_251\n      jumpi\n        /* \"#utility.yul\":2946:2950   */\n      0x7f\n        /* \"#utility.yul\":2938:2944   */\n      dup3\n        /* \"#utility.yul\":2934:2951   */\n      and\n        /* \"#utility.yul\":2924:2951   */\n      swap2\n      pop\n        /* \"#utility.yul\":2892:2953   */\n    tag_251:\n        /* \"#utility.yul\":2999:3001   */\n      0x20\n        /* \"#utility.yul\":2991:2997   */\n      dup3\n        /* \"#utility.yul\":2988:3002   */\n      lt\n        /* \"#utility.yul\":2968:2986   */\n      dup2\n        /* \"#utility.yul\":2965:3003   */\n      sub\n        /* \"#utility.yul\":2962:3123   */\n      tag_252\n      jumpi\n        /* \"#utility.yul\":3045:3055   */\n      0x4e487b71\n        /* \"#utility.yul\":3040:3043   */\n      0xe0\n        /* \"#utility.yul\":3036:3056   */\n      shl\n        /* \"#utility.yul\":3033:3034   */\n      0x00\n        /* \"#utility.yul\":3026:3057   */\n      mstore\n        /* \"#utility.yul\":3080:3084   */\n      0x22\n        /* \"#utility.yul\":3077:3078   */\n      0x04\n        /* \"#utility.yul\":3070:3085   */\n      mstore\n        /* \"#utility.yul\":3108:3112   */\n      0x24\n        /* \"#utility.yul\":3105:3106   */\n      0x00\n        /* \"#utility.yul\":3098:3113   */\n      revert\n        /* \"#utility.yul\":2962:3123   */\n    tag_252:\n      pop\n        /* \"#utility.yul\":2749:3129   */\n      swap2\n      swap1\n      pop\n      jump\t// out\n        /* \"#utility.yul\":3492:3619   */\n    tag_220:\n        /* \"#utility.yul\":3553:3563   */\n      0x4e487b71\n        /* \"#utility.yul\":3548:3551   */\n      0xe0\n        /* \"#utility.yul\":3544:3564   */\n      shl\n        /* \"#utility.yul\":3541:3542   */\n      0x00\n        /* \"#utility.yul\":3534:3565   */\n      mstore\n        /* \"#utility.yul\":3584:3588   */\n      0x11\n        /* \"#utility.yul\":3581:3582   */\n      0x04\n        /* \"#utility.yul\":3574:3589   */\n      mstore\n        /* \"#utility.yul\":3608:3612   */\n      0x24\n        /* \"#utility.yul\":3605:3606   */\n      0x00\n        /* \"#utility.yul\":3598:3613   */\n      revert\n        /* \"#utility.yul\":3624:4040   */\n    tag_221:\n        /* \"#utility.yul\":3713:3714   */\n      0x01\n        /* \"#utility.yul\":3750:3755   */\n      dup2\n        /* \"#utility.yul\":3713:3714   */\n      dup2\n        /* \"#utility.yul\":3764:4034   */\n    tag_256:\n        /* \"#utility.yul\":3785:3792   */\n      dup1\n        /* \"#utility.yul\":3775:3783   */\n      dup6\n        /* \"#utility.yul\":3772:3793   */\n      gt\n        /* \"#utility.yul\":3764:4034   */\n      iszero\n      tag_258\n      jumpi\n        /* \"#utility.yul\":3844:3848   */\n      dup2\n        /* \"#utility.yul\":3840:3841   */\n      0x00\n        /* \"#utility.yul\":3836:3842   */\n      not\n        /* \"#utility.yul\":3832:3849   */\n      div\n        /* \"#utility.yul\":3826:3830   */\n      dup3\n        /* \"#utility.yul\":3823:3850   */\n      gt\n        /* \"#utility.yul\":3820:3873   */\n      iszero\n      tag_260\n      jumpi\n        /* \"#utility.yul\":3853:3871   */\n      tag_260\n      tag_220\n      jump\t// in\n    tag_260:\n        /* \"#utility.yul\":3903:3910   */\n      dup1\n        /* \"#utility.yul\":3893:3901   */\n      dup6\n        /* \"#utility.yul\":3889:3911   */\n      and\n        /* \"#utility.yul\":3886:3941   */\n      iszero\n      tag_261\n      jumpi\n        /* \"#utility.yul\":3923:3939   */\n      swap2\n      dup2\n      mul\n      swap2\n        /* \"#utility.yul\":3886:3941   */\n    tag_261:\n        /* \"#utility.yul\":4002:4024   */\n      swap4\n      dup5\n      shr\n      swap4\n        /* \"#utility.yul\":3962:3977   */\n      swap1\n      dup1\n      mul\n      swap1\n        /* \"#utility.yul\":3764:4034   */\n      jump(tag_256)\n    tag_258:\n        /* \"#utility.yul\":3768:3771   */\n      pop\n        /* \"#utility.yul\":3624:4040   */\n      swap3\n      pop\n      swap3\n      swap1\n      pop\n      jump\t// out\n        /* \"#utility.yul\":4045:4851   */\n    tag_222:\n        /* \"#utility.yul\":4094:4099   */\n      0x00\n        /* \"#utility.yul\":4124:4132   */\n      dup3\n        /* \"#utility.yul\":4114:4194   */\n      tag_263\n      jumpi\n      pop\n        /* \"#utility.yul\":4165:4166   */\n      0x01\n        /* \"#utility.yul\":4179:4184   */\n      jump(tag_104)\n        /* \"#utility.yul\":4114:4194   */\n    tag_263:\n        /* \"#utility.yul\":4213:4217   */\n      dup2\n        /* \"#utility.yul\":4203:4279   */\n      tag_264\n      jumpi\n      pop\n        /* \"#utility.yul\":4250:4251   */\n      0x00\n        /* \"#utility.yul\":4264:4269   */\n      jump(tag_104)\n        /* \"#utility.yul\":4203:4279   */\n    tag_264:\n        /* \"#utility.yul\":4295:4299   */\n      dup2\n        /* \"#utility.yul\":4313:4314   */\n      0x01\n        /* \"#utility.yul\":4308:4367   */\n      dup2\n      eq\n      tag_266\n      jumpi\n        /* \"#utility.yul\":4381:4382   */\n      0x02\n        /* \"#utility.yul\":4376:4506   */\n      dup2\n      eq\n      tag_267\n      jumpi\n        /* \"#utility.yul\":4288:4506   */\n      jump(tag_265)\n        /* \"#utility.yul\":4308:4367   */\n    tag_266:\n        /* \"#utility.yul\":4338:4339   */\n      0x01\n        /* \"#utility.yul\":4329:4339   */\n      swap2\n      pop\n        /* \"#utility.yul\":4352:4357   */\n      pop\n      jump(tag_104)\n        /* \"#utility.yul\":4376:4506   */\n    tag_267:\n        /* \"#utility.yul\":4413:4416   */\n      0xff\n        /* \"#utility.yul\":4403:4411   */\n      dup5\n        /* \"#utility.yul\":4400:4417   */\n      gt\n        /* \"#utility.yul\":4397:4440   */\n      iszero\n      tag_269\n      jumpi\n        /* \"#utility.yul\":4420:4438   */\n      tag_269\n      tag_220\n      jump\t// in\n    tag_269:\n      pop\n      pop\n        /* \"#utility.yul\":4476:4477   */\n      0x01\n        /* \"#utility.yul\":4462:4478   */\n      dup3\n      shl\n        /* \"#utility.yul\":4491:4496   */\n      jump(tag_104)\n        /* \"#utility.yul\":4288:4506   */\n    tag_265:\n      pop\n        /* \"#utility.yul\":4590:4592   */\n      0x20\n        /* \"#utility.yul\":4580:4588   */\n      dup4\n        /* \"#utility.yul\":4577:4593   */\n      lt\n        /* \"#utility.yul\":4571:4574   */\n      0x0133\n        /* \"#utility.yul\":4565:4569   */\n      dup4\n        /* \"#utility.yul\":4562:4575   */\n      lt\n        /* \"#utility.yul\":4558:4594   */\n      and\n        /* \"#utility.yul\":4552:4554   */\n      0x4e\n        /* \"#utility.yul\":4542:4550   */\n      dup5\n        /* \"#utility.yul\":4539:4555   */\n      lt\n        /* \"#utility.yul\":4534:4536   */\n      0x0b\n        /* \"#utility.yul\":4528:4532   */\n      dup5\n        /* \"#utility.yul\":4525:4537   */\n      lt\n        /* \"#utility.yul\":4521:4556   */\n      and\n        /* \"#utility.yul\":4518:4595   */\n      or\n        /* \"#utility.yul\":4515:4674   */\n      iszero\n      tag_270\n      jumpi\n      pop\n        /* \"#utility.yul\":4627:4646   */\n      dup2\n      dup2\n      exp\n        /* \"#utility.yul\":4659:4664   */\n      jump(tag_104)\n        /* \"#utility.yul\":4515:4674   */\n    tag_270:\n        /* \"#utility.yul\":4706:4740   */\n      tag_271\n        /* \"#utility.yul\":4731:4739   */\n      dup4\n        /* \"#utility.yul\":4725:4729   */\n      dup4\n        /* \"#utility.yul\":4706:4740   */\n      tag_221\n      jump\t// in\n    tag_271:\n        /* \"#utility.yul\":4776:4782   */\n      dup1\n        /* \"#utility.yul\":4772:4773   */\n      0x00\n        /* \"#utility.yul\":4768:4774   */\n      not\n        /* \"#utility.yul\":4764:4783   */\n      div\n        /* \"#utility.yul\":4755:4762   */\n      dup3\n        /* \"#utility.yul\":4752:4784   */\n      gt\n        /* \"#utility.yul\":4749:4807   */\n      iszero\n      tag_273\n      jumpi\n        /* \"#utility.yul\":4787:4805   */\n      tag_273\n      tag_220\n      jump\t// in\n    tag_273:\n        /* \"#utility.yul\":4825:4845   */\n      mul\n      swap4\n        /* \"#utility.yul\":4045:4851   */\n      swap3\n      pop\n      pop\n      pop\n      jump\t// out\n        /* \"#utility.yul\":4856:4996   */\n    tag_127:\n        /* \"#utility.yul\":4914:4919   */\n      0x00\n        /* \"#utility.yul\":4943:4990   */\n      tag_244\n        /* \"#utility.yul\":4984:4988   */\n      0xff\n        /* \"#utility.yul\":4974:4982   */\n      dup5\n        /* \"#utility.yul\":4970:4989   */\n      and\n        /* \"#utility.yul\":4964:4968   */\n      dup4\n        /* \"#utility.yul\":4943:4990   */\n      tag_222\n      jump\t// in\n        /* \"#utility.yul\":5001:5169   */\n    tag_129:\n        /* \"#utility.yul\":5074:5083   */\n      dup1\n      dup3\n      mul\n        /* \"#utility.yul\":5105:5114   */\n      dup2\n      iszero\n        /* \"#utility.yul\":5122:5137   */\n      dup3\n      dup3\n      div\n        /* \"#utility.yul\":5116:5138   */\n      dup5\n      eq\n        /* \"#utility.yul\":5102:5139   */\n      or\n        /* \"#utility.yul\":5092:5163   */\n      tag_104\n      jumpi\n        /* \"#utility.yul\":5143:5161   */\n      tag_104\n      tag_220\n      jump\t// in\n        /* \"#utility.yul\":5174:5391   */\n    tag_155:\n        /* \"#utility.yul\":5214:5215   */\n      0x00\n        /* \"#utility.yul\":5240:5241   */\n      dup3\n        /* \"#utility.yul\":5230:5362   */\n      tag_280\n      jumpi\n        /* \"#utility.yul\":5284:5294   */\n      0x4e487b71\n        /* \"#utility.yul\":5279:5282   */\n      0xe0\n        /* \"#utility.yul\":5275:5295   */\n      shl\n        /* \"#utility.yul\":5272:5273   */\n      0x00\n        /* \"#utility.yul\":5265:5296   */\n      mstore\n        /* \"#utility.yul\":5319:5323   */\n      0x12\n        /* \"#utility.yul\":5316:5317   */\n      0x04\n        /* \"#utility.yul\":5309:5324   */\n      mstore\n        /* \"#utility.yul\":5347:5351   */\n      0x24\n        /* \"#utility.yul\":5344:5345   */\n      0x00\n        /* \"#utility.yul\":5337:5352   */\n      revert\n        /* \"#utility.yul\":5230:5362   */\n    tag_280:\n      pop\n        /* \"#utility.yul\":5376:5385   */\n      div\n      swap1\n        /* \"#utility.yul\":5174:5391   */\n      jump\t// out\n        /* \"#utility.yul\":5396:5524   */\n    tag_157:\n        /* \"#utility.yul\":5463:5472   */\n      dup2\n      dup2\n      sub\n        /* \"#utility.yul\":5484:5495   */\n      dup2\n      dup2\n      gt\n        /* \"#utility.yul\":5481:5518   */\n      iszero\n      tag_104\n      jumpi\n        /* \"#utility.yul\":5498:5516   */\n      tag_104\n      tag_220\n      jump\t// in\n        /* \"#utility.yul\":5529:5654   */\n    tag_159:\n        /* \"#utility.yul\":5594:5603   */\n      dup1\n      dup3\n      add\n        /* \"#utility.yul\":5615:5625   */\n      dup1\n      dup3\n      gt\n        /* \"#utility.yul\":5612:5648   */\n      iszero\n      tag_104\n      jumpi\n        /* \"#utility.yul\":5628:5646   */\n      tag_104\n      tag_220\n      jump\t// in\n\n    auxdata: 0xa26469706673582212202a5d66c70ce3c1a34848d9463726f75dab1baa01aa69d0c46537e45e9ef9c88164736f6c63430008170033\n}\n",
				"bytecode": {
					"linkReferences": {},
					"object": "608060405234801562000010575f80fd5b506040516200122a3803806200122a8339810160408190526200003391620002fd565b826040518060400160405280600c81526020016b26bca334b939ba2a37b5b2b760a11b815250604051806040016040528060048152602001634d4e544b60e01b8152508160039081620000879190620003d9565b506004620000968282620003d9565b5050506001600160a01b038116620000c857604051631e4fbdf760e01b81525f60048201526024015b60405180910390fd5b620000d38162000125565b50600680546001600160a01b0319166001600160a01b0383161790556200011c83620000fd600990565b6200010a90600a620005b4565b620001169085620005cb565b62000176565b505050620005fb565b600580546001600160a01b038381166001600160a01b0319831681179093556040519116919082907f8be0079c531659141344cd1fd0a4f28419497f9722a3daafe3b4186f6b6457e0905f90a35050565b6001600160a01b038216620001a15760405163ec442f0560e01b81525f6004820152602401620000bf565b620001ae5f8383620001b2565b5050565b6001600160a01b038316620001e0578060025f828254620001d49190620005e5565b90915550620002529050565b6001600160a01b0383165f9081526020819052604090205481811015620002345760405163391434e360e21b81526001600160a01b03851660048201526024810182905260448101839052606401620000bf565b6001600160a01b0384165f9081526020819052604090209082900390555b6001600160a01b03821662000270576002805482900390556200028e565b6001600160a01b0382165f9081526020819052604090208054820190555b816001600160a01b0316836001600160a01b03167fddf252ad1be2c89b69c2b068fc378daa952ba7f163c4a11628f55a4df523b3ef83604051620002d491815260200190565b60405180910390a3505050565b80516001600160a01b0381168114620002f8575f80fd5b919050565b5f805f6060848603121562000310575f80fd5b6200031b84620002e1565b9250602084015191506200033260408501620002e1565b90509250925092565b634e487b7160e01b5f52604160045260245ffd5b600181811c908216806200036457607f821691505b6020821081036200038357634e487b7160e01b5f52602260045260245ffd5b50919050565b601f821115620003d457805f5260205f20601f840160051c81016020851015620003b05750805b601f840160051c820191505b81811015620003d1575f8155600101620003bc565b50505b505050565b81516001600160401b03811115620003f557620003f56200033b565b6200040d816200040684546200034f565b8462000389565b602080601f83116001811462000443575f84156200042b5750858301515b5f19600386901b1c1916600185901b1785556200049d565b5f85815260208120601f198616915b82811015620004735788860151825594840194600190910190840162000452565b50858210156200049157878501515f19600388901b60f8161c191681555b505060018460011b0185555b505050505050565b634e487b7160e01b5f52601160045260245ffd5b600181815b80851115620004f957815f1904821115620004dd57620004dd620004a5565b80851615620004eb57918102915b93841c9390800290620004be565b509250929050565b5f826200051157506001620005ae565b816200051f57505f620005ae565b8160018114620005385760028114620005435762000563565b6001915050620005ae565b60ff841115620005575762000557620004a5565b50506001821b620005ae565b5060208310610133831016604e8410600b841016171562000588575081810a620005ae565b620005948383620004b9565b805f1904821115620005aa57620005aa620004a5565b0290505b92915050565b5f620005c460ff84168362000501565b9392505050565b8082028115828204841417620005ae57620005ae620004a5565b80820180821115620005ae57620005ae620004a5565b610c2180620006095f395ff3fe608060405234801561000f575f80fd5b506004361061011c575f3560e01c8063715018a6116100a9578063ac3c93cf1161006e578063ac3c93cf14610249578063bea1dcf814610273578063dd62ed3e14610286578063ee33bc45146102be578063f2fde38b146102c7575f80fd5b8063715018a6146101ee57806379cc6790146101f65780638da5cb5b1461020957806395d89b411461022e578063a9059cbb14610236575f80fd5b80632d44ff23116100ef5780632d44ff2314610186578063313ce5671461018f57806340c10f191461019e57806342966c68146101b357806370a08231146101c6575f80fd5b806306fdde0314610120578063095ea7b31461013e57806318160ddd1461016157806323b872dd14610173575b5f80fd5b6101286102da565b6040516101359190610925565b60405180910390f35b61015161014c36600461098c565b61036a565b6040519015158152602001610135565b6002545b604051908152602001610135565b6101516101813660046109b4565b610383565b61016560075481565b60405160098152602001610135565b6101b16101ac36600461098c565b6103a6565b005b6101b16101c13660046109ed565b61042e565b6101656101d4366004610a04565b6001600160a01b03165f9081526020819052604090205490565b6101b161043b565b6101b161020436600461098c565b61044e565b6005546001600160a01b03165b6040516001600160a01b039091168152602001610135565b610128610463565b61015161024436600461098c565b610472565b610165610257366004610a24565b600960209081525f928352604080842090915290825290205481565b600654610216906001600160a01b031681565b610165610294366004610a24565b6001600160a01b039182165f90815260016020908152604080832093909416825291909152205490565b61016560085481565b6101b16102d5366004610a04565b610523565b6060600380546102e990610a55565b80601f016020809104026020016040519081016040528092919081815260200182805461031590610a55565b80156103605780601f1061033757610100808354040283529160200191610360565b820191905f5260205f20905b81548152906001019060200180831161034357829003601f168201915b5050505050905090565b5f3361037781858561055d565b60019150505b92915050565b5f3361039085828561056f565b61039b8585856105ea565b506001949350505050565b6103ae610647565b6001600160a01b038216331461040b5760405162461bcd60e51b815260206004820152601d60248201527f4d696e74696e6720616c6c6f776564206f6e6c7920746f206f776e657200000060448201526064015b60405180910390fd5b61042a8261041b6009600a610b81565b6104259084610b8f565b610674565b5050565b61043833826106a8565b50565b610443610647565b61044c5f6106dc565b565b61045982338361056f565b61042a82826106a8565b6060600480546102e990610a55565b5f6064610480836005610b8f565b61048a9190610ba6565b60078190555f9061049b9084610bc5565b90506007546008546104ad9190610bd8565b6008556006546007546001600160a01b03909116906104cf90339083906105ea565b6104da3386846105ea565b6007546001600160a01b038083165f908152600960209081526040808320938a1683529290529081208054909190610513908490610bd8565b9091555060019695505050505050565b61052b610647565b6001600160a01b03811661055457604051631e4fbdf760e01b81525f6004820152602401610402565b610438816106dc565b61056a838383600161072d565b505050565b6001600160a01b038381165f908152600160209081526040808320938616835292905220545f1981146105e457818110156105d657604051637dc7a0d960e11b81526001600160a01b03841660048201526024810182905260448101839052606401610402565b6105e484848484035f61072d565b50505050565b6001600160a01b03831661061357604051634b637e8f60e11b81525f6004820152602401610402565b6001600160a01b03821661063c5760405163ec442f0560e01b81525f6004820152602401610402565b61056a8383836107ff565b6005546001600160a01b0316331461044c5760405163118cdaa760e01b8152336004820152602401610402565b6001600160a01b03821661069d5760405163ec442f0560e01b81525f6004820152602401610402565b61042a5f83836107ff565b6001600160a01b0382166106d157604051634b637e8f60e11b81525f6004820152602401610402565b61042a825f836107ff565b600580546001600160a01b038381166001600160a01b0319831681179093556040519116919082907f8be0079c531659141344cd1fd0a4f28419497f9722a3daafe3b4186f6b6457e0905f90a35050565b6001600160a01b0384166107565760405163e602df0560e01b81525f6004820152602401610402565b6001600160a01b03831661077f57604051634a1406b160e11b81525f6004820152602401610402565b6001600160a01b038085165f90815260016020908152604080832093871683529290522082905580156105e457826001600160a01b0316846001600160a01b03167f8c5be1e5ebec7d5bd14f71427d1e84f3dd0314c0f7b2291e5b200ac8c7c3b925846040516107f191815260200190565b60405180910390a350505050565b6001600160a01b038316610829578060025f82825461081e9190610bd8565b909155506108999050565b6001600160a01b0383165f908152602081905260409020548181101561087b5760405163391434e360e21b81526001600160a01b03851660048201526024810182905260448101839052606401610402565b6001600160a01b0384165f9081526020819052604090209082900390555b6001600160a01b0382166108b5576002805482900390556108d3565b6001600160a01b0382165f9081526020819052604090208054820190555b816001600160a01b0316836001600160a01b03167fddf252ad1be2c89b69c2b068fc378daa952ba7f163c4a11628f55a4df523b3ef8360405161091891815260200190565b60405180910390a3505050565b5f602080835283518060208501525f5b8181101561095157858101830151858201604001528201610935565b505f604082860101526040601f19601f8301168501019250505092915050565b80356001600160a01b0381168114610987575f80fd5b919050565b5f806040838503121561099d575f80fd5b6109a683610971565b946020939093013593505050565b5f805f606084860312156109c6575f80fd5b6109cf84610971565b92506109dd60208501610971565b9150604084013590509250925092565b5f602082840312156109fd575f80fd5b5035919050565b5f60208284031215610a14575f80fd5b610a1d82610971565b9392505050565b5f8060408385031215610a35575f80fd5b610a3e83610971565b9150610a4c60208401610971565b90509250929050565b600181811c90821680610a6957607f821691505b602082108103610a8757634e487b7160e01b5f52602260045260245ffd5b50919050565b634e487b7160e01b5f52601160045260245ffd5b600181815b80851115610adb57815f1904821115610ac157610ac1610a8d565b80851615610ace57918102915b93841c9390800290610aa6565b509250929050565b5f82610af15750600161037d565b81610afd57505f61037d565b8160018114610b135760028114610b1d57610b39565b600191505061037d565b60ff841115610b2e57610b2e610a8d565b50506001821b61037d565b5060208310610133831016604e8410600b8410161715610b5c575081810a61037d565b610b668383610aa1565b805f1904821115610b7957610b79610a8d565b029392505050565b5f610a1d60ff841683610ae3565b808202811582820484141761037d5761037d610a8d565b5f82610bc057634e487b7160e01b5f52601260045260245ffd5b500490565b8181038181111561037d5761037d610a8d565b8082018082111561037d5761037d610a8d56fea26469706673582212202a5d66c70ce3c1a34848d9463726f75dab1baa01aa69d0c46537e45e9ef9c88164736f6c63430008170033",
					"opcodes": "PUSH1 0x80 PUSH1 0x40 MSTORE CALLVALUE DUP1 ISZERO PUSH3 0x10 JUMPI PUSH0 DUP1 REVERT JUMPDEST POP PUSH1 0x40 MLOAD PUSH3 0x122A CODESIZE SUB DUP1 PUSH3 0x122A DUP4 CODECOPY DUP2 ADD PUSH1 0x40 DUP2 SWAP1 MSTORE PUSH3 0x33 SWAP2 PUSH3 0x2FD JUMP JUMPDEST DUP3 PUSH1 0x40 MLOAD DUP1 PUSH1 0x40 ADD PUSH1 0x40 MSTORE DUP1 PUSH1 0xC DUP2 MSTORE PUSH1 0x20 ADD PUSH12 0x26BCA334B939BA2A37B5B2B7 PUSH1 0xA1 SHL DUP2 MSTORE POP PUSH1 0x40 MLOAD DUP1 PUSH1 0x40 ADD PUSH1 0x40 MSTORE DUP1 PUSH1 0x4 DUP2 MSTORE PUSH1 0x20 ADD PUSH4 0x4D4E544B PUSH1 0xE0 SHL DUP2 MSTORE POP DUP2 PUSH1 0x3 SWAP1 DUP2 PUSH3 0x87 SWAP2 SWAP1 PUSH3 0x3D9 JUMP JUMPDEST POP PUSH1 0x4 PUSH3 0x96 DUP3 DUP3 PUSH3 0x3D9 JUMP JUMPDEST POP POP POP PUSH1 0x1 PUSH1 0x1 PUSH1 0xA0 SHL SUB DUP2 AND PUSH3 0xC8 JUMPI PUSH1 0x40 MLOAD PUSH4 0x1E4FBDF7 PUSH1 0xE0 SHL DUP2 MSTORE PUSH0 PUSH1 0x4 DUP3 ADD MSTORE PUSH1 0x24 ADD JUMPDEST PUSH1 0x40 MLOAD DUP1 SWAP2 SUB SWAP1 REVERT JUMPDEST PUSH3 0xD3 DUP2 PUSH3 0x125 JUMP JUMPDEST POP PUSH1 0x6 DUP1 SLOAD PUSH1 0x1 PUSH1 0x1 PUSH1 0xA0 SHL SUB NOT AND PUSH1 0x1 PUSH1 0x1 PUSH1 0xA0 SHL SUB DUP4 AND OR SWAP1 SSTORE PUSH3 0x11C DUP4 PUSH3 0xFD PUSH1 0x9 SWAP1 JUMP JUMPDEST PUSH3 0x10A SWAP1 PUSH1 0xA PUSH3 0x5B4 JUMP JUMPDEST PUSH3 0x116 SWAP1 DUP6 PUSH3 0x5CB JUMP JUMPDEST PUSH3 0x176 JUMP JUMPDEST POP POP POP PUSH3 0x5FB JUMP JUMPDEST PUSH1 0x5 DUP1 SLOAD PUSH1 0x1 PUSH1 0x1 PUSH1 0xA0 SHL SUB DUP4 DUP2 AND PUSH1 0x1 PUSH1 0x1 PUSH1 0xA0 SHL SUB NOT DUP4 AND DUP2 OR SWAP1 SWAP4 SSTORE PUSH1 0x40 MLOAD SWAP2 AND SWAP2 SWAP1 DUP3 SWAP1 PUSH32 0x8BE0079C531659141344CD1FD0A4F28419497F9722A3DAAFE3B4186F6B6457E0 SWAP1 PUSH0 SWAP1 LOG3 POP POP JUMP JUMPDEST PUSH1 0x1 PUSH1 0x1 PUSH1 0xA0 SHL SUB DUP3 AND PUSH3 0x1A1 JUMPI PUSH1 0x40 MLOAD PUSH4 0xEC442F05 PUSH1 0xE0 SHL DUP2 MSTORE PUSH0 PUSH1 0x4 DUP3 ADD MSTORE PUSH1 0x24 ADD PUSH3 0xBF JUMP JUMPDEST PUSH3 0x1AE PUSH0 DUP4 DUP4 PUSH3 0x1B2 JUMP JUMPDEST POP POP JUMP JUMPDEST PUSH1 0x1 PUSH1 0x1 PUSH1 0xA0 SHL SUB DUP4 AND PUSH3 0x1E0 JUMPI DUP1 PUSH1 0x2 PUSH0 DUP3 DUP3 SLOAD PUSH3 0x1D4 SWAP2 SWAP1 PUSH3 0x5E5 JUMP JUMPDEST SWAP1 SWAP2 SSTORE POP PUSH3 0x252 SWAP1 POP JUMP JUMPDEST PUSH1 0x1 PUSH1 0x1 PUSH1 0xA0 SHL SUB DUP4 AND PUSH0 SWAP1 DUP2 MSTORE PUSH1 0x20 DUP2 SWAP1 MSTORE PUSH1 0x40 SWAP1 KECCAK256 SLOAD DUP2 DUP2 LT ISZERO PUSH3 0x234 JUMPI PUSH1 0x40 MLOAD PUSH4 0x391434E3 PUSH1 0xE2 SHL DUP2 MSTORE PUSH1 0x1 PUSH1 0x1 PUSH1 0xA0 SHL SUB DUP6 AND PUSH1 0x4 DUP3 ADD MSTORE PUSH1 0x24 DUP2 ADD DUP3 SWAP1 MSTORE PUSH1 0x44 DUP2 ADD DUP4 SWAP1 MSTORE PUSH1 0x64 ADD PUSH3 0xBF JUMP JUMPDEST PUSH1 0x1 PUSH1 0x1 PUSH1 0xA0 SHL SUB DUP5 AND PUSH0 SWAP1 DUP2 MSTORE PUSH1 0x20 DUP2 SWAP1 MSTORE PUSH1 0x40 SWAP1 KECCAK256 SWAP1 DUP3 SWAP1 SUB SWAP1 SSTORE JUMPDEST PUSH1 0x1 PUSH1 0x1 PUSH1 0xA0 SHL SUB DUP3 AND PUSH3 0x270 JUMPI PUSH1 0x2 DUP1 SLOAD DUP3 SWAP1 SUB SWAP1 SSTORE PUSH3 0x28E JUMP JUMPDEST PUSH1 0x1 PUSH1 0x1 PUSH1 0xA0 SHL SUB DUP3 AND PUSH0 SWAP1 DUP2 MSTORE PUSH1 0x20 DUP2 SWAP1 MSTORE PUSH1 0x40 SWAP1 KECCAK256 DUP1 SLOAD DUP3 ADD SWAP1 SSTORE JUMPDEST DUP2 PUSH1 0x1 PUSH1 0x1 PUSH1 0xA0 SHL SUB AND DUP4 PUSH1 0x1 PUSH1 0x1 PUSH1 0xA0 SHL SUB AND PUSH32 0xDDF252AD1BE2C89B69C2B068FC378DAA952BA7F163C4A11628F55A4DF523B3EF DUP4 PUSH1 0x40 MLOAD PUSH3 0x2D4 SWAP2 DUP2 MSTORE PUSH1 0x20 ADD SWAP1 JUMP JUMPDEST PUSH1 0x40 MLOAD DUP1 SWAP2 SUB SWAP1 LOG3 POP POP POP JUMP JUMPDEST DUP1 MLOAD PUSH1 0x1 PUSH1 0x1 PUSH1 0xA0 SHL SUB DUP2 AND DUP2 EQ PUSH3 0x2F8 JUMPI PUSH0 DUP1 REVERT JUMPDEST SWAP2 SWAP1 POP JUMP JUMPDEST PUSH0 DUP1 PUSH0 PUSH1 0x60 DUP5 DUP7 SUB SLT ISZERO PUSH3 0x310 JUMPI PUSH0 DUP1 REVERT JUMPDEST PUSH3 0x31B DUP5 PUSH3 0x2E1 JUMP JUMPDEST SWAP3 POP PUSH1 0x20 DUP5 ADD MLOAD SWAP2 POP PUSH3 0x332 PUSH1 0x40 DUP6 ADD PUSH3 0x2E1 JUMP JUMPDEST SWAP1 POP SWAP3 POP SWAP3 POP SWAP3 JUMP JUMPDEST PUSH4 0x4E487B71 PUSH1 0xE0 SHL PUSH0 MSTORE PUSH1 0x41 PUSH1 0x4 MSTORE PUSH1 0x24 PUSH0 REVERT JUMPDEST PUSH1 0x1 DUP2 DUP2 SHR SWAP1 DUP3 AND DUP1 PUSH3 0x364 JUMPI PUSH1 0x7F DUP3 AND SWAP2 POP JUMPDEST PUSH1 0x20 DUP3 LT DUP2 SUB PUSH3 0x383 JUMPI PUSH4 0x4E487B71 PUSH1 0xE0 SHL PUSH0 MSTORE PUSH1 0x22 PUSH1 0x4 MSTORE PUSH1 0x24 PUSH0 REVERT JUMPDEST POP SWAP2 SWAP1 POP JUMP JUMPDEST PUSH1 0x1F DUP3 GT ISZERO PUSH3 0x3D4 JUMPI DUP1 PUSH0 MSTORE PUSH1 0x20 PUSH0 KECCAK256 PUSH1 0x1F DUP5 ADD PUSH1 0x5 SHR DUP2 ADD PUSH1 0x20 DUP6 LT ISZERO PUSH3 0x3B0 JUMPI POP DUP1 JUMPDEST PUSH1 0x1F DUP5 ADD PUSH1 0x5 SHR DUP3 ADD SWAP2 POP JUMPDEST DUP2 DUP2 LT ISZERO PUSH3 0x3D1 JUMPI PUSH0 DUP2 SSTORE PUSH1 0x1 ADD PUSH3 0x3BC JUMP JUMPDEST POP POP JUMPDEST POP POP POP JUMP JUMPDEST DUP2 MLOAD PUSH1 0x1 PUSH1 0x1 PUSH1 0x40 SHL SUB DUP2 GT ISZERO PUSH3 0x3F5 JUMPI PUSH3 0x3F5 PUSH3 0x33B JUMP JUMPDEST PUSH3 0x40D DUP2 PUSH3 0x406 DUP5 SLOAD PUSH3 0x34F JUMP JUMPDEST DUP5 PUSH3 0x389 JUMP JUMPDEST PUSH1 0x20 DUP1 PUSH1 0x1F DUP4 GT PUSH1 0x1 DUP2 EQ PUSH3 0x443 JUMPI PUSH0 DUP5 ISZERO PUSH3 0x42B JUMPI POP DUP6 DUP4 ADD MLOAD JUMPDEST PUSH0 NOT PUSH1 0x3 DUP7 SWAP1 SHL SHR NOT AND PUSH1 0x1 DUP6 SWAP1 SHL OR DUP6 SSTORE PUSH3 0x49D JUMP JUMPDEST PUSH0 DUP6 DUP2 MSTORE PUSH1 0x20 DUP2 KECCAK256 PUSH1 0x1F NOT DUP7 AND SWAP2 JUMPDEST DUP3 DUP2 LT ISZERO PUSH3 0x473 JUMPI DUP9 DUP7 ADD MLOAD DUP3 SSTORE SWAP5 DUP5 ADD SWAP5 PUSH1 0x1 SWAP1 SWAP2 ADD SWAP1 DUP5 ADD PUSH3 0x452 JUMP JUMPDEST POP DUP6 DUP3 LT ISZERO PUSH3 0x491 JUMPI DUP8 DUP6 ADD MLOAD PUSH0 NOT PUSH1 0x3 DUP9 SWAP1 SHL PUSH1 0xF8 AND SHR NOT AND DUP2 SSTORE JUMPDEST POP POP PUSH1 0x1 DUP5 PUSH1 0x1 SHL ADD DUP6 SSTORE JUMPDEST POP POP POP POP POP POP JUMP JUMPDEST PUSH4 0x4E487B71 PUSH1 0xE0 SHL PUSH0 MSTORE PUSH1 0x11 PUSH1 0x4 MSTORE PUSH1 0x24 PUSH0 REVERT JUMPDEST PUSH1 0x1 DUP2 DUP2 JUMPDEST DUP1 DUP6 GT ISZERO PUSH3 0x4F9 JUMPI DUP2 PUSH0 NOT DIV DUP3 GT ISZERO PUSH3 0x4DD JUMPI PUSH3 0x4DD PUSH3 0x4A5 JUMP JUMPDEST DUP1 DUP6 AND ISZERO PUSH3 0x4EB JUMPI SWAP2 DUP2 MUL SWAP2 JUMPDEST SWAP4 DUP5 SHR SWAP4 SWAP1 DUP1 MUL SWAP1 PUSH3 0x4BE JUMP JUMPDEST POP SWAP3 POP SWAP3 SWAP1 POP JUMP JUMPDEST PUSH0 DUP3 PUSH3 0x511 JUMPI POP PUSH1 0x1 PUSH3 0x5AE JUMP JUMPDEST DUP2 PUSH3 0x51F JUMPI POP PUSH0 PUSH3 0x5AE JUMP JUMPDEST DUP2 PUSH1 0x1 DUP2 EQ PUSH3 0x538 JUMPI PUSH1 0x2 DUP2 EQ PUSH3 0x543 JUMPI PUSH3 0x563 JUMP JUMPDEST PUSH1 0x1 SWAP2 POP POP PUSH3 0x5AE JUMP JUMPDEST PUSH1 0xFF DUP5 GT ISZERO PUSH3 0x557 JUMPI PUSH3 0x557 PUSH3 0x4A5 JUMP JUMPDEST POP POP PUSH1 0x1 DUP3 SHL PUSH3 0x5AE JUMP JUMPDEST POP PUSH1 0x20 DUP4 LT PUSH2 0x133 DUP4 LT AND PUSH1 0x4E DUP5 LT PUSH1 0xB DUP5 LT AND OR ISZERO PUSH3 0x588 JUMPI POP DUP2 DUP2 EXP PUSH3 0x5AE JUMP JUMPDEST PUSH3 0x594 DUP4 DUP4 PUSH3 0x4B9 JUMP JUMPDEST DUP1 PUSH0 NOT DIV DUP3 GT ISZERO PUSH3 0x5AA JUMPI PUSH3 0x5AA PUSH3 0x4A5 JUMP JUMPDEST MUL SWAP1 POP JUMPDEST SWAP3 SWAP2 POP POP JUMP JUMPDEST PUSH0 PUSH3 0x5C4 PUSH1 0xFF DUP5 AND DUP4 PUSH3 0x501 JUMP JUMPDEST SWAP4 SWAP3 POP POP POP JUMP JUMPDEST DUP1 DUP3 MUL DUP2 ISZERO DUP3 DUP3 DIV DUP5 EQ OR PUSH3 0x5AE JUMPI PUSH3 0x5AE PUSH3 0x4A5 JUMP JUMPDEST DUP1 DUP3 ADD DUP1 DUP3 GT ISZERO PUSH3 0x5AE JUMPI PUSH3 0x5AE PUSH3 0x4A5 JUMP JUMPDEST PUSH2 0xC21 DUP1 PUSH3 0x609 PUSH0 CODECOPY PUSH0 RETURN INVALID PUSH1 0x80 PUSH1 0x40 MSTORE CALLVALUE DUP1 ISZERO PUSH2 0xF JUMPI PUSH0 DUP1 REVERT JUMPDEST POP PUSH1 0x4 CALLDATASIZE LT PUSH2 0x11C JUMPI PUSH0 CALLDATALOAD PUSH1 0xE0 SHR DUP1 PUSH4 0x715018A6 GT PUSH2 0xA9 JUMPI DUP1 PUSH4 0xAC3C93CF GT PUSH2 0x6E JUMPI DUP1 PUSH4 0xAC3C93CF EQ PUSH2 0x249 JUMPI DUP1 PUSH4 0xBEA1DCF8 EQ PUSH2 0x273 JUMPI DUP1 PUSH4 0xDD62ED3E EQ PUSH2 0x286 JUMPI DUP1 PUSH4 0xEE33BC45 EQ PUSH2 0x2BE JUMPI DUP1 PUSH4 0xF2FDE38B EQ PUSH2 0x2C7 JUMPI PUSH0 DUP1 REVERT JUMPDEST DUP1 PUSH4 0x715018A6 EQ PUSH2 0x1EE JUMPI DUP1 PUSH4 0x79CC6790 EQ PUSH2 0x1F6 JUMPI DUP1 PUSH4 0x8DA5CB5B EQ PUSH2 0x209 JUMPI DUP1 PUSH4 0x95D89B41 EQ PUSH2 0x22E JUMPI DUP1 PUSH4 0xA9059CBB EQ PUSH2 0x236 JUMPI PUSH0 DUP1 REVERT JUMPDEST DUP1 PUSH4 0x2D44FF23 GT PUSH2 0xEF JUMPI DUP1 PUSH4 0x2D44FF23 EQ PUSH2 0x186 JUMPI DUP1 PUSH4 0x313CE567 EQ PUSH2 0x18F JUMPI DUP1 PUSH4 0x40C10F19 EQ PUSH2 0x19E JUMPI DUP1 PUSH4 0x42966C68 EQ PUSH2 0x1B3 JUMPI DUP1 PUSH4 0x70A08231 EQ PUSH2 0x1C6 JUMPI PUSH0 DUP1 REVERT JUMPDEST DUP1 PUSH4 0x6FDDE03 EQ PUSH2 0x120 JUMPI DUP1 PUSH4 0x95EA7B3 EQ PUSH2 0x13E JUMPI DUP1 PUSH4 0x18160DDD EQ PUSH2 0x161 JUMPI DUP1 PUSH4 0x23B872DD EQ PUSH2 0x173 JUMPI JUMPDEST PUSH0 DUP1 REVERT JUMPDEST PUSH2 0x128 PUSH2 0x2DA JUMP JUMPDEST PUSH1 0x40 MLOAD PUSH2 0x135 SWAP2 SWAP1 PUSH2 0x925 JUMP JUMPDEST PUSH1 0x40 MLOAD DUP1 SWAP2 SUB SWAP1 RETURN JUMPDEST PUSH2 0x151 PUSH2 0x14C CALLDATASIZE PUSH1 0x4 PUSH2 0x98C JUMP JUMPDEST PUSH2 0x36A JUMP JUMPDEST PUSH1 0x40 MLOAD SWAP1 ISZERO ISZERO DUP2 MSTORE PUSH1 0x20 ADD PUSH2 0x135 JUMP JUMPDEST PUSH1 0x2 SLOAD JUMPDEST PUSH1 0x40 MLOAD SWAP1 DUP2 MSTORE PUSH1 0x20 ADD PUSH2 0x135 JUMP JUMPDEST PUSH2 0x151 PUSH2 0x181 CALLDATASIZE PUSH1 0x4 PUSH2 0x9B4 JUMP JUMPDEST PUSH2 0x383 JUMP JUMPDEST PUSH2 0x165 PUSH1 0x7 SLOAD DUP2 JUMP JUMPDEST PUSH1 0x40 MLOAD PUSH1 0x9 DUP2 MSTORE PUSH1 0x20 ADD PUSH2 0x135 JUMP JUMPDEST PUSH2 0x1B1 PUSH2 0x1AC CALLDATASIZE PUSH1 0x4 PUSH2 0x98C JUMP JUMPDEST PUSH2 0x3A6 JUMP JUMPDEST STOP JUMPDEST PUSH2 0x1B1 PUSH2 0x1C1 CALLDATASIZE PUSH1 0x4 PUSH2 0x9ED JUMP JUMPDEST PUSH2 0x42E JUMP JUMPDEST PUSH2 0x165 PUSH2 0x1D4 CALLDATASIZE PUSH1 0x4 PUSH2 0xA04 JUMP JUMPDEST PUSH1 0x1 PUSH1 0x1 PUSH1 0xA0 SHL SUB AND PUSH0 SWAP1 DUP2 MSTORE PUSH1 0x20 DUP2 SWAP1 MSTORE PUSH1 0x40 SWAP1 KECCAK256 SLOAD SWAP1 JUMP JUMPDEST PUSH2 0x1B1 PUSH2 0x43B JUMP JUMPDEST PUSH2 0x1B1 PUSH2 0x204 CALLDATASIZE PUSH1 0x4 PUSH2 0x98C JUMP JUMPDEST PUSH2 0x44E JUMP JUMPDEST PUSH1 0x5 SLOAD PUSH1 0x1 PUSH1 0x1 PUSH1 0xA0 SHL SUB AND JUMPDEST PUSH1 0x40 MLOAD PUSH1 0x1 PUSH1 0x1 PUSH1 0xA0 SHL SUB SWAP1 SWAP2 AND DUP2 MSTORE PUSH1 0x20 ADD PUSH2 0x135 JUMP JUMPDEST PUSH2 0x128 PUSH2 0x463 JUMP JUMPDEST PUSH2 0x151 PUSH2 0x244 CALLDATASIZE PUSH1 0x4 PUSH2 0x98C JUMP JUMPDEST PUSH2 0x472 JUMP JUMPDEST PUSH2 0x165 PUSH2 0x257 CALLDATASIZE PUSH1 0x4 PUSH2 0xA24 JUMP JUMPDEST PUSH1 0x9 PUSH1 0x20 SWAP1 DUP2 MSTORE PUSH0 SWAP3 DUP4 MSTORE PUSH1 0x40 DUP1 DUP5 KECCAK256 SWAP1 SWAP2 MSTORE SWAP1 DUP3 MSTORE SWAP1 KECCAK256 SLOAD DUP2 JUMP JUMPDEST PUSH1 0x6 SLOAD PUSH2 0x216 SWAP1 PUSH1 0x1 PUSH1 0x1 PUSH1 0xA0 SHL SUB AND DUP2 JUMP JUMPDEST PUSH2 0x165 PUSH2 0x294 CALLDATASIZE PUSH1 0x4 PUSH2 0xA24 JUMP JUMPDEST PUSH1 0x1 PUSH1 0x1 PUSH1 0xA0 SHL SUB SWAP2 DUP3 AND PUSH0 SWAP1 DUP2 MSTORE PUSH1 0x1 PUSH1 0x20 SWAP1 DUP2 MSTORE PUSH1 0x40 DUP1 DUP4 KECCAK256 SWAP4 SWAP1 SWAP5 AND DUP3 MSTORE SWAP2 SWAP1 SWAP2 MSTORE KECCAK256 SLOAD SWAP1 JUMP JUMPDEST PUSH2 0x165 PUSH1 0x8 SLOAD DUP2 JUMP JUMPDEST PUSH2 0x1B1 PUSH2 0x2D5 CALLDATASIZE PUSH1 0x4 PUSH2 0xA04 JUMP JUMPDEST PUSH2 0x523 JUMP JUMPDEST PUSH1 0x60 PUSH1 0x3 DUP1 SLOAD PUSH2 0x2E9 SWAP1 PUSH2 0xA55 JUMP JUMPDEST DUP1 PUSH1 0x1F ADD PUSH1 0x20 DUP1 SWAP2 DIV MUL PUSH1 0x20 ADD PUSH1 0x40 MLOAD SWAP1 DUP2 ADD PUSH1 0x40 MSTORE DUP1 SWAP3 SWAP2 SWAP1 DUP2 DUP2 MSTORE PUSH1 0x20 ADD DUP3 DUP1 SLOAD PUSH2 0x315 SWAP1 PUSH2 0xA55 JUMP JUMPDEST DUP1 ISZERO PUSH2 0x360 JUMPI DUP1 PUSH1 0x1F LT PUSH2 0x337 JUMPI PUSH2 0x100 DUP1 DUP4 SLOAD DIV MUL DUP4 MSTORE SWAP2 PUSH1 0x20 ADD SWAP2 PUSH2 0x360 JUMP JUMPDEST DUP3 ADD SWAP2 SWAP1 PUSH0 MSTORE PUSH1 0x20 PUSH0 KECCAK256 SWAP1 JUMPDEST DUP2 SLOAD DUP2 MSTORE SWAP1 PUSH1 0x1 ADD SWAP1 PUSH1 0x20 ADD DUP1 DUP4 GT PUSH2 0x343 JUMPI DUP3 SWAP1 SUB PUSH1 0x1F AND DUP3 ADD SWAP2 JUMPDEST POP POP POP POP POP SWAP1 POP SWAP1 JUMP JUMPDEST PUSH0 CALLER PUSH2 0x377 DUP2 DUP6 DUP6 PUSH2 0x55D JUMP JUMPDEST PUSH1 0x1 SWAP2 POP POP JUMPDEST SWAP3 SWAP2 POP POP JUMP JUMPDEST PUSH0 CALLER PUSH2 0x390 DUP6 DUP3 DUP6 PUSH2 0x56F JUMP JUMPDEST PUSH2 0x39B DUP6 DUP6 DUP6 PUSH2 0x5EA JUMP JUMPDEST POP PUSH1 0x1 SWAP5 SWAP4 POP POP POP POP JUMP JUMPDEST PUSH2 0x3AE PUSH2 0x647 JUMP JUMPDEST PUSH1 0x1 PUSH1 0x1 PUSH1 0xA0 SHL SUB DUP3 AND CALLER EQ PUSH2 0x40B JUMPI PUSH1 0x40 MLOAD PUSH3 0x461BCD PUSH1 0xE5 SHL DUP2 MSTORE PUSH1 0x20 PUSH1 0x4 DUP3 ADD MSTORE PUSH1 0x1D PUSH1 0x24 DUP3 ADD MSTORE PUSH32 0x4D696E74696E6720616C6C6F776564206F6E6C7920746F206F776E6572000000 PUSH1 0x44 DUP3 ADD MSTORE PUSH1 0x64 ADD JUMPDEST PUSH1 0x40 MLOAD DUP1 SWAP2 SUB SWAP1 REVERT JUMPDEST PUSH2 0x42A DUP3 PUSH2 0x41B PUSH1 0x9 PUSH1 0xA PUSH2 0xB81 JUMP JUMPDEST PUSH2 0x425 SWAP1 DUP5 PUSH2 0xB8F JUMP JUMPDEST PUSH2 0x674 JUMP JUMPDEST POP POP JUMP JUMPDEST PUSH2 0x438 CALLER DUP3 PUSH2 0x6A8 JUMP JUMPDEST POP JUMP JUMPDEST PUSH2 0x443 PUSH2 0x647 JUMP JUMPDEST PUSH2 0x44C PUSH0 PUSH2 0x6DC JUMP JUMPDEST JUMP JUMPDEST PUSH2 0x459 DUP3 CALLER DUP4 PUSH2 0x56F JUMP JUMPDEST PUSH2 0x42A DUP3 DUP3 PUSH2 0x6A8 JUMP JUMPDEST PUSH1 0x60 PUSH1 0x4 DUP1 SLOAD PUSH2 0x2E9 SWAP1 PUSH2 0xA55 JUMP JUMPDEST PUSH0 PUSH1 0x64 PUSH2 0x480 DUP4 PUSH1 0x5 PUSH2 0xB8F JUMP JUMPDEST PUSH2 0x48A SWAP2 SWAP1 PUSH2 0xBA6 JUMP JUMPDEST PUSH1 0x7 DUP2 SWAP1 SSTORE PUSH0 SWAP1 PUSH2 0x49B SWAP1 DUP5 PUSH2 0xBC5 JUMP JUMPDEST SWAP1 POP PUSH1 0x7 SLOAD PUSH1 0x8 SLOAD PUSH2 0x4AD SWAP2 SWAP1 PUSH2 0xBD8 JUMP JUMPDEST PUSH1 0x8 SSTORE PUSH1 0x6 SLOAD PUSH1 0x7 SLOAD PUSH1 0x1 PUSH1 0x1 PUSH1 0xA0 SHL SUB SWAP1 SWAP2 AND SWAP1 PUSH2 0x4CF SWAP1 CALLER SWAP1 DUP4 SWAP1 PUSH2 0x5EA JUMP JUMPDEST PUSH2 0x4DA CALLER DUP7 DUP5 PUSH2 0x5EA JUMP JUMPDEST PUSH1 0x7 SLOAD PUSH1 0x1 PUSH1 0x1 PUSH1 0xA0 SHL SUB DUP1 DUP4 AND PUSH0 SWAP1 DUP2 MSTORE PUSH1 0x9 PUSH1 0x20 SWAP1 DUP2 MSTORE PUSH1 0x40 DUP1 DUP4 KECCAK256 SWAP4 DUP11 AND DUP4 MSTORE SWAP3 SWAP1 MSTORE SWAP1 DUP2 KECCAK256 DUP1 SLOAD SWAP1 SWAP2 SWAP1 PUSH2 0x513 SWAP1 DUP5 SWAP1 PUSH2 0xBD8 JUMP JUMPDEST SWAP1 SWAP2 SSTORE POP PUSH1 0x1 SWAP7 SWAP6 POP POP POP POP POP POP JUMP JUMPDEST PUSH2 0x52B PUSH2 0x647 JUMP JUMPDEST PUSH1 0x1 PUSH1 0x1 PUSH1 0xA0 SHL SUB DUP2 AND PUSH2 0x554 JUMPI PUSH1 0x40 MLOAD PUSH4 0x1E4FBDF7 PUSH1 0xE0 SHL DUP2 MSTORE PUSH0 PUSH1 0x4 DUP3 ADD MSTORE PUSH1 0x24 ADD PUSH2 0x402 JUMP JUMPDEST PUSH2 0x438 DUP2 PUSH2 0x6DC JUMP JUMPDEST PUSH2 0x56A DUP4 DUP4 DUP4 PUSH1 0x1 PUSH2 0x72D JUMP JUMPDEST POP POP POP JUMP JUMPDEST PUSH1 0x1 PUSH1 0x1 PUSH1 0xA0 SHL SUB DUP4 DUP2 AND PUSH0 SWAP1 DUP2 MSTORE PUSH1 0x1 PUSH1 0x20 SWAP1 DUP2 MSTORE PUSH1 0x40 DUP1 DUP4 KECCAK256 SWAP4 DUP7 AND DUP4 MSTORE SWAP3 SWAP1 MSTORE KECCAK256 SLOAD PUSH0 NOT DUP2 EQ PUSH2 0x5E4 JUMPI DUP2 DUP2 LT ISZERO PUSH2 0x5D6 JUMPI PUSH1 0x40 MLOAD PUSH4 0x7DC7A0D9 PUSH1 0xE1 SHL DUP2 MSTORE PUSH1 0x1 PUSH1 0x1 PUSH1 0xA0 SHL SUB DUP5 AND PUSH1 0x4 DUP3 ADD MSTORE PUSH1 0x24 DUP2 ADD DUP3 SWAP1 MSTORE PUSH1 0x44 DUP2 ADD DUP4 SWAP1 MSTORE PUSH1 0x64 ADD PUSH2 0x402 JUMP JUMPDEST PUSH2 0x5E4 DUP5 DUP5 DUP5 DUP5 SUB PUSH0 PUSH2 0x72D JUMP JUMPDEST POP POP POP POP JUMP JUMPDEST PUSH1 0x1 PUSH1 0x1 PUSH1 0xA0 SHL SUB DUP4 AND PUSH2 0x613 JUMPI PUSH1 0x40 MLOAD PUSH4 0x4B637E8F PUSH1 0xE1 SHL DUP2 MSTORE PUSH0 PUSH1 0x4 DUP3 ADD MSTORE PUSH1 0x24 ADD PUSH2 0x402 JUMP JUMPDEST PUSH1 0x1 PUSH1 0x1 PUSH1 0xA0 SHL SUB DUP3 AND PUSH2 0x63C JUMPI PUSH1 0x40 MLOAD PUSH4 0xEC442F05 PUSH1 0xE0 SHL DUP2 MSTORE PUSH0 PUSH1 0x4 DUP3 ADD MSTORE PUSH1 0x24 ADD PUSH2 0x402 JUMP JUMPDEST PUSH2 0x56A DUP4 DUP4 DUP4 PUSH2 0x7FF JUMP JUMPDEST PUSH1 0x5 SLOAD PUSH1 0x1 PUSH1 0x1 PUSH1 0xA0 SHL SUB AND CALLER EQ PUSH2 0x44C JUMPI PUSH1 0x40 MLOAD PUSH4 0x118CDAA7 PUSH1 0xE0 SHL DUP2 MSTORE CALLER PUSH1 0x4 DUP3 ADD MSTORE PUSH1 0x24 ADD PUSH2 0x402 JUMP JUMPDEST PUSH1 0x1 PUSH1 0x1 PUSH1 0xA0 SHL SUB DUP3 AND PUSH2 0x69D JUMPI PUSH1 0x40 MLOAD PUSH4 0xEC442F05 PUSH1 0xE0 SHL DUP2 MSTORE PUSH0 PUSH1 0x4 DUP3 ADD MSTORE PUSH1 0x24 ADD PUSH2 0x402 JUMP JUMPDEST PUSH2 0x42A PUSH0 DUP4 DUP4 PUSH2 0x7FF JUMP JUMPDEST PUSH1 0x1 PUSH1 0x1 PUSH1 0xA0 SHL SUB DUP3 AND PUSH2 0x6D1 JUMPI PUSH1 0x40 MLOAD PUSH4 0x4B637E8F PUSH1 0xE1 SHL DUP2 MSTORE PUSH0 PUSH1 0x4 DUP3 ADD MSTORE PUSH1 0x24 ADD PUSH2 0x402 JUMP JUMPDEST PUSH2 0x42A DUP3 PUSH0 DUP4 PUSH2 0x7FF JUMP JUMPDEST PUSH1 0x5 DUP1 SLOAD PUSH1 0x1 PUSH1 0x1 PUSH1 0xA0 SHL SUB DUP4 DUP2 AND PUSH1 0x1 PUSH1 0x1 PUSH1 0xA0 SHL SUB NOT DUP4 AND DUP2 OR SWAP1 SWAP4 SSTORE PUSH1 0x40 MLOAD SWAP2 AND SWAP2 SWAP1 DUP3 SWAP1 PUSH32 0x8BE0079C531659141344CD1FD0A4F28419497F9722A3DAAFE3B4186F6B6457E0 SWAP1 PUSH0 SWAP1 LOG3 POP POP JUMP JUMPDEST PUSH1 0x1 PUSH1 0x1 PUSH1 0xA0 SHL SUB DUP5 AND PUSH2 0x756 JUMPI PUSH1 0x40 MLOAD PUSH4 0xE602DF05 PUSH1 0xE0 SHL DUP2 MSTORE PUSH0 PUSH1 0x4 DUP3 ADD MSTORE PUSH1 0x24 ADD PUSH2 0x402 JUMP JUMPDEST PUSH1 0x1 PUSH1 0x1 PUSH1 0xA0 SHL SUB DUP4 AND PUSH2 0x77F JUMPI PUSH1 0x40 MLOAD PUSH4 0x4A1406B1 PUSH1 0xE1 SHL DUP2 MSTORE PUSH0 PUSH1 0x4 DUP3 ADD MSTORE PUSH1 0x24 ADD PUSH2 0x402 JUMP JUMPDEST PUSH1 0x1 PUSH1 0x1 PUSH1 0xA0 SHL SUB DUP1 DUP6 AND PUSH0 SWAP1 DUP2 MSTORE PUSH1 0x1 PUSH1 0x20 SWAP1 DUP2 MSTORE PUSH1 0x40 DUP1 DUP4 KECCAK256 SWAP4 DUP8 AND DUP4 MSTORE SWAP3 SWAP1 MSTORE KECCAK256 DUP3 SWAP1 SSTORE DUP1 ISZERO PUSH2 0x5E4 JUMPI DUP3 PUSH1 0x1 PUSH1 0x1 PUSH1 0xA0 SHL SUB AND DUP5 PUSH1 0x1 PUSH1 0x1 PUSH1 0xA0 SHL SUB AND PUSH32 0x8C5BE1E5EBEC7D5BD14F71427D1E84F3DD0314C0F7B2291E5B200AC8C7C3B925 DUP5 PUSH1 0x40 MLOAD PUSH2 0x7F1 SWAP2 DUP2 MSTORE PUSH1 0x20 ADD SWAP1 JUMP JUMPDEST PUSH1 0x40 MLOAD DUP1 SWAP2 SUB SWAP1 LOG3 POP POP POP POP JUMP JUMPDEST PUSH1 0x1 PUSH1 0x1 PUSH1 0xA0 SHL SUB DUP4 AND PUSH2 0x829 JUMPI DUP1 PUSH1 0x2 PUSH0 DUP3 DUP3 SLOAD PUSH2 0x81E SWAP2 SWAP1 PUSH2 0xBD8 JUMP JUMPDEST SWAP1 SWAP2 SSTORE POP PUSH2 0x899 SWAP1 POP JUMP JUMPDEST PUSH1 0x1 PUSH1 0x1 PUSH1 0xA0 SHL SUB DUP4 AND PUSH0 SWAP1 DUP2 MSTORE PUSH1 0x20 DUP2 SWAP1 MSTORE PUSH1 0x40 SWAP1 KECCAK256 SLOAD DUP2 DUP2 LT ISZERO PUSH2 0x87B JUMPI PUSH1 0x40 MLOAD PUSH4 0x391434E3 PUSH1 0xE2 SHL DUP2 MSTORE PUSH1 0x1 PUSH1 0x1 PUSH1 0xA0 SHL SUB DUP6 AND PUSH1 0x4 DUP3 ADD MSTORE PUSH1 0x24 DUP2 ADD DUP3 SWAP1 MSTORE PUSH1 0x44 DUP2 ADD DUP4 SWAP1 MSTORE PUSH1 0x64 ADD PUSH2 0x402 JUMP JUMPDEST PUSH1 0x1 PUSH1 0x1 PUSH1 0xA0 SHL SUB DUP5 AND PUSH0 SWAP1 DUP2 MSTORE PUSH1 0x20 DUP2 SWAP1 MSTORE PUSH1 0x40 SWAP1 KECCAK256 SWAP1 DUP3 SWAP1 SUB SWAP1 SSTORE JUMPDEST PUSH1 0x1 PUSH1 0x1 PUSH1 0xA0 SHL SUB DUP3 AND PUSH2 0x8B5 JUMPI PUSH1 0x2 DUP1 SLOAD DUP3 SWAP1 SUB SWAP1 SSTORE PUSH2 0x8D3 JUMP JUMPDEST PUSH1 0x1 PUSH1 0x1 PUSH1 0xA0 SHL SUB DUP3 AND PUSH0 SWAP1 DUP2 MSTORE PUSH1 0x20 DUP2 SWAP1 MSTORE PUSH1 0x40 SWAP1 KECCAK256 DUP1 SLOAD DUP3 ADD SWAP1 SSTORE JUMPDEST DUP2 PUSH1 0x1 PUSH1 0x1 PUSH1 0xA0 SHL SUB AND DUP4 PUSH1 0x1 PUSH1 0x1 PUSH1 0xA0 SHL SUB AND PUSH32 0xDDF252AD1BE2C89B69C2B068FC378DAA952BA7F163C4A11628F55A4DF523B3EF DUP4 PUSH1 0x40 MLOAD PUSH2 0x918 SWAP2 DUP2 MSTORE PUSH1 0x20 ADD SWAP1 JUMP JUMPDEST PUSH1 0x40 MLOAD DUP1 SWAP2 SUB SWAP1 LOG3 POP POP POP JUMP JUMPDEST PUSH0 PUSH1 0x20 DUP1 DUP4 MSTORE DUP4 MLOAD DUP1 PUSH1 0x20 DUP6 ADD MSTORE PUSH0 JUMPDEST DUP2 DUP2 LT ISZERO PUSH2 0x951 JUMPI DUP6 DUP2 ADD DUP4 ADD MLOAD DUP6 DUP3 ADD PUSH1 0x40 ADD MSTORE DUP3 ADD PUSH2 0x935 JUMP JUMPDEST POP PUSH0 PUSH1 0x40 DUP3 DUP7 ADD ADD MSTORE PUSH1 0x40 PUSH1 0x1F NOT PUSH1 0x1F DUP4 ADD AND DUP6 ADD ADD SWAP3 POP POP POP SWAP3 SWAP2 POP POP JUMP JUMPDEST DUP1 CALLDATALOAD PUSH1 0x1 PUSH1 0x1 PUSH1 0xA0 SHL SUB DUP2 AND DUP2 EQ PUSH2 0x987 JUMPI PUSH0 DUP1 REVERT JUMPDEST SWAP2 SWAP1 POP JUMP JUMPDEST PUSH0 DUP1 PUSH1 0x40 DUP4 DUP6 SUB SLT ISZERO PUSH2 0x99D JUMPI PUSH0 DUP1 REVERT JUMPDEST PUSH2 0x9A6 DUP4 PUSH2 0x971 JUMP JUMPDEST SWAP5 PUSH1 0x20 SWAP4 SWAP1 SWAP4 ADD CALLDATALOAD SWAP4 POP POP POP JUMP JUMPDEST PUSH0 DUP1 PUSH0 PUSH1 0x60 DUP5 DUP7 SUB SLT ISZERO PUSH2 0x9C6 JUMPI PUSH0 DUP1 REVERT JUMPDEST PUSH2 0x9CF DUP5 PUSH2 0x971 JUMP JUMPDEST SWAP3 POP PUSH2 0x9DD PUSH1 0x20 DUP6 ADD PUSH2 0x971 JUMP JUMPDEST SWAP2 POP PUSH1 0x40 DUP5 ADD CALLDATALOAD SWAP1 POP SWAP3 POP SWAP3 POP SWAP3 JUMP JUMPDEST PUSH0 PUSH1 0x20 DUP3 DUP5 SUB SLT ISZERO PUSH2 0x9FD JUMPI PUSH0 DUP1 REVERT JUMPDEST POP CALLDATALOAD SWAP2 SWAP1 POP JUMP JUMPDEST PUSH0 PUSH1 0x20 DUP3 DUP5 SUB SLT ISZERO PUSH2 0xA14 JUMPI PUSH0 DUP1 REVERT JUMPDEST PUSH2 0xA1D DUP3 PUSH2 0x971 JUMP JUMPDEST SWAP4 SWAP3 POP POP POP JUMP JUMPDEST PUSH0 DUP1 PUSH1 0x40 DUP4 DUP6 SUB SLT ISZERO PUSH2 0xA35 JUMPI PUSH0 DUP1 REVERT JUMPDEST PUSH2 0xA3E DUP4 PUSH2 0x971 JUMP JUMPDEST SWAP2 POP PUSH2 0xA4C PUSH1 0x20 DUP5 ADD PUSH2 0x971 JUMP JUMPDEST SWAP1 POP SWAP3 POP SWAP3 SWAP1 POP JUMP JUMPDEST PUSH1 0x1 DUP2 DUP2 SHR SWAP1 DUP3 AND DUP1 PUSH2 0xA69 JUMPI PUSH1 0x7F DUP3 AND SWAP2 POP JUMPDEST PUSH1 0x20 DUP3 LT DUP2 SUB PUSH2 0xA87 JUMPI PUSH4 0x4E487B71 PUSH1 0xE0 SHL PUSH0 MSTORE PUSH1 0x22 PUSH1 0x4 MSTORE PUSH1 0x24 PUSH0 REVERT JUMPDEST POP SWAP2 SWAP1 POP JUMP JUMPDEST PUSH4 0x4E487B71 PUSH1 0xE0 SHL PUSH0 MSTORE PUSH1 0x11 PUSH1 0x4 MSTORE PUSH1 0x24 PUSH0 REVERT JUMPDEST PUSH1 0x1 DUP2 DUP2 JUMPDEST DUP1 DUP6 GT ISZERO PUSH2 0xADB JUMPI DUP2 PUSH0 NOT DIV DUP3 GT ISZERO PUSH2 0xAC1 JUMPI PUSH2 0xAC1 PUSH2 0xA8D JUMP JUMPDEST DUP1 DUP6 AND ISZERO PUSH2 0xACE JUMPI SWAP2 DUP2 MUL SWAP2 JUMPDEST SWAP4 DUP5 SHR SWAP4 SWAP1 DUP1 MUL SWAP1 PUSH2 0xAA6 JUMP JUMPDEST POP SWAP3 POP SWAP3 SWAP1 POP JUMP JUMPDEST PUSH0 DUP3 PUSH2 0xAF1 JUMPI POP PUSH1 0x1 PUSH2 0x37D JUMP JUMPDEST DUP2 PUSH2 0xAFD JUMPI POP PUSH0 PUSH2 0x37D JUMP JUMPDEST DUP2 PUSH1 0x1 DUP2 EQ PUSH2 0xB13 JUMPI PUSH1 0x2 DUP2 EQ PUSH2 0xB1D JUMPI PUSH2 0xB39 JUMP JUMPDEST PUSH1 0x1 SWAP2 POP POP PUSH2 0x37D JUMP JUMPDEST PUSH1 0xFF DUP5 GT ISZERO PUSH2 0xB2E JUMPI PUSH2 0xB2E PUSH2 0xA8D JUMP JUMPDEST POP POP PUSH1 0x1 DUP3 SHL PUSH2 0x37D JUMP JUMPDEST POP PUSH1 0x20 DUP4 LT PUSH2 0x133 DUP4 LT AND PUSH1 0x4E DUP5 LT PUSH1 0xB DUP5 LT AND OR ISZERO PUSH2 0xB5C JUMPI POP DUP2 DUP2 EXP PUSH2 0x37D JUMP JUMPDEST PUSH2 0xB66 DUP4 DUP4 PUSH2 0xAA1 JUMP JUMPDEST DUP1 PUSH0 NOT DIV DUP3 GT ISZERO PUSH2 0xB79 JUMPI PUSH2 0xB79 PUSH2 0xA8D JUMP JUMPDEST MUL SWAP4 SWAP3 POP POP POP JUMP JUMPDEST PUSH0 PUSH2 0xA1D PUSH1 0xFF DUP5 AND DUP4 PUSH2 0xAE3 JUMP JUMPDEST DUP1 DUP3 MUL DUP2 ISZERO DUP3 DUP3 DIV DUP5 EQ OR PUSH2 0x37D JUMPI PUSH2 0x37D PUSH2 0xA8D JUMP JUMPDEST PUSH0 DUP3 PUSH2 0xBC0 JUMPI PUSH4 0x4E487B71 PUSH1 0xE0 SHL PUSH0 MSTORE PUSH1 0x12 PUSH1 0x4 MSTORE PUSH1 0x24 PUSH0 REVERT JUMPDEST POP DIV SWAP1 JUMP JUMPDEST DUP2 DUP2 SUB DUP2 DUP2 GT ISZERO PUSH2 0x37D JUMPI PUSH2 0x37D PUSH2 0xA8D JUMP JUMPDEST DUP1 DUP3 ADD DUP1 DUP3 GT ISZERO PUSH2 0x37D JUMPI PUSH2 0x37D PUSH2 0xA8D JUMP INVALID LOG2 PUSH5 0x6970667358 0x22 SLT KECCAK256 0x2A 0x5D PUSH7 0xC70CE3C1A34848 0xD9 CHAINID CALLDATACOPY 0x26 0xF7 0x5D 0xAB SHL 0xAA ADD 0xAA PUSH10 0xD0C46537E45E9EF9C881 PUSH5 0x736F6C6343 STOP ADDMOD OR STOP CALLER "
				},
				"gasEstimates": {
					"creation": {
						"codeDepositCost": "621000",
						"executionCost": "infinite",
						"totalCost": "infinite"
					},
					"external": {
						"_taxRecord(address,address)": "infinite",
						"allowance(address,address)": "infinite",
						"approve(address,uint256)": "24758",
						"balanceOf(address)": "2648",
						"burn(uint256)": "51005",
						"burnFrom(address,uint256)": "infinite",
						"currentTaxDeducted()": "2317",
						"decimals()": "221",
						"grossTaxCollected()": "2382",
						"mint(address,uint256)": "infinite",
						"name()": "infinite",
						"owner()": "2386",
						"renounceOwnership()": "infinite",
						"symbol()": "infinite",
						"taxCollector()": "2380",
						"totalSupply()": "2348",
						"transfer(address,uint256)": "infinite",
						"transferFrom(address,address,uint256)": "infinite",
						"transferOwnership(address)": "28443"
					}
				},
				"methodIdentifiers": {
					"_taxRecord(address,address)": "ac3c93cf",
					"allowance(address,address)": "dd62ed3e",
					"approve(address,uint256)": "095ea7b3",
					"balanceOf(address)": "70a08231",
					"burn(uint256)": "42966c68",
					"burnFrom(address,uint256)": "79cc6790",
					"currentTaxDeducted()": "2d44ff23",
					"decimals()": "313ce567",
					"grossTaxCollected()": "ee33bc45",
					"mint(address,uint256)": "40c10f19",
					"name()": "06fdde03",
					"owner()": "8da5cb5b",
					"renounceOwnership()": "715018a6",
					"symbol()": "95d89b41",
					"taxCollector()": "bea1dcf8",
					"totalSupply()": "18160ddd",
					"transfer(address,uint256)": "a9059cbb",
					"transferFrom(address,address,uint256)": "23b872dd",
					"transferOwnership(address)": "f2fde38b"
				}
			},
			"storageLayout": {
				"storage": [
					{
						"astId": 307,
						"contract": "contracts/Erc1.sol:MyFirstToken",
						"label": "_balances",
						"offset": 0,
						"slot": "0",
						"type": "t_mapping(t_address,t_uint256)"
					},
					{
						"astId": 313,
						"contract": "contracts/Erc1.sol:MyFirstToken",
						"label": "_allowances",
						"offset": 0,
						"slot": "1",
						"type": "t_mapping(t_address,t_mapping(t_address,t_uint256))"
					},
					{
						"astId": 315,
						"contract": "contracts/Erc1.sol:MyFirstToken",
						"label": "_totalSupply",
						"offset": 0,
						"slot": "2",
						"type": "t_uint256"
					},
					{
						"astId": 317,
						"contract": "contracts/Erc1.sol:MyFirstToken",
						"label": "_name",
						"offset": 0,
						"slot": "3",
						"type": "t_string_storage"
					},
					{
						"astId": 319,
						"contract": "contracts/Erc1.sol:MyFirstToken",
						"label": "_symbol",
						"offset": 0,
						"slot": "4",
						"type": "t_string_storage"
					},
					{
						"astId": 8,
						"contract": "contracts/Erc1.sol:MyFirstToken",
						"label": "_owner",
						"offset": 0,
						"slot": "5",
						"type": "t_address"
					},
					{
						"astId": 992,
						"contract": "contracts/Erc1.sol:MyFirstToken",
						"label": "taxCollector",
						"offset": 0,
						"slot": "6",
						"type": "t_address"
					},
					{
						"astId": 994,
						"contract": "contracts/Erc1.sol:MyFirstToken",
						"label": "currentTaxDeducted",
						"offset": 0,
						"slot": "7",
						"type": "t_uint256"
					},
					{
						"astId": 996,
						"contract": "contracts/Erc1.sol:MyFirstToken",
						"label": "grossTaxCollected",
						"offset": 0,
						"slot": "8",
						"type": "t_uint256"
					},
					{
						"astId": 1002,
						"contract": "contracts/Erc1.sol:MyFirstToken",
						"label": "_taxRecord",
						"offset": 0,
						"slot": "9",
						"type": "t_mapping(t_address,t_mapping(t_address,t_uint256))"
					}
				],
				"types": {
					"t_address": {
						"encoding": "inplace",
						"label": "address",
						"numberOfBytes": "20"
					},
					"t_mapping(t_address,t_mapping(t_address,t_uint256))": {
						"encoding": "mapping",
						"key": "t_address",
						"label": "mapping(address => mapping(address => uint256))",
						"numberOfBytes": "32",
						"value": "t_mapping(t_address,t_uint256)"
					},
					"t_mapping(t_address,t_uint256)": {
						"encoding": "mapping",
						"key": "t_address",
						"label": "mapping(address => uint256)",
						"numberOfBytes": "32",
						"value": "t_uint256"
					},
					"t_string_storage": {
						"encoding": "bytes",
						"label": "string",
						"numberOfBytes": "32"
					},
					"t_uint256": {
						"encoding": "inplace",
						"label": "uint256",
						"numberOfBytes": "32"
					}
				}
			},
			"userdoc": {
				"kind": "user",
				"methods": {},
				"version": 1
			}
		}
	}
}